
SPI-TS_luis-antonio-rodriguez_20220512.elf:     file format elf32-littlearm

Sections:
Idx Name          Size      VMA       LMA       File off  Algn
  0 .isr_vector   000001ac  08000000  08000000  00010000  2**0
                  CONTENTS, ALLOC, LOAD, READONLY, DATA
  1 .text         000020a8  080001ac  080001ac  000101ac  2**2
                  CONTENTS, ALLOC, LOAD, READONLY, CODE
  2 .rodata       00000028  08002254  08002254  00012254  2**2
                  CONTENTS, ALLOC, LOAD, READONLY, DATA
  3 .ARM.extab    00000000  0800227c  0800227c  0002000c  2**0
                  CONTENTS
  4 .ARM          00000008  0800227c  0800227c  0001227c  2**2
                  CONTENTS, ALLOC, LOAD, READONLY, DATA
  5 .preinit_array 00000000  08002284  08002284  0002000c  2**0
                  CONTENTS, ALLOC, LOAD, DATA
  6 .init_array   00000004  08002284  08002284  00012284  2**2
                  CONTENTS, ALLOC, LOAD, DATA
  7 .fini_array   00000004  08002288  08002288  00012288  2**2
                  CONTENTS, ALLOC, LOAD, DATA
  8 .data         0000000c  20000000  0800228c  00020000  2**2
                  CONTENTS, ALLOC, LOAD, DATA
  9 .ccmram       00000000  10000000  10000000  0002000c  2**0
                  CONTENTS
 10 .bss          00000064  2000000c  2000000c  0002000c  2**2
                  ALLOC
 11 ._user_heap_stack 00000600  20000070  20000070  0002000c  2**0
                  ALLOC
 12 .ARM.attributes 00000030  00000000  00000000  0002000c  2**0
                  CONTENTS, READONLY
 13 .debug_info   00007812  00000000  00000000  0002003c  2**0
                  CONTENTS, READONLY, DEBUGGING, OCTETS
 14 .debug_abbrev 0000120e  00000000  00000000  0002784e  2**0
                  CONTENTS, READONLY, DEBUGGING, OCTETS
 15 .debug_aranges 00000618  00000000  00000000  00028a60  2**3
                  CONTENTS, READONLY, DEBUGGING, OCTETS
 16 .debug_ranges 000005b0  00000000  00000000  00029078  2**3
                  CONTENTS, READONLY, DEBUGGING, OCTETS
 17 .debug_macro  00021995  00000000  00000000  00029628  2**0
                  CONTENTS, READONLY, DEBUGGING, OCTETS
 18 .debug_line   0000752c  00000000  00000000  0004afbd  2**0
                  CONTENTS, READONLY, DEBUGGING, OCTETS
 19 .debug_str    000cd701  00000000  00000000  000524e9  2**0
                  CONTENTS, READONLY, DEBUGGING, OCTETS
 20 .comment      00000050  00000000  00000000  0011fbea  2**0
                  CONTENTS, READONLY
 21 .debug_frame  000017e8  00000000  00000000  0011fc3c  2**2
                  CONTENTS, READONLY, DEBUGGING, OCTETS

Disassembly of section .text:

080001ac <__do_global_dtors_aux>:
 80001ac:	b510      	push	{r4, lr}
 80001ae:	4c05      	ldr	r4, [pc, #20]	; (80001c4 <__do_global_dtors_aux+0x18>)
 80001b0:	7823      	ldrb	r3, [r4, #0]
 80001b2:	b933      	cbnz	r3, 80001c2 <__do_global_dtors_aux+0x16>
 80001b4:	4b04      	ldr	r3, [pc, #16]	; (80001c8 <__do_global_dtors_aux+0x1c>)
 80001b6:	b113      	cbz	r3, 80001be <__do_global_dtors_aux+0x12>
 80001b8:	4804      	ldr	r0, [pc, #16]	; (80001cc <__do_global_dtors_aux+0x20>)
 80001ba:	f3af 8000 	nop.w
 80001be:	2301      	movs	r3, #1
 80001c0:	7023      	strb	r3, [r4, #0]
 80001c2:	bd10      	pop	{r4, pc}
 80001c4:	2000000c 	.word	0x2000000c
 80001c8:	00000000 	.word	0x00000000
 80001cc:	0800223c 	.word	0x0800223c

080001d0 <frame_dummy>:
 80001d0:	b508      	push	{r3, lr}
 80001d2:	4b03      	ldr	r3, [pc, #12]	; (80001e0 <frame_dummy+0x10>)
 80001d4:	b11b      	cbz	r3, 80001de <frame_dummy+0xe>
 80001d6:	4903      	ldr	r1, [pc, #12]	; (80001e4 <frame_dummy+0x14>)
 80001d8:	4803      	ldr	r0, [pc, #12]	; (80001e8 <frame_dummy+0x18>)
 80001da:	f3af 8000 	nop.w
 80001de:	bd08      	pop	{r3, pc}
 80001e0:	00000000 	.word	0x00000000
 80001e4:	20000010 	.word	0x20000010
 80001e8:	0800223c 	.word	0x0800223c

080001ec <__aeabi_uldivmod>:
 80001ec:	b953      	cbnz	r3, 8000204 <__aeabi_uldivmod+0x18>
 80001ee:	b94a      	cbnz	r2, 8000204 <__aeabi_uldivmod+0x18>
 80001f0:	2900      	cmp	r1, #0
 80001f2:	bf08      	it	eq
 80001f4:	2800      	cmpeq	r0, #0
 80001f6:	bf1c      	itt	ne
 80001f8:	f04f 31ff 	movne.w	r1, #4294967295
 80001fc:	f04f 30ff 	movne.w	r0, #4294967295
 8000200:	f000 b974 	b.w	80004ec <__aeabi_idiv0>
 8000204:	f1ad 0c08 	sub.w	ip, sp, #8
 8000208:	e96d ce04 	strd	ip, lr, [sp, #-16]!
 800020c:	f000 f806 	bl	800021c <__udivmoddi4>
 8000210:	f8dd e004 	ldr.w	lr, [sp, #4]
 8000214:	e9dd 2302 	ldrd	r2, r3, [sp, #8]
 8000218:	b004      	add	sp, #16
 800021a:	4770      	bx	lr

0800021c <__udivmoddi4>:
 800021c:	e92d 47f0 	stmdb	sp!, {r4, r5, r6, r7, r8, r9, sl, lr}
 8000220:	9d08      	ldr	r5, [sp, #32]
 8000222:	4604      	mov	r4, r0
 8000224:	468e      	mov	lr, r1
 8000226:	2b00      	cmp	r3, #0
 8000228:	d14d      	bne.n	80002c6 <__udivmoddi4+0xaa>
 800022a:	428a      	cmp	r2, r1
 800022c:	4694      	mov	ip, r2
 800022e:	d969      	bls.n	8000304 <__udivmoddi4+0xe8>
 8000230:	fab2 f282 	clz	r2, r2
 8000234:	b152      	cbz	r2, 800024c <__udivmoddi4+0x30>
 8000236:	fa01 f302 	lsl.w	r3, r1, r2
 800023a:	f1c2 0120 	rsb	r1, r2, #32
 800023e:	fa20 f101 	lsr.w	r1, r0, r1
 8000242:	fa0c fc02 	lsl.w	ip, ip, r2
 8000246:	ea41 0e03 	orr.w	lr, r1, r3
 800024a:	4094      	lsls	r4, r2
 800024c:	ea4f 481c 	mov.w	r8, ip, lsr #16
 8000250:	0c21      	lsrs	r1, r4, #16
 8000252:	fbbe f6f8 	udiv	r6, lr, r8
 8000256:	fa1f f78c 	uxth.w	r7, ip
 800025a:	fb08 e316 	mls	r3, r8, r6, lr
 800025e:	ea41 4303 	orr.w	r3, r1, r3, lsl #16
 8000262:	fb06 f107 	mul.w	r1, r6, r7
 8000266:	4299      	cmp	r1, r3
 8000268:	d90a      	bls.n	8000280 <__udivmoddi4+0x64>
 800026a:	eb1c 0303 	adds.w	r3, ip, r3
 800026e:	f106 30ff 	add.w	r0, r6, #4294967295
 8000272:	f080 811f 	bcs.w	80004b4 <__udivmoddi4+0x298>
 8000276:	4299      	cmp	r1, r3
 8000278:	f240 811c 	bls.w	80004b4 <__udivmoddi4+0x298>
 800027c:	3e02      	subs	r6, #2
 800027e:	4463      	add	r3, ip
 8000280:	1a5b      	subs	r3, r3, r1
 8000282:	b2a4      	uxth	r4, r4
 8000284:	fbb3 f0f8 	udiv	r0, r3, r8
 8000288:	fb08 3310 	mls	r3, r8, r0, r3
 800028c:	ea44 4403 	orr.w	r4, r4, r3, lsl #16
 8000290:	fb00 f707 	mul.w	r7, r0, r7
 8000294:	42a7      	cmp	r7, r4
 8000296:	d90a      	bls.n	80002ae <__udivmoddi4+0x92>
 8000298:	eb1c 0404 	adds.w	r4, ip, r4
 800029c:	f100 33ff 	add.w	r3, r0, #4294967295
 80002a0:	f080 810a 	bcs.w	80004b8 <__udivmoddi4+0x29c>
 80002a4:	42a7      	cmp	r7, r4
 80002a6:	f240 8107 	bls.w	80004b8 <__udivmoddi4+0x29c>
 80002aa:	4464      	add	r4, ip
 80002ac:	3802      	subs	r0, #2
 80002ae:	ea40 4006 	orr.w	r0, r0, r6, lsl #16
 80002b2:	1be4      	subs	r4, r4, r7
 80002b4:	2600      	movs	r6, #0
 80002b6:	b11d      	cbz	r5, 80002c0 <__udivmoddi4+0xa4>
 80002b8:	40d4      	lsrs	r4, r2
 80002ba:	2300      	movs	r3, #0
 80002bc:	e9c5 4300 	strd	r4, r3, [r5]
 80002c0:	4631      	mov	r1, r6
 80002c2:	e8bd 87f0 	ldmia.w	sp!, {r4, r5, r6, r7, r8, r9, sl, pc}
 80002c6:	428b      	cmp	r3, r1
 80002c8:	d909      	bls.n	80002de <__udivmoddi4+0xc2>
 80002ca:	2d00      	cmp	r5, #0
 80002cc:	f000 80ef 	beq.w	80004ae <__udivmoddi4+0x292>
 80002d0:	2600      	movs	r6, #0
 80002d2:	e9c5 0100 	strd	r0, r1, [r5]
 80002d6:	4630      	mov	r0, r6
 80002d8:	4631      	mov	r1, r6
 80002da:	e8bd 87f0 	ldmia.w	sp!, {r4, r5, r6, r7, r8, r9, sl, pc}
 80002de:	fab3 f683 	clz	r6, r3
 80002e2:	2e00      	cmp	r6, #0
 80002e4:	d14a      	bne.n	800037c <__udivmoddi4+0x160>
 80002e6:	428b      	cmp	r3, r1
 80002e8:	d302      	bcc.n	80002f0 <__udivmoddi4+0xd4>
 80002ea:	4282      	cmp	r2, r0
 80002ec:	f200 80f9 	bhi.w	80004e2 <__udivmoddi4+0x2c6>
 80002f0:	1a84      	subs	r4, r0, r2
 80002f2:	eb61 0303 	sbc.w	r3, r1, r3
 80002f6:	2001      	movs	r0, #1
 80002f8:	469e      	mov	lr, r3
 80002fa:	2d00      	cmp	r5, #0
 80002fc:	d0e0      	beq.n	80002c0 <__udivmoddi4+0xa4>
 80002fe:	e9c5 4e00 	strd	r4, lr, [r5]
 8000302:	e7dd      	b.n	80002c0 <__udivmoddi4+0xa4>
 8000304:	b902      	cbnz	r2, 8000308 <__udivmoddi4+0xec>
 8000306:	deff      	udf	#255	; 0xff
 8000308:	fab2 f282 	clz	r2, r2
 800030c:	2a00      	cmp	r2, #0
 800030e:	f040 8092 	bne.w	8000436 <__udivmoddi4+0x21a>
 8000312:	eba1 010c 	sub.w	r1, r1, ip
 8000316:	ea4f 471c 	mov.w	r7, ip, lsr #16
 800031a:	fa1f fe8c 	uxth.w	lr, ip
 800031e:	2601      	movs	r6, #1
 8000320:	0c20      	lsrs	r0, r4, #16
 8000322:	fbb1 f3f7 	udiv	r3, r1, r7
 8000326:	fb07 1113 	mls	r1, r7, r3, r1
 800032a:	ea40 4101 	orr.w	r1, r0, r1, lsl #16
 800032e:	fb0e f003 	mul.w	r0, lr, r3
 8000332:	4288      	cmp	r0, r1
 8000334:	d908      	bls.n	8000348 <__udivmoddi4+0x12c>
 8000336:	eb1c 0101 	adds.w	r1, ip, r1
 800033a:	f103 38ff 	add.w	r8, r3, #4294967295
 800033e:	d202      	bcs.n	8000346 <__udivmoddi4+0x12a>
 8000340:	4288      	cmp	r0, r1
 8000342:	f200 80cb 	bhi.w	80004dc <__udivmoddi4+0x2c0>
 8000346:	4643      	mov	r3, r8
 8000348:	1a09      	subs	r1, r1, r0
 800034a:	b2a4      	uxth	r4, r4
 800034c:	fbb1 f0f7 	udiv	r0, r1, r7
 8000350:	fb07 1110 	mls	r1, r7, r0, r1
 8000354:	ea44 4401 	orr.w	r4, r4, r1, lsl #16
 8000358:	fb0e fe00 	mul.w	lr, lr, r0
 800035c:	45a6      	cmp	lr, r4
 800035e:	d908      	bls.n	8000372 <__udivmoddi4+0x156>
 8000360:	eb1c 0404 	adds.w	r4, ip, r4
 8000364:	f100 31ff 	add.w	r1, r0, #4294967295
 8000368:	d202      	bcs.n	8000370 <__udivmoddi4+0x154>
 800036a:	45a6      	cmp	lr, r4
 800036c:	f200 80bb 	bhi.w	80004e6 <__udivmoddi4+0x2ca>
 8000370:	4608      	mov	r0, r1
 8000372:	eba4 040e 	sub.w	r4, r4, lr
 8000376:	ea40 4003 	orr.w	r0, r0, r3, lsl #16
 800037a:	e79c      	b.n	80002b6 <__udivmoddi4+0x9a>
 800037c:	f1c6 0720 	rsb	r7, r6, #32
 8000380:	40b3      	lsls	r3, r6
 8000382:	fa22 fc07 	lsr.w	ip, r2, r7
 8000386:	ea4c 0c03 	orr.w	ip, ip, r3
 800038a:	fa20 f407 	lsr.w	r4, r0, r7
 800038e:	fa01 f306 	lsl.w	r3, r1, r6
 8000392:	431c      	orrs	r4, r3
 8000394:	40f9      	lsrs	r1, r7
 8000396:	ea4f 491c 	mov.w	r9, ip, lsr #16
 800039a:	fa00 f306 	lsl.w	r3, r0, r6
 800039e:	fbb1 f8f9 	udiv	r8, r1, r9
 80003a2:	0c20      	lsrs	r0, r4, #16
 80003a4:	fa1f fe8c 	uxth.w	lr, ip
 80003a8:	fb09 1118 	mls	r1, r9, r8, r1
 80003ac:	ea40 4101 	orr.w	r1, r0, r1, lsl #16
 80003b0:	fb08 f00e 	mul.w	r0, r8, lr
 80003b4:	4288      	cmp	r0, r1
 80003b6:	fa02 f206 	lsl.w	r2, r2, r6
 80003ba:	d90b      	bls.n	80003d4 <__udivmoddi4+0x1b8>
 80003bc:	eb1c 0101 	adds.w	r1, ip, r1
 80003c0:	f108 3aff 	add.w	sl, r8, #4294967295
 80003c4:	f080 8088 	bcs.w	80004d8 <__udivmoddi4+0x2bc>
 80003c8:	4288      	cmp	r0, r1
 80003ca:	f240 8085 	bls.w	80004d8 <__udivmoddi4+0x2bc>
 80003ce:	f1a8 0802 	sub.w	r8, r8, #2
 80003d2:	4461      	add	r1, ip
 80003d4:	1a09      	subs	r1, r1, r0
 80003d6:	b2a4      	uxth	r4, r4
 80003d8:	fbb1 f0f9 	udiv	r0, r1, r9
 80003dc:	fb09 1110 	mls	r1, r9, r0, r1
 80003e0:	ea44 4101 	orr.w	r1, r4, r1, lsl #16
 80003e4:	fb00 fe0e 	mul.w	lr, r0, lr
 80003e8:	458e      	cmp	lr, r1
 80003ea:	d908      	bls.n	80003fe <__udivmoddi4+0x1e2>
 80003ec:	eb1c 0101 	adds.w	r1, ip, r1
 80003f0:	f100 34ff 	add.w	r4, r0, #4294967295
 80003f4:	d26c      	bcs.n	80004d0 <__udivmoddi4+0x2b4>
 80003f6:	458e      	cmp	lr, r1
 80003f8:	d96a      	bls.n	80004d0 <__udivmoddi4+0x2b4>
 80003fa:	3802      	subs	r0, #2
 80003fc:	4461      	add	r1, ip
 80003fe:	ea40 4008 	orr.w	r0, r0, r8, lsl #16
 8000402:	fba0 9402 	umull	r9, r4, r0, r2
 8000406:	eba1 010e 	sub.w	r1, r1, lr
 800040a:	42a1      	cmp	r1, r4
 800040c:	46c8      	mov	r8, r9
 800040e:	46a6      	mov	lr, r4
 8000410:	d356      	bcc.n	80004c0 <__udivmoddi4+0x2a4>
 8000412:	d053      	beq.n	80004bc <__udivmoddi4+0x2a0>
 8000414:	b15d      	cbz	r5, 800042e <__udivmoddi4+0x212>
 8000416:	ebb3 0208 	subs.w	r2, r3, r8
 800041a:	eb61 010e 	sbc.w	r1, r1, lr
 800041e:	fa01 f707 	lsl.w	r7, r1, r7
 8000422:	fa22 f306 	lsr.w	r3, r2, r6
 8000426:	40f1      	lsrs	r1, r6
 8000428:	431f      	orrs	r7, r3
 800042a:	e9c5 7100 	strd	r7, r1, [r5]
 800042e:	2600      	movs	r6, #0
 8000430:	4631      	mov	r1, r6
 8000432:	e8bd 87f0 	ldmia.w	sp!, {r4, r5, r6, r7, r8, r9, sl, pc}
 8000436:	f1c2 0320 	rsb	r3, r2, #32
 800043a:	40d8      	lsrs	r0, r3
 800043c:	fa0c fc02 	lsl.w	ip, ip, r2
 8000440:	fa21 f303 	lsr.w	r3, r1, r3
 8000444:	4091      	lsls	r1, r2
 8000446:	4301      	orrs	r1, r0
 8000448:	ea4f 471c 	mov.w	r7, ip, lsr #16
 800044c:	fa1f fe8c 	uxth.w	lr, ip
 8000450:	fbb3 f0f7 	udiv	r0, r3, r7
 8000454:	fb07 3610 	mls	r6, r7, r0, r3
 8000458:	0c0b      	lsrs	r3, r1, #16
 800045a:	ea43 4306 	orr.w	r3, r3, r6, lsl #16
 800045e:	fb00 f60e 	mul.w	r6, r0, lr
 8000462:	429e      	cmp	r6, r3
 8000464:	fa04 f402 	lsl.w	r4, r4, r2
 8000468:	d908      	bls.n	800047c <__udivmoddi4+0x260>
 800046a:	eb1c 0303 	adds.w	r3, ip, r3
 800046e:	f100 38ff 	add.w	r8, r0, #4294967295
 8000472:	d22f      	bcs.n	80004d4 <__udivmoddi4+0x2b8>
 8000474:	429e      	cmp	r6, r3
 8000476:	d92d      	bls.n	80004d4 <__udivmoddi4+0x2b8>
 8000478:	3802      	subs	r0, #2
 800047a:	4463      	add	r3, ip
 800047c:	1b9b      	subs	r3, r3, r6
 800047e:	b289      	uxth	r1, r1
 8000480:	fbb3 f6f7 	udiv	r6, r3, r7
 8000484:	fb07 3316 	mls	r3, r7, r6, r3
 8000488:	ea41 4103 	orr.w	r1, r1, r3, lsl #16
 800048c:	fb06 f30e 	mul.w	r3, r6, lr
 8000490:	428b      	cmp	r3, r1
 8000492:	d908      	bls.n	80004a6 <__udivmoddi4+0x28a>
 8000494:	eb1c 0101 	adds.w	r1, ip, r1
 8000498:	f106 38ff 	add.w	r8, r6, #4294967295
 800049c:	d216      	bcs.n	80004cc <__udivmoddi4+0x2b0>
 800049e:	428b      	cmp	r3, r1
 80004a0:	d914      	bls.n	80004cc <__udivmoddi4+0x2b0>
 80004a2:	3e02      	subs	r6, #2
 80004a4:	4461      	add	r1, ip
 80004a6:	1ac9      	subs	r1, r1, r3
 80004a8:	ea46 4600 	orr.w	r6, r6, r0, lsl #16
 80004ac:	e738      	b.n	8000320 <__udivmoddi4+0x104>
 80004ae:	462e      	mov	r6, r5
 80004b0:	4628      	mov	r0, r5
 80004b2:	e705      	b.n	80002c0 <__udivmoddi4+0xa4>
 80004b4:	4606      	mov	r6, r0
 80004b6:	e6e3      	b.n	8000280 <__udivmoddi4+0x64>
 80004b8:	4618      	mov	r0, r3
 80004ba:	e6f8      	b.n	80002ae <__udivmoddi4+0x92>
 80004bc:	454b      	cmp	r3, r9
 80004be:	d2a9      	bcs.n	8000414 <__udivmoddi4+0x1f8>
 80004c0:	ebb9 0802 	subs.w	r8, r9, r2
 80004c4:	eb64 0e0c 	sbc.w	lr, r4, ip
 80004c8:	3801      	subs	r0, #1
 80004ca:	e7a3      	b.n	8000414 <__udivmoddi4+0x1f8>
 80004cc:	4646      	mov	r6, r8
 80004ce:	e7ea      	b.n	80004a6 <__udivmoddi4+0x28a>
 80004d0:	4620      	mov	r0, r4
 80004d2:	e794      	b.n	80003fe <__udivmoddi4+0x1e2>
 80004d4:	4640      	mov	r0, r8
 80004d6:	e7d1      	b.n	800047c <__udivmoddi4+0x260>
 80004d8:	46d0      	mov	r8, sl
 80004da:	e77b      	b.n	80003d4 <__udivmoddi4+0x1b8>
 80004dc:	3b02      	subs	r3, #2
 80004de:	4461      	add	r1, ip
 80004e0:	e732      	b.n	8000348 <__udivmoddi4+0x12c>
 80004e2:	4630      	mov	r0, r6
 80004e4:	e709      	b.n	80002fa <__udivmoddi4+0xde>
 80004e6:	4464      	add	r4, ip
 80004e8:	3802      	subs	r0, #2
 80004ea:	e742      	b.n	8000372 <__udivmoddi4+0x156>

080004ec <__aeabi_idiv0>:
 80004ec:	4770      	bx	lr
 80004ee:	bf00      	nop

080004f0 <main>:
/**
  * @brief  The application entry point.
  * @retval int
  */
int main(void)
{
 80004f0:	b590      	push	{r4, r7, lr}
 80004f2:	b08b      	sub	sp, #44	; 0x2c
 80004f4:	af00      	add	r7, sp, #0
  /* USER CODE END 1 */

  /* MCU Configuration--------------------------------------------------------*/

  /* Reset of all peripherals, Initializes the Flash interface and the Systick. */
  HAL_Init();
 80004f6:	f000 fa41 	bl	800097c <HAL_Init>
  /* USER CODE BEGIN Init */

  /* USER CODE END Init */

  /* Configure the system clock */
  SystemClock_Config();
 80004fa:	f000 f87b 	bl	80005f4 <SystemClock_Config>
  /* USER CODE BEGIN SysInit */

  /* USER CODE END SysInit */

  /* Initialize all configured peripherals */
  MX_GPIO_Init();
 80004fe:	f000 f90f 	bl	8000720 <MX_GPIO_Init>
  MX_USART1_UART_Init();
 8000502:	f000 f8e3 	bl	80006cc <MX_USART1_UART_Init>
  /* USER CODE BEGIN 2 */
  uint8_t startup_message[] = "hello world \r\n";
 8000506:	4b38      	ldr	r3, [pc, #224]	; (80005e8 <main+0xf8>)
 8000508:	f107 0408 	add.w	r4, r7, #8
 800050c:	cb0f      	ldmia	r3, {r0, r1, r2, r3}
 800050e:	c407      	stmia	r4!, {r0, r1, r2}
 8000510:	8023      	strh	r3, [r4, #0]
 8000512:	3402      	adds	r4, #2
 8000514:	0c1b      	lsrs	r3, r3, #16
 8000516:	7023      	strb	r3, [r4, #0]
  size_t startup_message_size= sizeof(startup_message)-1;		//saca el tamaño del texto a enviar
 8000518:	230e      	movs	r3, #14
 800051a:	61bb      	str	r3, [r7, #24]
  HAL_UART_Transmit(&huart1, startup_message, startup_message_size, 500); 	// transmitir mensaje por el UART
 800051c:	69bb      	ldr	r3, [r7, #24]
 800051e:	b29a      	uxth	r2, r3
 8000520:	f107 0108 	add.w	r1, r7, #8
 8000524:	f44f 73fa 	mov.w	r3, #500	; 0x1f4
 8000528:	4830      	ldr	r0, [pc, #192]	; (80005ec <main+0xfc>)
 800052a:	f001 fa44 	bl	80019b6 <HAL_UART_Transmit>
  uint32_t toggle_period_ms = 0;
 800052e:	2300      	movs	r3, #0
 8000530:	627b      	str	r3, [r7, #36]	; 0x24
  uint32_t led_tick=0;
 8000532:	2300      	movs	r3, #0
 8000534:	623b      	str	r3, [r7, #32]
  uint8_t toggle_led_enabled = 0;
 8000536:	2300      	movs	r3, #0
 8000538:	77fb      	strb	r3, [r7, #31]
  uint8_t rx_data = 0;
 800053a:	2300      	movs	r3, #0
 800053c:	71fb      	strb	r3, [r7, #7]

  /* Infinite loop */
  /* USER CODE BEGIN WHILE */
  while (1)
  {
	  if (HAL_UART_Receive(&huart1, &rx_data, 1, 500)== HAL_OK)
 800053e:	1df9      	adds	r1, r7, #7
 8000540:	f44f 73fa 	mov.w	r3, #500	; 0x1f4
 8000544:	2201      	movs	r2, #1
 8000546:	4829      	ldr	r0, [pc, #164]	; (80005ec <main+0xfc>)
 8000548:	f001 fac7 	bl	8001ada <HAL_UART_Receive>
 800054c:	4603      	mov	r3, r0
 800054e:	2b00      	cmp	r3, #0
 8000550:	d132      	bne.n	80005b8 <main+0xc8>
	  {
		  HAL_UART_Transmit(&huart1, &rx_data, 1, 50);
 8000552:	1df9      	adds	r1, r7, #7
 8000554:	2332      	movs	r3, #50	; 0x32
 8000556:	2201      	movs	r2, #1
 8000558:	4824      	ldr	r0, [pc, #144]	; (80005ec <main+0xfc>)
 800055a:	f001 fa2c 	bl	80019b6 <HAL_UART_Transmit>
		  switch (rx_data)
 800055e:	79fb      	ldrb	r3, [r7, #7]
 8000560:	3b41      	subs	r3, #65	; 0x41
 8000562:	2b03      	cmp	r3, #3
 8000564:	d82a      	bhi.n	80005bc <main+0xcc>
 8000566:	a201      	add	r2, pc, #4	; (adr r2, 800056c <main+0x7c>)
 8000568:	f852 f023 	ldr.w	pc, [r2, r3, lsl #2]
 800056c:	0800057d 	.word	0x0800057d
 8000570:	0800058f 	.word	0x0800058f
 8000574:	080005a1 	.word	0x080005a1
 8000578:	080005ad 	.word	0x080005ad
		  {
		  case 'A':
			  toggle_led_enabled = 0;
 800057c:	2300      	movs	r3, #0
 800057e:	77fb      	strb	r3, [r7, #31]
			  HAL_GPIO_WritePin(green_led_GPIO_Port, green_led_Pin, GPIO_PIN_RESET);
 8000580:	2200      	movs	r2, #0
 8000582:	f44f 5100 	mov.w	r1, #8192	; 0x2000
 8000586:	481a      	ldr	r0, [pc, #104]	; (80005f0 <main+0x100>)
 8000588:	f000 fcfc 	bl	8000f84 <HAL_GPIO_WritePin>
			  break;
 800058c:	e017      	b.n	80005be <main+0xce>
		  case 'B':
			  toggle_led_enabled = 0;
 800058e:	2300      	movs	r3, #0
 8000590:	77fb      	strb	r3, [r7, #31]
			  HAL_GPIO_WritePin(green_led_GPIO_Port, green_led_Pin, GPIO_PIN_SET);
 8000592:	2201      	movs	r2, #1
 8000594:	f44f 5100 	mov.w	r1, #8192	; 0x2000
 8000598:	4815      	ldr	r0, [pc, #84]	; (80005f0 <main+0x100>)
 800059a:	f000 fcf3 	bl	8000f84 <HAL_GPIO_WritePin>
			  break;
 800059e:	e00e      	b.n	80005be <main+0xce>
		  case 'C':
			  toggle_led_enabled = 1;
 80005a0:	2301      	movs	r3, #1
 80005a2:	77fb      	strb	r3, [r7, #31]
			  toggle_period_ms = 1000;
 80005a4:	f44f 737a 	mov.w	r3, #1000	; 0x3e8
 80005a8:	627b      	str	r3, [r7, #36]	; 0x24

			  break;
 80005aa:	e008      	b.n	80005be <main+0xce>
		  case 'D':
			  toggle_led_enabled = 1;
 80005ac:	2301      	movs	r3, #1
 80005ae:	77fb      	strb	r3, [r7, #31]
			  toggle_period_ms = 500;
 80005b0:	f44f 73fa 	mov.w	r3, #500	; 0x1f4
 80005b4:	627b      	str	r3, [r7, #36]	; 0x24
			  break;
 80005b6:	e002      	b.n	80005be <main+0xce>
		  default:
			  break;

		  }
	  }
 80005b8:	bf00      	nop
 80005ba:	e000      	b.n	80005be <main+0xce>
			  break;
 80005bc:	bf00      	nop

	  if (toggle_led_enabled)
 80005be:	7ffb      	ldrb	r3, [r7, #31]
 80005c0:	2b00      	cmp	r3, #0
 80005c2:	d0bc      	beq.n	800053e <main+0x4e>
	  {
		  if ((HAL_GetTick()-led_tick)>toggle_period_ms)
 80005c4:	f000 fa40 	bl	8000a48 <HAL_GetTick>
 80005c8:	4602      	mov	r2, r0
 80005ca:	6a3b      	ldr	r3, [r7, #32]
 80005cc:	1ad3      	subs	r3, r2, r3
 80005ce:	6a7a      	ldr	r2, [r7, #36]	; 0x24
 80005d0:	429a      	cmp	r2, r3
 80005d2:	d2b4      	bcs.n	800053e <main+0x4e>
		  {
			  led_tick=HAL_GetTick();
 80005d4:	f000 fa38 	bl	8000a48 <HAL_GetTick>
 80005d8:	6238      	str	r0, [r7, #32]
			  HAL_GPIO_TogglePin(green_led_GPIO_Port, green_led_Pin);
 80005da:	f44f 5100 	mov.w	r1, #8192	; 0x2000
 80005de:	4804      	ldr	r0, [pc, #16]	; (80005f0 <main+0x100>)
 80005e0:	f000 fce9 	bl	8000fb6 <HAL_GPIO_TogglePin>
	  if (HAL_UART_Receive(&huart1, &rx_data, 1, 500)== HAL_OK)
 80005e4:	e7ab      	b.n	800053e <main+0x4e>
 80005e6:	bf00      	nop
 80005e8:	08002254 	.word	0x08002254
 80005ec:	20000028 	.word	0x20000028
 80005f0:	40021800 	.word	0x40021800

080005f4 <SystemClock_Config>:
/**
  * @brief System Clock Configuration
  * @retval None
  */
void SystemClock_Config(void)
{
 80005f4:	b580      	push	{r7, lr}
 80005f6:	b094      	sub	sp, #80	; 0x50
 80005f8:	af00      	add	r7, sp, #0
  RCC_OscInitTypeDef RCC_OscInitStruct = {0};
 80005fa:	f107 0320 	add.w	r3, r7, #32
 80005fe:	2230      	movs	r2, #48	; 0x30
 8000600:	2100      	movs	r1, #0
 8000602:	4618      	mov	r0, r3
 8000604:	f001 fe12 	bl	800222c <memset>
  RCC_ClkInitTypeDef RCC_ClkInitStruct = {0};
 8000608:	f107 030c 	add.w	r3, r7, #12
 800060c:	2200      	movs	r2, #0
 800060e:	601a      	str	r2, [r3, #0]
 8000610:	605a      	str	r2, [r3, #4]
 8000612:	609a      	str	r2, [r3, #8]
 8000614:	60da      	str	r2, [r3, #12]
 8000616:	611a      	str	r2, [r3, #16]

  /** Configure the main internal regulator output voltage
  */
  __HAL_RCC_PWR_CLK_ENABLE();
 8000618:	2300      	movs	r3, #0
 800061a:	60bb      	str	r3, [r7, #8]
 800061c:	4b29      	ldr	r3, [pc, #164]	; (80006c4 <SystemClock_Config+0xd0>)
 800061e:	6c1b      	ldr	r3, [r3, #64]	; 0x40
 8000620:	4a28      	ldr	r2, [pc, #160]	; (80006c4 <SystemClock_Config+0xd0>)
 8000622:	f043 5380 	orr.w	r3, r3, #268435456	; 0x10000000
 8000626:	6413      	str	r3, [r2, #64]	; 0x40
 8000628:	4b26      	ldr	r3, [pc, #152]	; (80006c4 <SystemClock_Config+0xd0>)
 800062a:	6c1b      	ldr	r3, [r3, #64]	; 0x40
 800062c:	f003 5380 	and.w	r3, r3, #268435456	; 0x10000000
 8000630:	60bb      	str	r3, [r7, #8]
 8000632:	68bb      	ldr	r3, [r7, #8]
  __HAL_PWR_VOLTAGESCALING_CONFIG(PWR_REGULATOR_VOLTAGE_SCALE3);
 8000634:	2300      	movs	r3, #0
 8000636:	607b      	str	r3, [r7, #4]
 8000638:	4b23      	ldr	r3, [pc, #140]	; (80006c8 <SystemClock_Config+0xd4>)
 800063a:	681b      	ldr	r3, [r3, #0]
 800063c:	f423 4340 	bic.w	r3, r3, #49152	; 0xc000
 8000640:	4a21      	ldr	r2, [pc, #132]	; (80006c8 <SystemClock_Config+0xd4>)
 8000642:	f443 4380 	orr.w	r3, r3, #16384	; 0x4000
 8000646:	6013      	str	r3, [r2, #0]
 8000648:	4b1f      	ldr	r3, [pc, #124]	; (80006c8 <SystemClock_Config+0xd4>)
 800064a:	681b      	ldr	r3, [r3, #0]
 800064c:	f403 4340 	and.w	r3, r3, #49152	; 0xc000
 8000650:	607b      	str	r3, [r7, #4]
 8000652:	687b      	ldr	r3, [r7, #4]

  /** Initializes the RCC Oscillators according to the specified parameters
  * in the RCC_OscInitTypeDef structure.
  */
  RCC_OscInitStruct.OscillatorType = RCC_OSCILLATORTYPE_HSI;
 8000654:	2302      	movs	r3, #2
 8000656:	623b      	str	r3, [r7, #32]
  RCC_OscInitStruct.HSIState = RCC_HSI_ON;
 8000658:	2301      	movs	r3, #1
 800065a:	62fb      	str	r3, [r7, #44]	; 0x2c
  RCC_OscInitStruct.HSICalibrationValue = RCC_HSICALIBRATION_DEFAULT;
 800065c:	2310      	movs	r3, #16
 800065e:	633b      	str	r3, [r7, #48]	; 0x30
  RCC_OscInitStruct.PLL.PLLState = RCC_PLL_ON;
 8000660:	2302      	movs	r3, #2
 8000662:	63bb      	str	r3, [r7, #56]	; 0x38
  RCC_OscInitStruct.PLL.PLLSource = RCC_PLLSOURCE_HSI;
 8000664:	2300      	movs	r3, #0
 8000666:	63fb      	str	r3, [r7, #60]	; 0x3c
  RCC_OscInitStruct.PLL.PLLM = 8;
 8000668:	2308      	movs	r3, #8
 800066a:	643b      	str	r3, [r7, #64]	; 0x40
  RCC_OscInitStruct.PLL.PLLN = 50;
 800066c:	2332      	movs	r3, #50	; 0x32
 800066e:	647b      	str	r3, [r7, #68]	; 0x44
  RCC_OscInitStruct.PLL.PLLP = RCC_PLLP_DIV4;
 8000670:	2304      	movs	r3, #4
 8000672:	64bb      	str	r3, [r7, #72]	; 0x48
  RCC_OscInitStruct.PLL.PLLQ = 7;
 8000674:	2307      	movs	r3, #7
 8000676:	64fb      	str	r3, [r7, #76]	; 0x4c
  if (HAL_RCC_OscConfig(&RCC_OscInitStruct) != HAL_OK)
 8000678:	f107 0320 	add.w	r3, r7, #32
 800067c:	4618      	mov	r0, r3
 800067e:	f000 fcb5 	bl	8000fec <HAL_RCC_OscConfig>
 8000682:	4603      	mov	r3, r0
 8000684:	2b00      	cmp	r3, #0
 8000686:	d001      	beq.n	800068c <SystemClock_Config+0x98>
  {
    Error_Handler();
 8000688:	f000 f89c 	bl	80007c4 <Error_Handler>
  }

  /** Initializes the CPU, AHB and APB buses clocks
  */
  RCC_ClkInitStruct.ClockType = RCC_CLOCKTYPE_HCLK|RCC_CLOCKTYPE_SYSCLK
 800068c:	230f      	movs	r3, #15
 800068e:	60fb      	str	r3, [r7, #12]
                              |RCC_CLOCKTYPE_PCLK1|RCC_CLOCKTYPE_PCLK2;
  RCC_ClkInitStruct.SYSCLKSource = RCC_SYSCLKSOURCE_PLLCLK;
 8000690:	2302      	movs	r3, #2
 8000692:	613b      	str	r3, [r7, #16]
  RCC_ClkInitStruct.AHBCLKDivider = RCC_SYSCLK_DIV1;
 8000694:	2300      	movs	r3, #0
 8000696:	617b      	str	r3, [r7, #20]
  RCC_ClkInitStruct.APB1CLKDivider = RCC_HCLK_DIV8;
 8000698:	f44f 53c0 	mov.w	r3, #6144	; 0x1800
 800069c:	61bb      	str	r3, [r7, #24]
  RCC_ClkInitStruct.APB2CLKDivider = RCC_HCLK_DIV4;
 800069e:	f44f 53a0 	mov.w	r3, #5120	; 0x1400
 80006a2:	61fb      	str	r3, [r7, #28]

  if (HAL_RCC_ClockConfig(&RCC_ClkInitStruct, FLASH_LATENCY_0) != HAL_OK)
 80006a4:	f107 030c 	add.w	r3, r7, #12
 80006a8:	2100      	movs	r1, #0
 80006aa:	4618      	mov	r0, r3
 80006ac:	f000 ff16 	bl	80014dc <HAL_RCC_ClockConfig>
 80006b0:	4603      	mov	r3, r0
 80006b2:	2b00      	cmp	r3, #0
 80006b4:	d001      	beq.n	80006ba <SystemClock_Config+0xc6>
  {
    Error_Handler();
 80006b6:	f000 f885 	bl	80007c4 <Error_Handler>
  }
}
 80006ba:	bf00      	nop
 80006bc:	3750      	adds	r7, #80	; 0x50
 80006be:	46bd      	mov	sp, r7
 80006c0:	bd80      	pop	{r7, pc}
 80006c2:	bf00      	nop
 80006c4:	40023800 	.word	0x40023800
 80006c8:	40007000 	.word	0x40007000

080006cc <MX_USART1_UART_Init>:
  * @brief USART1 Initialization Function
  * @param None
  * @retval None
  */
static void MX_USART1_UART_Init(void)
{
 80006cc:	b580      	push	{r7, lr}
 80006ce:	af00      	add	r7, sp, #0
  /* USER CODE END USART1_Init 0 */

  /* USER CODE BEGIN USART1_Init 1 */

  /* USER CODE END USART1_Init 1 */
  huart1.Instance = USART1;
 80006d0:	4b11      	ldr	r3, [pc, #68]	; (8000718 <MX_USART1_UART_Init+0x4c>)
 80006d2:	4a12      	ldr	r2, [pc, #72]	; (800071c <MX_USART1_UART_Init+0x50>)
 80006d4:	601a      	str	r2, [r3, #0]
  huart1.Init.BaudRate = 115200;
 80006d6:	4b10      	ldr	r3, [pc, #64]	; (8000718 <MX_USART1_UART_Init+0x4c>)
 80006d8:	f44f 32e1 	mov.w	r2, #115200	; 0x1c200
 80006dc:	605a      	str	r2, [r3, #4]
  huart1.Init.WordLength = UART_WORDLENGTH_8B;
 80006de:	4b0e      	ldr	r3, [pc, #56]	; (8000718 <MX_USART1_UART_Init+0x4c>)
 80006e0:	2200      	movs	r2, #0
 80006e2:	609a      	str	r2, [r3, #8]
  huart1.Init.StopBits = UART_STOPBITS_1;
 80006e4:	4b0c      	ldr	r3, [pc, #48]	; (8000718 <MX_USART1_UART_Init+0x4c>)
 80006e6:	2200      	movs	r2, #0
 80006e8:	60da      	str	r2, [r3, #12]
  huart1.Init.Parity = UART_PARITY_NONE;
 80006ea:	4b0b      	ldr	r3, [pc, #44]	; (8000718 <MX_USART1_UART_Init+0x4c>)
 80006ec:	2200      	movs	r2, #0
 80006ee:	611a      	str	r2, [r3, #16]
  huart1.Init.Mode = UART_MODE_TX_RX;
 80006f0:	4b09      	ldr	r3, [pc, #36]	; (8000718 <MX_USART1_UART_Init+0x4c>)
 80006f2:	220c      	movs	r2, #12
 80006f4:	615a      	str	r2, [r3, #20]
  huart1.Init.HwFlowCtl = UART_HWCONTROL_NONE;
 80006f6:	4b08      	ldr	r3, [pc, #32]	; (8000718 <MX_USART1_UART_Init+0x4c>)
 80006f8:	2200      	movs	r2, #0
 80006fa:	619a      	str	r2, [r3, #24]
  huart1.Init.OverSampling = UART_OVERSAMPLING_16;
 80006fc:	4b06      	ldr	r3, [pc, #24]	; (8000718 <MX_USART1_UART_Init+0x4c>)
 80006fe:	2200      	movs	r2, #0
 8000700:	61da      	str	r2, [r3, #28]
  if (HAL_UART_Init(&huart1) != HAL_OK)
 8000702:	4805      	ldr	r0, [pc, #20]	; (8000718 <MX_USART1_UART_Init+0x4c>)
 8000704:	f001 f90a 	bl	800191c <HAL_UART_Init>
 8000708:	4603      	mov	r3, r0
 800070a:	2b00      	cmp	r3, #0
 800070c:	d001      	beq.n	8000712 <MX_USART1_UART_Init+0x46>
  {
    Error_Handler();
 800070e:	f000 f859 	bl	80007c4 <Error_Handler>
  }
  /* USER CODE BEGIN USART1_Init 2 */

  /* USER CODE END USART1_Init 2 */

}
 8000712:	bf00      	nop
 8000714:	bd80      	pop	{r7, pc}
 8000716:	bf00      	nop
 8000718:	20000028 	.word	0x20000028
 800071c:	40011000 	.word	0x40011000

08000720 <MX_GPIO_Init>:
  * @brief GPIO Initialization Function
  * @param None
  * @retval None
  */
static void MX_GPIO_Init(void)
{
 8000720:	b580      	push	{r7, lr}
 8000722:	b088      	sub	sp, #32
 8000724:	af00      	add	r7, sp, #0
  GPIO_InitTypeDef GPIO_InitStruct = {0};
 8000726:	f107 030c 	add.w	r3, r7, #12
 800072a:	2200      	movs	r2, #0
 800072c:	601a      	str	r2, [r3, #0]
 800072e:	605a      	str	r2, [r3, #4]
 8000730:	609a      	str	r2, [r3, #8]
 8000732:	60da      	str	r2, [r3, #12]
 8000734:	611a      	str	r2, [r3, #16]

  /* GPIO Ports Clock Enable */
  __HAL_RCC_GPIOA_CLK_ENABLE();
 8000736:	2300      	movs	r3, #0
 8000738:	60bb      	str	r3, [r7, #8]
 800073a:	4b1f      	ldr	r3, [pc, #124]	; (80007b8 <MX_GPIO_Init+0x98>)
 800073c:	6b1b      	ldr	r3, [r3, #48]	; 0x30
 800073e:	4a1e      	ldr	r2, [pc, #120]	; (80007b8 <MX_GPIO_Init+0x98>)
 8000740:	f043 0301 	orr.w	r3, r3, #1
 8000744:	6313      	str	r3, [r2, #48]	; 0x30
 8000746:	4b1c      	ldr	r3, [pc, #112]	; (80007b8 <MX_GPIO_Init+0x98>)
 8000748:	6b1b      	ldr	r3, [r3, #48]	; 0x30
 800074a:	f003 0301 	and.w	r3, r3, #1
 800074e:	60bb      	str	r3, [r7, #8]
 8000750:	68bb      	ldr	r3, [r7, #8]
  __HAL_RCC_GPIOG_CLK_ENABLE();
 8000752:	2300      	movs	r3, #0
 8000754:	607b      	str	r3, [r7, #4]
 8000756:	4b18      	ldr	r3, [pc, #96]	; (80007b8 <MX_GPIO_Init+0x98>)
 8000758:	6b1b      	ldr	r3, [r3, #48]	; 0x30
 800075a:	4a17      	ldr	r2, [pc, #92]	; (80007b8 <MX_GPIO_Init+0x98>)
 800075c:	f043 0340 	orr.w	r3, r3, #64	; 0x40
 8000760:	6313      	str	r3, [r2, #48]	; 0x30
 8000762:	4b15      	ldr	r3, [pc, #84]	; (80007b8 <MX_GPIO_Init+0x98>)
 8000764:	6b1b      	ldr	r3, [r3, #48]	; 0x30
 8000766:	f003 0340 	and.w	r3, r3, #64	; 0x40
 800076a:	607b      	str	r3, [r7, #4]
 800076c:	687b      	ldr	r3, [r7, #4]

  /*Configure GPIO pin Output Level */
  HAL_GPIO_WritePin(GPIOG, green_led_Pin|blue_led_Pin, GPIO_PIN_RESET);
 800076e:	2200      	movs	r2, #0
 8000770:	f44f 41c0 	mov.w	r1, #24576	; 0x6000
 8000774:	4811      	ldr	r0, [pc, #68]	; (80007bc <MX_GPIO_Init+0x9c>)
 8000776:	f000 fc05 	bl	8000f84 <HAL_GPIO_WritePin>

  /*Configure GPIO pin : user_button_Pin */
  GPIO_InitStruct.Pin = user_button_Pin;
 800077a:	2301      	movs	r3, #1
 800077c:	60fb      	str	r3, [r7, #12]
  GPIO_InitStruct.Mode = GPIO_MODE_INPUT;
 800077e:	2300      	movs	r3, #0
 8000780:	613b      	str	r3, [r7, #16]
  GPIO_InitStruct.Pull = GPIO_NOPULL;
 8000782:	2300      	movs	r3, #0
 8000784:	617b      	str	r3, [r7, #20]
  HAL_GPIO_Init(user_button_GPIO_Port, &GPIO_InitStruct);
 8000786:	f107 030c 	add.w	r3, r7, #12
 800078a:	4619      	mov	r1, r3
 800078c:	480c      	ldr	r0, [pc, #48]	; (80007c0 <MX_GPIO_Init+0xa0>)
 800078e:	f000 fa4d 	bl	8000c2c <HAL_GPIO_Init>

  /*Configure GPIO pins : green_led_Pin blue_led_Pin */
  GPIO_InitStruct.Pin = green_led_Pin|blue_led_Pin;
 8000792:	f44f 43c0 	mov.w	r3, #24576	; 0x6000
 8000796:	60fb      	str	r3, [r7, #12]
  GPIO_InitStruct.Mode = GPIO_MODE_OUTPUT_PP;
 8000798:	2301      	movs	r3, #1
 800079a:	613b      	str	r3, [r7, #16]
  GPIO_InitStruct.Pull = GPIO_NOPULL;
 800079c:	2300      	movs	r3, #0
 800079e:	617b      	str	r3, [r7, #20]
  GPIO_InitStruct.Speed = GPIO_SPEED_FREQ_LOW;
 80007a0:	2300      	movs	r3, #0
 80007a2:	61bb      	str	r3, [r7, #24]
  HAL_GPIO_Init(GPIOG, &GPIO_InitStruct);
 80007a4:	f107 030c 	add.w	r3, r7, #12
 80007a8:	4619      	mov	r1, r3
 80007aa:	4804      	ldr	r0, [pc, #16]	; (80007bc <MX_GPIO_Init+0x9c>)
 80007ac:	f000 fa3e 	bl	8000c2c <HAL_GPIO_Init>

}
 80007b0:	bf00      	nop
 80007b2:	3720      	adds	r7, #32
 80007b4:	46bd      	mov	sp, r7
 80007b6:	bd80      	pop	{r7, pc}
 80007b8:	40023800 	.word	0x40023800
 80007bc:	40021800 	.word	0x40021800
 80007c0:	40020000 	.word	0x40020000

080007c4 <Error_Handler>:
/**
  * @brief  This function is executed in case of error occurrence.
  * @retval None
  */
void Error_Handler(void)
{
 80007c4:	b480      	push	{r7}
 80007c6:	af00      	add	r7, sp, #0
  \details Disables IRQ interrupts by setting the I-bit in the CPSR.
           Can only be executed in Privileged modes.
 */
__STATIC_FORCEINLINE void __disable_irq(void)
{
  __ASM volatile ("cpsid i" : : : "memory");
 80007c8:	b672      	cpsid	i
}
 80007ca:	bf00      	nop
  /* USER CODE BEGIN Error_Handler_Debug */
  /* User can add his own implementation to report the HAL error return state */
  __disable_irq();
  while (1)
 80007cc:	e7fe      	b.n	80007cc <Error_Handler+0x8>
	...

080007d0 <HAL_MspInit>:
/* USER CODE END 0 */
/**
  * Initializes the Global MSP.
  */
void HAL_MspInit(void)
{
 80007d0:	b580      	push	{r7, lr}
 80007d2:	b082      	sub	sp, #8
 80007d4:	af00      	add	r7, sp, #0
  /* USER CODE BEGIN MspInit 0 */

  /* USER CODE END MspInit 0 */

  __HAL_RCC_SYSCFG_CLK_ENABLE();
 80007d6:	2300      	movs	r3, #0
 80007d8:	607b      	str	r3, [r7, #4]
 80007da:	4b10      	ldr	r3, [pc, #64]	; (800081c <HAL_MspInit+0x4c>)
 80007dc:	6c5b      	ldr	r3, [r3, #68]	; 0x44
 80007de:	4a0f      	ldr	r2, [pc, #60]	; (800081c <HAL_MspInit+0x4c>)
 80007e0:	f443 4380 	orr.w	r3, r3, #16384	; 0x4000
 80007e4:	6453      	str	r3, [r2, #68]	; 0x44
 80007e6:	4b0d      	ldr	r3, [pc, #52]	; (800081c <HAL_MspInit+0x4c>)
 80007e8:	6c5b      	ldr	r3, [r3, #68]	; 0x44
 80007ea:	f403 4380 	and.w	r3, r3, #16384	; 0x4000
 80007ee:	607b      	str	r3, [r7, #4]
 80007f0:	687b      	ldr	r3, [r7, #4]
  __HAL_RCC_PWR_CLK_ENABLE();
 80007f2:	2300      	movs	r3, #0
 80007f4:	603b      	str	r3, [r7, #0]
 80007f6:	4b09      	ldr	r3, [pc, #36]	; (800081c <HAL_MspInit+0x4c>)
 80007f8:	6c1b      	ldr	r3, [r3, #64]	; 0x40
 80007fa:	4a08      	ldr	r2, [pc, #32]	; (800081c <HAL_MspInit+0x4c>)
 80007fc:	f043 5380 	orr.w	r3, r3, #268435456	; 0x10000000
 8000800:	6413      	str	r3, [r2, #64]	; 0x40
 8000802:	4b06      	ldr	r3, [pc, #24]	; (800081c <HAL_MspInit+0x4c>)
 8000804:	6c1b      	ldr	r3, [r3, #64]	; 0x40
 8000806:	f003 5380 	and.w	r3, r3, #268435456	; 0x10000000
 800080a:	603b      	str	r3, [r7, #0]
 800080c:	683b      	ldr	r3, [r7, #0]

  HAL_NVIC_SetPriorityGrouping(NVIC_PRIORITYGROUP_0);
 800080e:	2007      	movs	r0, #7
 8000810:	f000 f9d8 	bl	8000bc4 <HAL_NVIC_SetPriorityGrouping>
  /* System interrupt init*/

  /* USER CODE BEGIN MspInit 1 */

  /* USER CODE END MspInit 1 */
}
 8000814:	bf00      	nop
 8000816:	3708      	adds	r7, #8
 8000818:	46bd      	mov	sp, r7
 800081a:	bd80      	pop	{r7, pc}
 800081c:	40023800 	.word	0x40023800

08000820 <HAL_UART_MspInit>:
* This function configures the hardware resources used in this example
* @param huart: UART handle pointer
* @retval None
*/
void HAL_UART_MspInit(UART_HandleTypeDef* huart)
{
 8000820:	b580      	push	{r7, lr}
 8000822:	b08a      	sub	sp, #40	; 0x28
 8000824:	af00      	add	r7, sp, #0
 8000826:	6078      	str	r0, [r7, #4]
  GPIO_InitTypeDef GPIO_InitStruct = {0};
 8000828:	f107 0314 	add.w	r3, r7, #20
 800082c:	2200      	movs	r2, #0
 800082e:	601a      	str	r2, [r3, #0]
 8000830:	605a      	str	r2, [r3, #4]
 8000832:	609a      	str	r2, [r3, #8]
 8000834:	60da      	str	r2, [r3, #12]
 8000836:	611a      	str	r2, [r3, #16]
  if(huart->Instance==USART1)
 8000838:	687b      	ldr	r3, [r7, #4]
 800083a:	681b      	ldr	r3, [r3, #0]
 800083c:	4a19      	ldr	r2, [pc, #100]	; (80008a4 <HAL_UART_MspInit+0x84>)
 800083e:	4293      	cmp	r3, r2
 8000840:	d12c      	bne.n	800089c <HAL_UART_MspInit+0x7c>
  {
  /* USER CODE BEGIN USART1_MspInit 0 */

  /* USER CODE END USART1_MspInit 0 */
    /* Peripheral clock enable */
    __HAL_RCC_USART1_CLK_ENABLE();
 8000842:	2300      	movs	r3, #0
 8000844:	613b      	str	r3, [r7, #16]
 8000846:	4b18      	ldr	r3, [pc, #96]	; (80008a8 <HAL_UART_MspInit+0x88>)
 8000848:	6c5b      	ldr	r3, [r3, #68]	; 0x44
 800084a:	4a17      	ldr	r2, [pc, #92]	; (80008a8 <HAL_UART_MspInit+0x88>)
 800084c:	f043 0310 	orr.w	r3, r3, #16
 8000850:	6453      	str	r3, [r2, #68]	; 0x44
 8000852:	4b15      	ldr	r3, [pc, #84]	; (80008a8 <HAL_UART_MspInit+0x88>)
 8000854:	6c5b      	ldr	r3, [r3, #68]	; 0x44
 8000856:	f003 0310 	and.w	r3, r3, #16
 800085a:	613b      	str	r3, [r7, #16]
 800085c:	693b      	ldr	r3, [r7, #16]

    __HAL_RCC_GPIOA_CLK_ENABLE();
 800085e:	2300      	movs	r3, #0
 8000860:	60fb      	str	r3, [r7, #12]
 8000862:	4b11      	ldr	r3, [pc, #68]	; (80008a8 <HAL_UART_MspInit+0x88>)
 8000864:	6b1b      	ldr	r3, [r3, #48]	; 0x30
 8000866:	4a10      	ldr	r2, [pc, #64]	; (80008a8 <HAL_UART_MspInit+0x88>)
 8000868:	f043 0301 	orr.w	r3, r3, #1
 800086c:	6313      	str	r3, [r2, #48]	; 0x30
 800086e:	4b0e      	ldr	r3, [pc, #56]	; (80008a8 <HAL_UART_MspInit+0x88>)
 8000870:	6b1b      	ldr	r3, [r3, #48]	; 0x30
 8000872:	f003 0301 	and.w	r3, r3, #1
 8000876:	60fb      	str	r3, [r7, #12]
 8000878:	68fb      	ldr	r3, [r7, #12]
    /**USART1 GPIO Configuration
    PA9     ------> USART1_TX
    PA10     ------> USART1_RX
    */
    GPIO_InitStruct.Pin = GPIO_PIN_9|GPIO_PIN_10;
 800087a:	f44f 63c0 	mov.w	r3, #1536	; 0x600
 800087e:	617b      	str	r3, [r7, #20]
    GPIO_InitStruct.Mode = GPIO_MODE_AF_PP;
 8000880:	2302      	movs	r3, #2
 8000882:	61bb      	str	r3, [r7, #24]
    GPIO_InitStruct.Pull = GPIO_NOPULL;
 8000884:	2300      	movs	r3, #0
 8000886:	61fb      	str	r3, [r7, #28]
    GPIO_InitStruct.Speed = GPIO_SPEED_FREQ_VERY_HIGH;
 8000888:	2303      	movs	r3, #3
 800088a:	623b      	str	r3, [r7, #32]
    GPIO_InitStruct.Alternate = GPIO_AF7_USART1;
 800088c:	2307      	movs	r3, #7
 800088e:	627b      	str	r3, [r7, #36]	; 0x24
    HAL_GPIO_Init(GPIOA, &GPIO_InitStruct);
 8000890:	f107 0314 	add.w	r3, r7, #20
 8000894:	4619      	mov	r1, r3
 8000896:	4805      	ldr	r0, [pc, #20]	; (80008ac <HAL_UART_MspInit+0x8c>)
 8000898:	f000 f9c8 	bl	8000c2c <HAL_GPIO_Init>
  /* USER CODE BEGIN USART1_MspInit 1 */

  /* USER CODE END USART1_MspInit 1 */
  }

}
 800089c:	bf00      	nop
 800089e:	3728      	adds	r7, #40	; 0x28
 80008a0:	46bd      	mov	sp, r7
 80008a2:	bd80      	pop	{r7, pc}
 80008a4:	40011000 	.word	0x40011000
 80008a8:	40023800 	.word	0x40023800
 80008ac:	40020000 	.word	0x40020000

080008b0 <NMI_Handler>:
/******************************************************************************/
/**
  * @brief This function handles Non maskable interrupt.
  */
void NMI_Handler(void)
{
 80008b0:	b480      	push	{r7}
 80008b2:	af00      	add	r7, sp, #0
  /* USER CODE BEGIN NonMaskableInt_IRQn 0 */

  /* USER CODE END NonMaskableInt_IRQn 0 */
  /* USER CODE BEGIN NonMaskableInt_IRQn 1 */
  while (1)
 80008b4:	e7fe      	b.n	80008b4 <NMI_Handler+0x4>

080008b6 <HardFault_Handler>:

/**
  * @brief This function handles Hard fault interrupt.
  */
void HardFault_Handler(void)
{
 80008b6:	b480      	push	{r7}
 80008b8:	af00      	add	r7, sp, #0
  /* USER CODE BEGIN HardFault_IRQn 0 */

  /* USER CODE END HardFault_IRQn 0 */
  while (1)
 80008ba:	e7fe      	b.n	80008ba <HardFault_Handler+0x4>

080008bc <MemManage_Handler>:

/**
  * @brief This function handles Memory management fault.
  */
void MemManage_Handler(void)
{
 80008bc:	b480      	push	{r7}
 80008be:	af00      	add	r7, sp, #0
  /* USER CODE BEGIN MemoryManagement_IRQn 0 */

  /* USER CODE END MemoryManagement_IRQn 0 */
  while (1)
 80008c0:	e7fe      	b.n	80008c0 <MemManage_Handler+0x4>

080008c2 <BusFault_Handler>:

/**
  * @brief This function handles Pre-fetch fault, memory access fault.
  */
void BusFault_Handler(void)
{
 80008c2:	b480      	push	{r7}
 80008c4:	af00      	add	r7, sp, #0
  /* USER CODE BEGIN BusFault_IRQn 0 */

  /* USER CODE END BusFault_IRQn 0 */
  while (1)
 80008c6:	e7fe      	b.n	80008c6 <BusFault_Handler+0x4>

080008c8 <UsageFault_Handler>:

/**
  * @brief This function handles Undefined instruction or illegal state.
  */
void UsageFault_Handler(void)
{
 80008c8:	b480      	push	{r7}
 80008ca:	af00      	add	r7, sp, #0
  /* USER CODE BEGIN UsageFault_IRQn 0 */

  /* USER CODE END UsageFault_IRQn 0 */
  while (1)
 80008cc:	e7fe      	b.n	80008cc <UsageFault_Handler+0x4>

080008ce <SVC_Handler>:

/**
  * @brief This function handles System service call via SWI instruction.
  */
void SVC_Handler(void)
{
 80008ce:	b480      	push	{r7}
 80008d0:	af00      	add	r7, sp, #0

  /* USER CODE END SVCall_IRQn 0 */
  /* USER CODE BEGIN SVCall_IRQn 1 */

  /* USER CODE END SVCall_IRQn 1 */
}
 80008d2:	bf00      	nop
 80008d4:	46bd      	mov	sp, r7
 80008d6:	f85d 7b04 	ldr.w	r7, [sp], #4
 80008da:	4770      	bx	lr

080008dc <DebugMon_Handler>:

/**
  * @brief This function handles Debug monitor.
  */
void DebugMon_Handler(void)
{
 80008dc:	b480      	push	{r7}
 80008de:	af00      	add	r7, sp, #0

  /* USER CODE END DebugMonitor_IRQn 0 */
  /* USER CODE BEGIN DebugMonitor_IRQn 1 */

  /* USER CODE END DebugMonitor_IRQn 1 */
}
 80008e0:	bf00      	nop
 80008e2:	46bd      	mov	sp, r7
 80008e4:	f85d 7b04 	ldr.w	r7, [sp], #4
 80008e8:	4770      	bx	lr

080008ea <PendSV_Handler>:

/**
  * @brief This function handles Pendable request for system service.
  */
void PendSV_Handler(void)
{
 80008ea:	b480      	push	{r7}
 80008ec:	af00      	add	r7, sp, #0

  /* USER CODE END PendSV_IRQn 0 */
  /* USER CODE BEGIN PendSV_IRQn 1 */

  /* USER CODE END PendSV_IRQn 1 */
}
 80008ee:	bf00      	nop
 80008f0:	46bd      	mov	sp, r7
 80008f2:	f85d 7b04 	ldr.w	r7, [sp], #4
 80008f6:	4770      	bx	lr

080008f8 <SysTick_Handler>:

/**
  * @brief This function handles System tick timer.
  */
void SysTick_Handler(void)
{
 80008f8:	b580      	push	{r7, lr}
 80008fa:	af00      	add	r7, sp, #0
  /* USER CODE BEGIN SysTick_IRQn 0 */

  /* USER CODE END SysTick_IRQn 0 */
  HAL_IncTick();
 80008fc:	f000 f890 	bl	8000a20 <HAL_IncTick>
  /* USER CODE BEGIN SysTick_IRQn 1 */

  /* USER CODE END SysTick_IRQn 1 */
}
 8000900:	bf00      	nop
 8000902:	bd80      	pop	{r7, pc}

08000904 <SystemInit>:
  *         configuration.
  * @param  None
  * @retval None
  */
void SystemInit(void)
{
 8000904:	b480      	push	{r7}
 8000906:	af00      	add	r7, sp, #0
  /* FPU settings ------------------------------------------------------------*/
  #if (__FPU_PRESENT == 1) && (__FPU_USED == 1)
    SCB->CPACR |= ((3UL << 10*2)|(3UL << 11*2));  /* set CP10 and CP11 Full Access */
 8000908:	4b06      	ldr	r3, [pc, #24]	; (8000924 <SystemInit+0x20>)
 800090a:	f8d3 3088 	ldr.w	r3, [r3, #136]	; 0x88
 800090e:	4a05      	ldr	r2, [pc, #20]	; (8000924 <SystemInit+0x20>)
 8000910:	f443 0370 	orr.w	r3, r3, #15728640	; 0xf00000
 8000914:	f8c2 3088 	str.w	r3, [r2, #136]	; 0x88

  /* Configure the Vector Table location -------------------------------------*/
#if defined(USER_VECT_TAB_ADDRESS)
  SCB->VTOR = VECT_TAB_BASE_ADDRESS | VECT_TAB_OFFSET; /* Vector Table Relocation in Internal SRAM */
#endif /* USER_VECT_TAB_ADDRESS */
}
 8000918:	bf00      	nop
 800091a:	46bd      	mov	sp, r7
 800091c:	f85d 7b04 	ldr.w	r7, [sp], #4
 8000920:	4770      	bx	lr
 8000922:	bf00      	nop
 8000924:	e000ed00 	.word	0xe000ed00

08000928 <Reset_Handler>:

    .section  .text.Reset_Handler
  .weak  Reset_Handler
  .type  Reset_Handler, %function
Reset_Handler: 
  ldr   sp, =_estack       /* set stack pointer */
 8000928:	f8df d034 	ldr.w	sp, [pc, #52]	; 8000960 <LoopFillZerobss+0x12>
 
/* Copy the data segment initializers from flash to SRAM */  
  ldr r0, =_sdata
 800092c:	480d      	ldr	r0, [pc, #52]	; (8000964 <LoopFillZerobss+0x16>)
  ldr r1, =_edata
 800092e:	490e      	ldr	r1, [pc, #56]	; (8000968 <LoopFillZerobss+0x1a>)
  ldr r2, =_sidata
 8000930:	4a0e      	ldr	r2, [pc, #56]	; (800096c <LoopFillZerobss+0x1e>)
  movs r3, #0
 8000932:	2300      	movs	r3, #0
  b LoopCopyDataInit
 8000934:	e002      	b.n	800093c <LoopCopyDataInit>

08000936 <CopyDataInit>:

CopyDataInit:
  ldr r4, [r2, r3]
 8000936:	58d4      	ldr	r4, [r2, r3]
  str r4, [r0, r3]
 8000938:	50c4      	str	r4, [r0, r3]
  adds r3, r3, #4
 800093a:	3304      	adds	r3, #4

0800093c <LoopCopyDataInit>:

LoopCopyDataInit:
  adds r4, r0, r3
 800093c:	18c4      	adds	r4, r0, r3
  cmp r4, r1
 800093e:	428c      	cmp	r4, r1
  bcc CopyDataInit
 8000940:	d3f9      	bcc.n	8000936 <CopyDataInit>
  
/* Zero fill the bss segment. */
  ldr r2, =_sbss
 8000942:	4a0b      	ldr	r2, [pc, #44]	; (8000970 <LoopFillZerobss+0x22>)
  ldr r4, =_ebss
 8000944:	4c0b      	ldr	r4, [pc, #44]	; (8000974 <LoopFillZerobss+0x26>)
  movs r3, #0
 8000946:	2300      	movs	r3, #0
  b LoopFillZerobss
 8000948:	e001      	b.n	800094e <LoopFillZerobss>

0800094a <FillZerobss>:

FillZerobss:
  str  r3, [r2]
 800094a:	6013      	str	r3, [r2, #0]
  adds r2, r2, #4
 800094c:	3204      	adds	r2, #4

0800094e <LoopFillZerobss>:

LoopFillZerobss:
  cmp r2, r4
 800094e:	42a2      	cmp	r2, r4
  bcc FillZerobss
 8000950:	d3fb      	bcc.n	800094a <FillZerobss>

/* Call the clock system initialization function.*/
  bl  SystemInit   
 8000952:	f7ff ffd7 	bl	8000904 <SystemInit>
/* Call static constructors */
    bl __libc_init_array
 8000956:	f001 fc45 	bl	80021e4 <__libc_init_array>
/* Call the application's entry point.*/
  bl  main
 800095a:	f7ff fdc9 	bl	80004f0 <main>
  bx  lr    
 800095e:	4770      	bx	lr
  ldr   sp, =_estack       /* set stack pointer */
 8000960:	20030000 	.word	0x20030000
  ldr r0, =_sdata
 8000964:	20000000 	.word	0x20000000
  ldr r1, =_edata
 8000968:	2000000c 	.word	0x2000000c
  ldr r2, =_sidata
 800096c:	0800228c 	.word	0x0800228c
  ldr r2, =_sbss
 8000970:	2000000c 	.word	0x2000000c
  ldr r4, =_ebss
 8000974:	20000070 	.word	0x20000070

08000978 <ADC_IRQHandler>:
 * @retval None       
*/
    .section  .text.Default_Handler,"ax",%progbits
Default_Handler:
Infinite_Loop:
  b  Infinite_Loop
 8000978:	e7fe      	b.n	8000978 <ADC_IRQHandler>
	...

0800097c <HAL_Init>:
  *         need to ensure that the SysTick time base is always set to 1 millisecond
  *         to have correct HAL operation.
  * @retval HAL status
  */
HAL_StatusTypeDef HAL_Init(void)
{
 800097c:	b580      	push	{r7, lr}
 800097e:	af00      	add	r7, sp, #0
  /* Configure Flash prefetch, Instruction cache, Data cache */ 
#if (INSTRUCTION_CACHE_ENABLE != 0U)
  __HAL_FLASH_INSTRUCTION_CACHE_ENABLE();
 8000980:	4b0e      	ldr	r3, [pc, #56]	; (80009bc <HAL_Init+0x40>)
 8000982:	681b      	ldr	r3, [r3, #0]
 8000984:	4a0d      	ldr	r2, [pc, #52]	; (80009bc <HAL_Init+0x40>)
 8000986:	f443 7300 	orr.w	r3, r3, #512	; 0x200
 800098a:	6013      	str	r3, [r2, #0]
#endif /* INSTRUCTION_CACHE_ENABLE */

#if (DATA_CACHE_ENABLE != 0U)
  __HAL_FLASH_DATA_CACHE_ENABLE();
 800098c:	4b0b      	ldr	r3, [pc, #44]	; (80009bc <HAL_Init+0x40>)
 800098e:	681b      	ldr	r3, [r3, #0]
 8000990:	4a0a      	ldr	r2, [pc, #40]	; (80009bc <HAL_Init+0x40>)
 8000992:	f443 6380 	orr.w	r3, r3, #1024	; 0x400
 8000996:	6013      	str	r3, [r2, #0]
#endif /* DATA_CACHE_ENABLE */

#if (PREFETCH_ENABLE != 0U)
  __HAL_FLASH_PREFETCH_BUFFER_ENABLE();
 8000998:	4b08      	ldr	r3, [pc, #32]	; (80009bc <HAL_Init+0x40>)
 800099a:	681b      	ldr	r3, [r3, #0]
 800099c:	4a07      	ldr	r2, [pc, #28]	; (80009bc <HAL_Init+0x40>)
 800099e:	f443 7380 	orr.w	r3, r3, #256	; 0x100
 80009a2:	6013      	str	r3, [r2, #0]
#endif /* PREFETCH_ENABLE */

  /* Set Interrupt Group Priority */
  HAL_NVIC_SetPriorityGrouping(NVIC_PRIORITYGROUP_4);
 80009a4:	2003      	movs	r0, #3
 80009a6:	f000 f90d 	bl	8000bc4 <HAL_NVIC_SetPriorityGrouping>

  /* Use systick as time base source and configure 1ms tick (default clock after Reset is HSI) */
  HAL_InitTick(TICK_INT_PRIORITY);
 80009aa:	2000      	movs	r0, #0
 80009ac:	f000 f808 	bl	80009c0 <HAL_InitTick>

  /* Init the low level hardware */
  HAL_MspInit();
 80009b0:	f7ff ff0e 	bl	80007d0 <HAL_MspInit>

  /* Return function status */
  return HAL_OK;
 80009b4:	2300      	movs	r3, #0
}
 80009b6:	4618      	mov	r0, r3
 80009b8:	bd80      	pop	{r7, pc}
 80009ba:	bf00      	nop
 80009bc:	40023c00 	.word	0x40023c00

080009c0 <HAL_InitTick>:
  *       implementation  in user file.
  * @param TickPriority Tick interrupt priority.
  * @retval HAL status
  */
__weak HAL_StatusTypeDef HAL_InitTick(uint32_t TickPriority)
{
 80009c0:	b580      	push	{r7, lr}
 80009c2:	b082      	sub	sp, #8
 80009c4:	af00      	add	r7, sp, #0
 80009c6:	6078      	str	r0, [r7, #4]
  /* Configure the SysTick to have interrupt in 1ms time basis*/
  if (HAL_SYSTICK_Config(SystemCoreClock / (1000U / uwTickFreq)) > 0U)
 80009c8:	4b12      	ldr	r3, [pc, #72]	; (8000a14 <HAL_InitTick+0x54>)
 80009ca:	681a      	ldr	r2, [r3, #0]
 80009cc:	4b12      	ldr	r3, [pc, #72]	; (8000a18 <HAL_InitTick+0x58>)
 80009ce:	781b      	ldrb	r3, [r3, #0]
 80009d0:	4619      	mov	r1, r3
 80009d2:	f44f 737a 	mov.w	r3, #1000	; 0x3e8
 80009d6:	fbb3 f3f1 	udiv	r3, r3, r1
 80009da:	fbb2 f3f3 	udiv	r3, r2, r3
 80009de:	4618      	mov	r0, r3
 80009e0:	f000 f917 	bl	8000c12 <HAL_SYSTICK_Config>
 80009e4:	4603      	mov	r3, r0
 80009e6:	2b00      	cmp	r3, #0
 80009e8:	d001      	beq.n	80009ee <HAL_InitTick+0x2e>
  {
    return HAL_ERROR;
 80009ea:	2301      	movs	r3, #1
 80009ec:	e00e      	b.n	8000a0c <HAL_InitTick+0x4c>
  }

  /* Configure the SysTick IRQ priority */
  if (TickPriority < (1UL << __NVIC_PRIO_BITS))
 80009ee:	687b      	ldr	r3, [r7, #4]
 80009f0:	2b0f      	cmp	r3, #15
 80009f2:	d80a      	bhi.n	8000a0a <HAL_InitTick+0x4a>
  {
    HAL_NVIC_SetPriority(SysTick_IRQn, TickPriority, 0U);
 80009f4:	2200      	movs	r2, #0
 80009f6:	6879      	ldr	r1, [r7, #4]
 80009f8:	f04f 30ff 	mov.w	r0, #4294967295
 80009fc:	f000 f8ed 	bl	8000bda <HAL_NVIC_SetPriority>
    uwTickPrio = TickPriority;
 8000a00:	4a06      	ldr	r2, [pc, #24]	; (8000a1c <HAL_InitTick+0x5c>)
 8000a02:	687b      	ldr	r3, [r7, #4]
 8000a04:	6013      	str	r3, [r2, #0]
  {
    return HAL_ERROR;
  }

  /* Return function status */
  return HAL_OK;
 8000a06:	2300      	movs	r3, #0
 8000a08:	e000      	b.n	8000a0c <HAL_InitTick+0x4c>
    return HAL_ERROR;
 8000a0a:	2301      	movs	r3, #1
}
 8000a0c:	4618      	mov	r0, r3
 8000a0e:	3708      	adds	r7, #8
 8000a10:	46bd      	mov	sp, r7
 8000a12:	bd80      	pop	{r7, pc}
 8000a14:	20000000 	.word	0x20000000
 8000a18:	20000008 	.word	0x20000008
 8000a1c:	20000004 	.word	0x20000004

08000a20 <HAL_IncTick>:
 * @note This function is declared as __weak to be overwritten in case of other 
  *      implementations in user file.
  * @retval None
  */
__weak void HAL_IncTick(void)
{
 8000a20:	b480      	push	{r7}
 8000a22:	af00      	add	r7, sp, #0
  uwTick += uwTickFreq;
 8000a24:	4b06      	ldr	r3, [pc, #24]	; (8000a40 <HAL_IncTick+0x20>)
 8000a26:	781b      	ldrb	r3, [r3, #0]
 8000a28:	461a      	mov	r2, r3
 8000a2a:	4b06      	ldr	r3, [pc, #24]	; (8000a44 <HAL_IncTick+0x24>)
 8000a2c:	681b      	ldr	r3, [r3, #0]
 8000a2e:	4413      	add	r3, r2
 8000a30:	4a04      	ldr	r2, [pc, #16]	; (8000a44 <HAL_IncTick+0x24>)
 8000a32:	6013      	str	r3, [r2, #0]
}
 8000a34:	bf00      	nop
 8000a36:	46bd      	mov	sp, r7
 8000a38:	f85d 7b04 	ldr.w	r7, [sp], #4
 8000a3c:	4770      	bx	lr
 8000a3e:	bf00      	nop
 8000a40:	20000008 	.word	0x20000008
 8000a44:	2000006c 	.word	0x2000006c

08000a48 <HAL_GetTick>:
  * @note This function is declared as __weak to be overwritten in case of other 
  *       implementations in user file.
  * @retval tick value
  */
__weak uint32_t HAL_GetTick(void)
{
 8000a48:	b480      	push	{r7}
 8000a4a:	af00      	add	r7, sp, #0
  return uwTick;
 8000a4c:	4b03      	ldr	r3, [pc, #12]	; (8000a5c <HAL_GetTick+0x14>)
 8000a4e:	681b      	ldr	r3, [r3, #0]
}
 8000a50:	4618      	mov	r0, r3
 8000a52:	46bd      	mov	sp, r7
 8000a54:	f85d 7b04 	ldr.w	r7, [sp], #4
 8000a58:	4770      	bx	lr
 8000a5a:	bf00      	nop
 8000a5c:	2000006c 	.word	0x2000006c

08000a60 <__NVIC_SetPriorityGrouping>:
           In case of a conflict between priority grouping and available
           priority bits (__NVIC_PRIO_BITS), the smallest possible priority group is set.
  \param [in]      PriorityGroup  Priority grouping field.
 */
__STATIC_INLINE void __NVIC_SetPriorityGrouping(uint32_t PriorityGroup)
{
 8000a60:	b480      	push	{r7}
 8000a62:	b085      	sub	sp, #20
 8000a64:	af00      	add	r7, sp, #0
 8000a66:	6078      	str	r0, [r7, #4]
  uint32_t reg_value;
  uint32_t PriorityGroupTmp = (PriorityGroup & (uint32_t)0x07UL);             /* only values 0..7 are used          */
 8000a68:	687b      	ldr	r3, [r7, #4]
 8000a6a:	f003 0307 	and.w	r3, r3, #7
 8000a6e:	60fb      	str	r3, [r7, #12]

  reg_value  =  SCB->AIRCR;                                                   /* read old register configuration    */
 8000a70:	4b0c      	ldr	r3, [pc, #48]	; (8000aa4 <__NVIC_SetPriorityGrouping+0x44>)
 8000a72:	68db      	ldr	r3, [r3, #12]
 8000a74:	60bb      	str	r3, [r7, #8]
  reg_value &= ~((uint32_t)(SCB_AIRCR_VECTKEY_Msk | SCB_AIRCR_PRIGROUP_Msk)); /* clear bits to change               */
 8000a76:	68ba      	ldr	r2, [r7, #8]
 8000a78:	f64f 03ff 	movw	r3, #63743	; 0xf8ff
 8000a7c:	4013      	ands	r3, r2
 8000a7e:	60bb      	str	r3, [r7, #8]
  reg_value  =  (reg_value                                   |
                ((uint32_t)0x5FAUL << SCB_AIRCR_VECTKEY_Pos) |
                (PriorityGroupTmp << SCB_AIRCR_PRIGROUP_Pos)  );              /* Insert write key and priority group */
 8000a80:	68fb      	ldr	r3, [r7, #12]
 8000a82:	021a      	lsls	r2, r3, #8
                ((uint32_t)0x5FAUL << SCB_AIRCR_VECTKEY_Pos) |
 8000a84:	68bb      	ldr	r3, [r7, #8]
 8000a86:	4313      	orrs	r3, r2
  reg_value  =  (reg_value                                   |
 8000a88:	f043 63bf 	orr.w	r3, r3, #100139008	; 0x5f80000
 8000a8c:	f443 3300 	orr.w	r3, r3, #131072	; 0x20000
 8000a90:	60bb      	str	r3, [r7, #8]
  SCB->AIRCR =  reg_value;
 8000a92:	4a04      	ldr	r2, [pc, #16]	; (8000aa4 <__NVIC_SetPriorityGrouping+0x44>)
 8000a94:	68bb      	ldr	r3, [r7, #8]
 8000a96:	60d3      	str	r3, [r2, #12]
}
 8000a98:	bf00      	nop
 8000a9a:	3714      	adds	r7, #20
 8000a9c:	46bd      	mov	sp, r7
 8000a9e:	f85d 7b04 	ldr.w	r7, [sp], #4
 8000aa2:	4770      	bx	lr
 8000aa4:	e000ed00 	.word	0xe000ed00

08000aa8 <__NVIC_GetPriorityGrouping>:
  \brief   Get Priority Grouping
  \details Reads the priority grouping field from the NVIC Interrupt Controller.
  \return                Priority grouping field (SCB->AIRCR [10:8] PRIGROUP field).
 */
__STATIC_INLINE uint32_t __NVIC_GetPriorityGrouping(void)
{
 8000aa8:	b480      	push	{r7}
 8000aaa:	af00      	add	r7, sp, #0
  return ((uint32_t)((SCB->AIRCR & SCB_AIRCR_PRIGROUP_Msk) >> SCB_AIRCR_PRIGROUP_Pos));
 8000aac:	4b04      	ldr	r3, [pc, #16]	; (8000ac0 <__NVIC_GetPriorityGrouping+0x18>)
 8000aae:	68db      	ldr	r3, [r3, #12]
 8000ab0:	0a1b      	lsrs	r3, r3, #8
 8000ab2:	f003 0307 	and.w	r3, r3, #7
}
 8000ab6:	4618      	mov	r0, r3
 8000ab8:	46bd      	mov	sp, r7
 8000aba:	f85d 7b04 	ldr.w	r7, [sp], #4
 8000abe:	4770      	bx	lr
 8000ac0:	e000ed00 	.word	0xe000ed00

08000ac4 <__NVIC_SetPriority>:
  \param [in]      IRQn  Interrupt number.
  \param [in]  priority  Priority to set.
  \note    The priority cannot be set for every processor exception.
 */
__STATIC_INLINE void __NVIC_SetPriority(IRQn_Type IRQn, uint32_t priority)
{
 8000ac4:	b480      	push	{r7}
 8000ac6:	b083      	sub	sp, #12
 8000ac8:	af00      	add	r7, sp, #0
 8000aca:	4603      	mov	r3, r0
 8000acc:	6039      	str	r1, [r7, #0]
 8000ace:	71fb      	strb	r3, [r7, #7]
  if ((int32_t)(IRQn) >= 0)
 8000ad0:	f997 3007 	ldrsb.w	r3, [r7, #7]
 8000ad4:	2b00      	cmp	r3, #0
 8000ad6:	db0a      	blt.n	8000aee <__NVIC_SetPriority+0x2a>
  {
    NVIC->IP[((uint32_t)IRQn)]               = (uint8_t)((priority << (8U - __NVIC_PRIO_BITS)) & (uint32_t)0xFFUL);
 8000ad8:	683b      	ldr	r3, [r7, #0]
 8000ada:	b2da      	uxtb	r2, r3
 8000adc:	490c      	ldr	r1, [pc, #48]	; (8000b10 <__NVIC_SetPriority+0x4c>)
 8000ade:	f997 3007 	ldrsb.w	r3, [r7, #7]
 8000ae2:	0112      	lsls	r2, r2, #4
 8000ae4:	b2d2      	uxtb	r2, r2
 8000ae6:	440b      	add	r3, r1
 8000ae8:	f883 2300 	strb.w	r2, [r3, #768]	; 0x300
  }
  else
  {
    SCB->SHP[(((uint32_t)IRQn) & 0xFUL)-4UL] = (uint8_t)((priority << (8U - __NVIC_PRIO_BITS)) & (uint32_t)0xFFUL);
  }
}
 8000aec:	e00a      	b.n	8000b04 <__NVIC_SetPriority+0x40>
    SCB->SHP[(((uint32_t)IRQn) & 0xFUL)-4UL] = (uint8_t)((priority << (8U - __NVIC_PRIO_BITS)) & (uint32_t)0xFFUL);
 8000aee:	683b      	ldr	r3, [r7, #0]
 8000af0:	b2da      	uxtb	r2, r3
 8000af2:	4908      	ldr	r1, [pc, #32]	; (8000b14 <__NVIC_SetPriority+0x50>)
 8000af4:	79fb      	ldrb	r3, [r7, #7]
 8000af6:	f003 030f 	and.w	r3, r3, #15
 8000afa:	3b04      	subs	r3, #4
 8000afc:	0112      	lsls	r2, r2, #4
 8000afe:	b2d2      	uxtb	r2, r2
 8000b00:	440b      	add	r3, r1
 8000b02:	761a      	strb	r2, [r3, #24]
}
 8000b04:	bf00      	nop
 8000b06:	370c      	adds	r7, #12
 8000b08:	46bd      	mov	sp, r7
 8000b0a:	f85d 7b04 	ldr.w	r7, [sp], #4
 8000b0e:	4770      	bx	lr
 8000b10:	e000e100 	.word	0xe000e100
 8000b14:	e000ed00 	.word	0xe000ed00

08000b18 <NVIC_EncodePriority>:
  \param [in]   PreemptPriority  Preemptive priority value (starting from 0).
  \param [in]       SubPriority  Subpriority value (starting from 0).
  \return                        Encoded priority. Value can be used in the function \ref NVIC_SetPriority().
 */
__STATIC_INLINE uint32_t NVIC_EncodePriority (uint32_t PriorityGroup, uint32_t PreemptPriority, uint32_t SubPriority)
{
 8000b18:	b480      	push	{r7}
 8000b1a:	b089      	sub	sp, #36	; 0x24
 8000b1c:	af00      	add	r7, sp, #0
 8000b1e:	60f8      	str	r0, [r7, #12]
 8000b20:	60b9      	str	r1, [r7, #8]
 8000b22:	607a      	str	r2, [r7, #4]
  uint32_t PriorityGroupTmp = (PriorityGroup & (uint32_t)0x07UL);   /* only values 0..7 are used          */
 8000b24:	68fb      	ldr	r3, [r7, #12]
 8000b26:	f003 0307 	and.w	r3, r3, #7
 8000b2a:	61fb      	str	r3, [r7, #28]
  uint32_t PreemptPriorityBits;
  uint32_t SubPriorityBits;

  PreemptPriorityBits = ((7UL - PriorityGroupTmp) > (uint32_t)(__NVIC_PRIO_BITS)) ? (uint32_t)(__NVIC_PRIO_BITS) : (uint32_t)(7UL - PriorityGroupTmp);
 8000b2c:	69fb      	ldr	r3, [r7, #28]
 8000b2e:	f1c3 0307 	rsb	r3, r3, #7
 8000b32:	2b04      	cmp	r3, #4
 8000b34:	bf28      	it	cs
 8000b36:	2304      	movcs	r3, #4
 8000b38:	61bb      	str	r3, [r7, #24]
  SubPriorityBits     = ((PriorityGroupTmp + (uint32_t)(__NVIC_PRIO_BITS)) < (uint32_t)7UL) ? (uint32_t)0UL : (uint32_t)((PriorityGroupTmp - 7UL) + (uint32_t)(__NVIC_PRIO_BITS));
 8000b3a:	69fb      	ldr	r3, [r7, #28]
 8000b3c:	3304      	adds	r3, #4
 8000b3e:	2b06      	cmp	r3, #6
 8000b40:	d902      	bls.n	8000b48 <NVIC_EncodePriority+0x30>
 8000b42:	69fb      	ldr	r3, [r7, #28]
 8000b44:	3b03      	subs	r3, #3
 8000b46:	e000      	b.n	8000b4a <NVIC_EncodePriority+0x32>
 8000b48:	2300      	movs	r3, #0
 8000b4a:	617b      	str	r3, [r7, #20]

  return (
           ((PreemptPriority & (uint32_t)((1UL << (PreemptPriorityBits)) - 1UL)) << SubPriorityBits) |
 8000b4c:	f04f 32ff 	mov.w	r2, #4294967295
 8000b50:	69bb      	ldr	r3, [r7, #24]
 8000b52:	fa02 f303 	lsl.w	r3, r2, r3
 8000b56:	43da      	mvns	r2, r3
 8000b58:	68bb      	ldr	r3, [r7, #8]
 8000b5a:	401a      	ands	r2, r3
 8000b5c:	697b      	ldr	r3, [r7, #20]
 8000b5e:	409a      	lsls	r2, r3
           ((SubPriority     & (uint32_t)((1UL << (SubPriorityBits    )) - 1UL)))
 8000b60:	f04f 31ff 	mov.w	r1, #4294967295
 8000b64:	697b      	ldr	r3, [r7, #20]
 8000b66:	fa01 f303 	lsl.w	r3, r1, r3
 8000b6a:	43d9      	mvns	r1, r3
 8000b6c:	687b      	ldr	r3, [r7, #4]
 8000b6e:	400b      	ands	r3, r1
           ((PreemptPriority & (uint32_t)((1UL << (PreemptPriorityBits)) - 1UL)) << SubPriorityBits) |
 8000b70:	4313      	orrs	r3, r2
         );
}
 8000b72:	4618      	mov	r0, r3
 8000b74:	3724      	adds	r7, #36	; 0x24
 8000b76:	46bd      	mov	sp, r7
 8000b78:	f85d 7b04 	ldr.w	r7, [sp], #4
 8000b7c:	4770      	bx	lr
	...

08000b80 <SysTick_Config>:
  \note    When the variable <b>__Vendor_SysTickConfig</b> is set to 1, then the
           function <b>SysTick_Config</b> is not included. In this case, the file <b><i>device</i>.h</b>
           must contain a vendor-specific implementation of this function.
 */
__STATIC_INLINE uint32_t SysTick_Config(uint32_t ticks)
{
 8000b80:	b580      	push	{r7, lr}
 8000b82:	b082      	sub	sp, #8
 8000b84:	af00      	add	r7, sp, #0
 8000b86:	6078      	str	r0, [r7, #4]
  if ((ticks - 1UL) > SysTick_LOAD_RELOAD_Msk)
 8000b88:	687b      	ldr	r3, [r7, #4]
 8000b8a:	3b01      	subs	r3, #1
 8000b8c:	f1b3 7f80 	cmp.w	r3, #16777216	; 0x1000000
 8000b90:	d301      	bcc.n	8000b96 <SysTick_Config+0x16>
  {
    return (1UL);                                                   /* Reload value impossible */
 8000b92:	2301      	movs	r3, #1
 8000b94:	e00f      	b.n	8000bb6 <SysTick_Config+0x36>
  }

  SysTick->LOAD  = (uint32_t)(ticks - 1UL);                         /* set reload register */
 8000b96:	4a0a      	ldr	r2, [pc, #40]	; (8000bc0 <SysTick_Config+0x40>)
 8000b98:	687b      	ldr	r3, [r7, #4]
 8000b9a:	3b01      	subs	r3, #1
 8000b9c:	6053      	str	r3, [r2, #4]
  NVIC_SetPriority (SysTick_IRQn, (1UL << __NVIC_PRIO_BITS) - 1UL); /* set Priority for Systick Interrupt */
 8000b9e:	210f      	movs	r1, #15
 8000ba0:	f04f 30ff 	mov.w	r0, #4294967295
 8000ba4:	f7ff ff8e 	bl	8000ac4 <__NVIC_SetPriority>
  SysTick->VAL   = 0UL;                                             /* Load the SysTick Counter Value */
 8000ba8:	4b05      	ldr	r3, [pc, #20]	; (8000bc0 <SysTick_Config+0x40>)
 8000baa:	2200      	movs	r2, #0
 8000bac:	609a      	str	r2, [r3, #8]
  SysTick->CTRL  = SysTick_CTRL_CLKSOURCE_Msk |
 8000bae:	4b04      	ldr	r3, [pc, #16]	; (8000bc0 <SysTick_Config+0x40>)
 8000bb0:	2207      	movs	r2, #7
 8000bb2:	601a      	str	r2, [r3, #0]
                   SysTick_CTRL_TICKINT_Msk   |
                   SysTick_CTRL_ENABLE_Msk;                         /* Enable SysTick IRQ and SysTick Timer */
  return (0UL);                                                     /* Function successful */
 8000bb4:	2300      	movs	r3, #0
}
 8000bb6:	4618      	mov	r0, r3
 8000bb8:	3708      	adds	r7, #8
 8000bba:	46bd      	mov	sp, r7
 8000bbc:	bd80      	pop	{r7, pc}
 8000bbe:	bf00      	nop
 8000bc0:	e000e010 	.word	0xe000e010

08000bc4 <HAL_NVIC_SetPriorityGrouping>:
  * @note   When the NVIC_PriorityGroup_0 is selected, IRQ preemption is no more possible. 
  *         The pending IRQ priority will be managed only by the subpriority. 
  * @retval None
  */
void HAL_NVIC_SetPriorityGrouping(uint32_t PriorityGroup)
{
 8000bc4:	b580      	push	{r7, lr}
 8000bc6:	b082      	sub	sp, #8
 8000bc8:	af00      	add	r7, sp, #0
 8000bca:	6078      	str	r0, [r7, #4]
  /* Check the parameters */
  assert_param(IS_NVIC_PRIORITY_GROUP(PriorityGroup));
  
  /* Set the PRIGROUP[10:8] bits according to the PriorityGroup parameter value */
  NVIC_SetPriorityGrouping(PriorityGroup);
 8000bcc:	6878      	ldr	r0, [r7, #4]
 8000bce:	f7ff ff47 	bl	8000a60 <__NVIC_SetPriorityGrouping>
}
 8000bd2:	bf00      	nop
 8000bd4:	3708      	adds	r7, #8
 8000bd6:	46bd      	mov	sp, r7
 8000bd8:	bd80      	pop	{r7, pc}

08000bda <HAL_NVIC_SetPriority>:
  *         This parameter can be a value between 0 and 15
  *         A lower priority value indicates a higher priority.          
  * @retval None
  */
void HAL_NVIC_SetPriority(IRQn_Type IRQn, uint32_t PreemptPriority, uint32_t SubPriority)
{ 
 8000bda:	b580      	push	{r7, lr}
 8000bdc:	b086      	sub	sp, #24
 8000bde:	af00      	add	r7, sp, #0
 8000be0:	4603      	mov	r3, r0
 8000be2:	60b9      	str	r1, [r7, #8]
 8000be4:	607a      	str	r2, [r7, #4]
 8000be6:	73fb      	strb	r3, [r7, #15]
  uint32_t prioritygroup = 0x00U;
 8000be8:	2300      	movs	r3, #0
 8000bea:	617b      	str	r3, [r7, #20]
  
  /* Check the parameters */
  assert_param(IS_NVIC_SUB_PRIORITY(SubPriority));
  assert_param(IS_NVIC_PREEMPTION_PRIORITY(PreemptPriority));
  
  prioritygroup = NVIC_GetPriorityGrouping();
 8000bec:	f7ff ff5c 	bl	8000aa8 <__NVIC_GetPriorityGrouping>
 8000bf0:	6178      	str	r0, [r7, #20]
  
  NVIC_SetPriority(IRQn, NVIC_EncodePriority(prioritygroup, PreemptPriority, SubPriority));
 8000bf2:	687a      	ldr	r2, [r7, #4]
 8000bf4:	68b9      	ldr	r1, [r7, #8]
 8000bf6:	6978      	ldr	r0, [r7, #20]
 8000bf8:	f7ff ff8e 	bl	8000b18 <NVIC_EncodePriority>
 8000bfc:	4602      	mov	r2, r0
 8000bfe:	f997 300f 	ldrsb.w	r3, [r7, #15]
 8000c02:	4611      	mov	r1, r2
 8000c04:	4618      	mov	r0, r3
 8000c06:	f7ff ff5d 	bl	8000ac4 <__NVIC_SetPriority>
}
 8000c0a:	bf00      	nop
 8000c0c:	3718      	adds	r7, #24
 8000c0e:	46bd      	mov	sp, r7
 8000c10:	bd80      	pop	{r7, pc}

08000c12 <HAL_SYSTICK_Config>:
  * @param  TicksNumb Specifies the ticks Number of ticks between two interrupts.
  * @retval status:  - 0  Function succeeded.
  *                  - 1  Function failed.
  */
uint32_t HAL_SYSTICK_Config(uint32_t TicksNumb)
{
 8000c12:	b580      	push	{r7, lr}
 8000c14:	b082      	sub	sp, #8
 8000c16:	af00      	add	r7, sp, #0
 8000c18:	6078      	str	r0, [r7, #4]
   return SysTick_Config(TicksNumb);
 8000c1a:	6878      	ldr	r0, [r7, #4]
 8000c1c:	f7ff ffb0 	bl	8000b80 <SysTick_Config>
 8000c20:	4603      	mov	r3, r0
}
 8000c22:	4618      	mov	r0, r3
 8000c24:	3708      	adds	r7, #8
 8000c26:	46bd      	mov	sp, r7
 8000c28:	bd80      	pop	{r7, pc}
	...

08000c2c <HAL_GPIO_Init>:
  * @param  GPIO_Init pointer to a GPIO_InitTypeDef structure that contains
  *         the configuration information for the specified GPIO peripheral.
  * @retval None
  */
void HAL_GPIO_Init(GPIO_TypeDef  *GPIOx, GPIO_InitTypeDef *GPIO_Init)
{
 8000c2c:	b480      	push	{r7}
 8000c2e:	b089      	sub	sp, #36	; 0x24
 8000c30:	af00      	add	r7, sp, #0
 8000c32:	6078      	str	r0, [r7, #4]
 8000c34:	6039      	str	r1, [r7, #0]
  uint32_t position;
  uint32_t ioposition = 0x00U;
 8000c36:	2300      	movs	r3, #0
 8000c38:	617b      	str	r3, [r7, #20]
  uint32_t iocurrent = 0x00U;
 8000c3a:	2300      	movs	r3, #0
 8000c3c:	613b      	str	r3, [r7, #16]
  uint32_t temp = 0x00U;
 8000c3e:	2300      	movs	r3, #0
 8000c40:	61bb      	str	r3, [r7, #24]
  assert_param(IS_GPIO_ALL_INSTANCE(GPIOx));
  assert_param(IS_GPIO_PIN(GPIO_Init->Pin));
  assert_param(IS_GPIO_MODE(GPIO_Init->Mode));

  /* Configure the port pins */
  for(position = 0U; position < GPIO_NUMBER; position++)
 8000c42:	2300      	movs	r3, #0
 8000c44:	61fb      	str	r3, [r7, #28]
 8000c46:	e177      	b.n	8000f38 <HAL_GPIO_Init+0x30c>
  {
    /* Get the IO position */
    ioposition = 0x01U << position;
 8000c48:	2201      	movs	r2, #1
 8000c4a:	69fb      	ldr	r3, [r7, #28]
 8000c4c:	fa02 f303 	lsl.w	r3, r2, r3
 8000c50:	617b      	str	r3, [r7, #20]
    /* Get the current IO position */
    iocurrent = (uint32_t)(GPIO_Init->Pin) & ioposition;
 8000c52:	683b      	ldr	r3, [r7, #0]
 8000c54:	681b      	ldr	r3, [r3, #0]
 8000c56:	697a      	ldr	r2, [r7, #20]
 8000c58:	4013      	ands	r3, r2
 8000c5a:	613b      	str	r3, [r7, #16]

    if(iocurrent == ioposition)
 8000c5c:	693a      	ldr	r2, [r7, #16]
 8000c5e:	697b      	ldr	r3, [r7, #20]
 8000c60:	429a      	cmp	r2, r3
 8000c62:	f040 8166 	bne.w	8000f32 <HAL_GPIO_Init+0x306>
    {
      /*--------------------- GPIO Mode Configuration ------------------------*/
      /* In case of Output or Alternate function mode selection */
      if(((GPIO_Init->Mode & GPIO_MODE) == MODE_OUTPUT) || \
 8000c66:	683b      	ldr	r3, [r7, #0]
 8000c68:	685b      	ldr	r3, [r3, #4]
 8000c6a:	f003 0303 	and.w	r3, r3, #3
 8000c6e:	2b01      	cmp	r3, #1
 8000c70:	d005      	beq.n	8000c7e <HAL_GPIO_Init+0x52>
          (GPIO_Init->Mode & GPIO_MODE) == MODE_AF)
 8000c72:	683b      	ldr	r3, [r7, #0]
 8000c74:	685b      	ldr	r3, [r3, #4]
 8000c76:	f003 0303 	and.w	r3, r3, #3
      if(((GPIO_Init->Mode & GPIO_MODE) == MODE_OUTPUT) || \
 8000c7a:	2b02      	cmp	r3, #2
 8000c7c:	d130      	bne.n	8000ce0 <HAL_GPIO_Init+0xb4>
      {
        /* Check the Speed parameter */
        assert_param(IS_GPIO_SPEED(GPIO_Init->Speed));
        /* Configure the IO Speed */
        temp = GPIOx->OSPEEDR; 
 8000c7e:	687b      	ldr	r3, [r7, #4]
 8000c80:	689b      	ldr	r3, [r3, #8]
 8000c82:	61bb      	str	r3, [r7, #24]
        temp &= ~(GPIO_OSPEEDER_OSPEEDR0 << (position * 2U));
 8000c84:	69fb      	ldr	r3, [r7, #28]
 8000c86:	005b      	lsls	r3, r3, #1
 8000c88:	2203      	movs	r2, #3
 8000c8a:	fa02 f303 	lsl.w	r3, r2, r3
 8000c8e:	43db      	mvns	r3, r3
 8000c90:	69ba      	ldr	r2, [r7, #24]
 8000c92:	4013      	ands	r3, r2
 8000c94:	61bb      	str	r3, [r7, #24]
        temp |= (GPIO_Init->Speed << (position * 2U));
 8000c96:	683b      	ldr	r3, [r7, #0]
 8000c98:	68da      	ldr	r2, [r3, #12]
 8000c9a:	69fb      	ldr	r3, [r7, #28]
 8000c9c:	005b      	lsls	r3, r3, #1
 8000c9e:	fa02 f303 	lsl.w	r3, r2, r3
 8000ca2:	69ba      	ldr	r2, [r7, #24]
 8000ca4:	4313      	orrs	r3, r2
 8000ca6:	61bb      	str	r3, [r7, #24]
        GPIOx->OSPEEDR = temp;
 8000ca8:	687b      	ldr	r3, [r7, #4]
 8000caa:	69ba      	ldr	r2, [r7, #24]
 8000cac:	609a      	str	r2, [r3, #8]

        /* Configure the IO Output Type */
        temp = GPIOx->OTYPER;
 8000cae:	687b      	ldr	r3, [r7, #4]
 8000cb0:	685b      	ldr	r3, [r3, #4]
 8000cb2:	61bb      	str	r3, [r7, #24]
        temp &= ~(GPIO_OTYPER_OT_0 << position) ;
 8000cb4:	2201      	movs	r2, #1
 8000cb6:	69fb      	ldr	r3, [r7, #28]
 8000cb8:	fa02 f303 	lsl.w	r3, r2, r3
 8000cbc:	43db      	mvns	r3, r3
 8000cbe:	69ba      	ldr	r2, [r7, #24]
 8000cc0:	4013      	ands	r3, r2
 8000cc2:	61bb      	str	r3, [r7, #24]
        temp |= (((GPIO_Init->Mode & OUTPUT_TYPE) >> OUTPUT_TYPE_Pos) << position);
 8000cc4:	683b      	ldr	r3, [r7, #0]
 8000cc6:	685b      	ldr	r3, [r3, #4]
 8000cc8:	091b      	lsrs	r3, r3, #4
 8000cca:	f003 0201 	and.w	r2, r3, #1
 8000cce:	69fb      	ldr	r3, [r7, #28]
 8000cd0:	fa02 f303 	lsl.w	r3, r2, r3
 8000cd4:	69ba      	ldr	r2, [r7, #24]
 8000cd6:	4313      	orrs	r3, r2
 8000cd8:	61bb      	str	r3, [r7, #24]
        GPIOx->OTYPER = temp;
 8000cda:	687b      	ldr	r3, [r7, #4]
 8000cdc:	69ba      	ldr	r2, [r7, #24]
 8000cde:	605a      	str	r2, [r3, #4]
       }

      if((GPIO_Init->Mode & GPIO_MODE) != MODE_ANALOG)
 8000ce0:	683b      	ldr	r3, [r7, #0]
 8000ce2:	685b      	ldr	r3, [r3, #4]
 8000ce4:	f003 0303 	and.w	r3, r3, #3
 8000ce8:	2b03      	cmp	r3, #3
 8000cea:	d017      	beq.n	8000d1c <HAL_GPIO_Init+0xf0>
      {
        /* Check the parameters */
        assert_param(IS_GPIO_PULL(GPIO_Init->Pull));
        
        /* Activate the Pull-up or Pull down resistor for the current IO */
        temp = GPIOx->PUPDR;
 8000cec:	687b      	ldr	r3, [r7, #4]
 8000cee:	68db      	ldr	r3, [r3, #12]
 8000cf0:	61bb      	str	r3, [r7, #24]
        temp &= ~(GPIO_PUPDR_PUPDR0 << (position * 2U));
 8000cf2:	69fb      	ldr	r3, [r7, #28]
 8000cf4:	005b      	lsls	r3, r3, #1
 8000cf6:	2203      	movs	r2, #3
 8000cf8:	fa02 f303 	lsl.w	r3, r2, r3
 8000cfc:	43db      	mvns	r3, r3
 8000cfe:	69ba      	ldr	r2, [r7, #24]
 8000d00:	4013      	ands	r3, r2
 8000d02:	61bb      	str	r3, [r7, #24]
        temp |= ((GPIO_Init->Pull) << (position * 2U));
 8000d04:	683b      	ldr	r3, [r7, #0]
 8000d06:	689a      	ldr	r2, [r3, #8]
 8000d08:	69fb      	ldr	r3, [r7, #28]
 8000d0a:	005b      	lsls	r3, r3, #1
 8000d0c:	fa02 f303 	lsl.w	r3, r2, r3
 8000d10:	69ba      	ldr	r2, [r7, #24]
 8000d12:	4313      	orrs	r3, r2
 8000d14:	61bb      	str	r3, [r7, #24]
        GPIOx->PUPDR = temp;
 8000d16:	687b      	ldr	r3, [r7, #4]
 8000d18:	69ba      	ldr	r2, [r7, #24]
 8000d1a:	60da      	str	r2, [r3, #12]
      }

      /* In case of Alternate function mode selection */
      if((GPIO_Init->Mode & GPIO_MODE) == MODE_AF)
 8000d1c:	683b      	ldr	r3, [r7, #0]
 8000d1e:	685b      	ldr	r3, [r3, #4]
 8000d20:	f003 0303 	and.w	r3, r3, #3
 8000d24:	2b02      	cmp	r3, #2
 8000d26:	d123      	bne.n	8000d70 <HAL_GPIO_Init+0x144>
      {
        /* Check the Alternate function parameter */
        assert_param(IS_GPIO_AF(GPIO_Init->Alternate));
        /* Configure Alternate function mapped with the current IO */
        temp = GPIOx->AFR[position >> 3U];
 8000d28:	69fb      	ldr	r3, [r7, #28]
 8000d2a:	08da      	lsrs	r2, r3, #3
 8000d2c:	687b      	ldr	r3, [r7, #4]
 8000d2e:	3208      	adds	r2, #8
 8000d30:	f853 3022 	ldr.w	r3, [r3, r2, lsl #2]
 8000d34:	61bb      	str	r3, [r7, #24]
        temp &= ~(0xFU << ((uint32_t)(position & 0x07U) * 4U)) ;
 8000d36:	69fb      	ldr	r3, [r7, #28]
 8000d38:	f003 0307 	and.w	r3, r3, #7
 8000d3c:	009b      	lsls	r3, r3, #2
 8000d3e:	220f      	movs	r2, #15
 8000d40:	fa02 f303 	lsl.w	r3, r2, r3
 8000d44:	43db      	mvns	r3, r3
 8000d46:	69ba      	ldr	r2, [r7, #24]
 8000d48:	4013      	ands	r3, r2
 8000d4a:	61bb      	str	r3, [r7, #24]
        temp |= ((uint32_t)(GPIO_Init->Alternate) << (((uint32_t)position & 0x07U) * 4U));
 8000d4c:	683b      	ldr	r3, [r7, #0]
 8000d4e:	691a      	ldr	r2, [r3, #16]
 8000d50:	69fb      	ldr	r3, [r7, #28]
 8000d52:	f003 0307 	and.w	r3, r3, #7
 8000d56:	009b      	lsls	r3, r3, #2
 8000d58:	fa02 f303 	lsl.w	r3, r2, r3
 8000d5c:	69ba      	ldr	r2, [r7, #24]
 8000d5e:	4313      	orrs	r3, r2
 8000d60:	61bb      	str	r3, [r7, #24]
        GPIOx->AFR[position >> 3U] = temp;
 8000d62:	69fb      	ldr	r3, [r7, #28]
 8000d64:	08da      	lsrs	r2, r3, #3
 8000d66:	687b      	ldr	r3, [r7, #4]
 8000d68:	3208      	adds	r2, #8
 8000d6a:	69b9      	ldr	r1, [r7, #24]
 8000d6c:	f843 1022 	str.w	r1, [r3, r2, lsl #2]
      }

      /* Configure IO Direction mode (Input, Output, Alternate or Analog) */
      temp = GPIOx->MODER;
 8000d70:	687b      	ldr	r3, [r7, #4]
 8000d72:	681b      	ldr	r3, [r3, #0]
 8000d74:	61bb      	str	r3, [r7, #24]
      temp &= ~(GPIO_MODER_MODER0 << (position * 2U));
 8000d76:	69fb      	ldr	r3, [r7, #28]
 8000d78:	005b      	lsls	r3, r3, #1
 8000d7a:	2203      	movs	r2, #3
 8000d7c:	fa02 f303 	lsl.w	r3, r2, r3
 8000d80:	43db      	mvns	r3, r3
 8000d82:	69ba      	ldr	r2, [r7, #24]
 8000d84:	4013      	ands	r3, r2
 8000d86:	61bb      	str	r3, [r7, #24]
      temp |= ((GPIO_Init->Mode & GPIO_MODE) << (position * 2U));
 8000d88:	683b      	ldr	r3, [r7, #0]
 8000d8a:	685b      	ldr	r3, [r3, #4]
 8000d8c:	f003 0203 	and.w	r2, r3, #3
 8000d90:	69fb      	ldr	r3, [r7, #28]
 8000d92:	005b      	lsls	r3, r3, #1
 8000d94:	fa02 f303 	lsl.w	r3, r2, r3
 8000d98:	69ba      	ldr	r2, [r7, #24]
 8000d9a:	4313      	orrs	r3, r2
 8000d9c:	61bb      	str	r3, [r7, #24]
      GPIOx->MODER = temp;
 8000d9e:	687b      	ldr	r3, [r7, #4]
 8000da0:	69ba      	ldr	r2, [r7, #24]
 8000da2:	601a      	str	r2, [r3, #0]

      /*--------------------- EXTI Mode Configuration ------------------------*/
      /* Configure the External Interrupt or event for the current IO */
      if((GPIO_Init->Mode & EXTI_MODE) != 0x00U)
 8000da4:	683b      	ldr	r3, [r7, #0]
 8000da6:	685b      	ldr	r3, [r3, #4]
 8000da8:	f403 3340 	and.w	r3, r3, #196608	; 0x30000
 8000dac:	2b00      	cmp	r3, #0
 8000dae:	f000 80c0 	beq.w	8000f32 <HAL_GPIO_Init+0x306>
      {
        /* Enable SYSCFG Clock */
        __HAL_RCC_SYSCFG_CLK_ENABLE();
 8000db2:	2300      	movs	r3, #0
 8000db4:	60fb      	str	r3, [r7, #12]
 8000db6:	4b66      	ldr	r3, [pc, #408]	; (8000f50 <HAL_GPIO_Init+0x324>)
 8000db8:	6c5b      	ldr	r3, [r3, #68]	; 0x44
 8000dba:	4a65      	ldr	r2, [pc, #404]	; (8000f50 <HAL_GPIO_Init+0x324>)
 8000dbc:	f443 4380 	orr.w	r3, r3, #16384	; 0x4000
 8000dc0:	6453      	str	r3, [r2, #68]	; 0x44
 8000dc2:	4b63      	ldr	r3, [pc, #396]	; (8000f50 <HAL_GPIO_Init+0x324>)
 8000dc4:	6c5b      	ldr	r3, [r3, #68]	; 0x44
 8000dc6:	f403 4380 	and.w	r3, r3, #16384	; 0x4000
 8000dca:	60fb      	str	r3, [r7, #12]
 8000dcc:	68fb      	ldr	r3, [r7, #12]

        temp = SYSCFG->EXTICR[position >> 2U];
 8000dce:	4a61      	ldr	r2, [pc, #388]	; (8000f54 <HAL_GPIO_Init+0x328>)
 8000dd0:	69fb      	ldr	r3, [r7, #28]
 8000dd2:	089b      	lsrs	r3, r3, #2
 8000dd4:	3302      	adds	r3, #2
 8000dd6:	f852 3023 	ldr.w	r3, [r2, r3, lsl #2]
 8000dda:	61bb      	str	r3, [r7, #24]
        temp &= ~(0x0FU << (4U * (position & 0x03U)));
 8000ddc:	69fb      	ldr	r3, [r7, #28]
 8000dde:	f003 0303 	and.w	r3, r3, #3
 8000de2:	009b      	lsls	r3, r3, #2
 8000de4:	220f      	movs	r2, #15
 8000de6:	fa02 f303 	lsl.w	r3, r2, r3
 8000dea:	43db      	mvns	r3, r3
 8000dec:	69ba      	ldr	r2, [r7, #24]
 8000dee:	4013      	ands	r3, r2
 8000df0:	61bb      	str	r3, [r7, #24]
        temp |= ((uint32_t)(GPIO_GET_INDEX(GPIOx)) << (4U * (position & 0x03U)));
 8000df2:	687b      	ldr	r3, [r7, #4]
 8000df4:	4a58      	ldr	r2, [pc, #352]	; (8000f58 <HAL_GPIO_Init+0x32c>)
 8000df6:	4293      	cmp	r3, r2
 8000df8:	d037      	beq.n	8000e6a <HAL_GPIO_Init+0x23e>
 8000dfa:	687b      	ldr	r3, [r7, #4]
 8000dfc:	4a57      	ldr	r2, [pc, #348]	; (8000f5c <HAL_GPIO_Init+0x330>)
 8000dfe:	4293      	cmp	r3, r2
 8000e00:	d031      	beq.n	8000e66 <HAL_GPIO_Init+0x23a>
 8000e02:	687b      	ldr	r3, [r7, #4]
 8000e04:	4a56      	ldr	r2, [pc, #344]	; (8000f60 <HAL_GPIO_Init+0x334>)
 8000e06:	4293      	cmp	r3, r2
 8000e08:	d02b      	beq.n	8000e62 <HAL_GPIO_Init+0x236>
 8000e0a:	687b      	ldr	r3, [r7, #4]
 8000e0c:	4a55      	ldr	r2, [pc, #340]	; (8000f64 <HAL_GPIO_Init+0x338>)
 8000e0e:	4293      	cmp	r3, r2
 8000e10:	d025      	beq.n	8000e5e <HAL_GPIO_Init+0x232>
 8000e12:	687b      	ldr	r3, [r7, #4]
 8000e14:	4a54      	ldr	r2, [pc, #336]	; (8000f68 <HAL_GPIO_Init+0x33c>)
 8000e16:	4293      	cmp	r3, r2
 8000e18:	d01f      	beq.n	8000e5a <HAL_GPIO_Init+0x22e>
 8000e1a:	687b      	ldr	r3, [r7, #4]
 8000e1c:	4a53      	ldr	r2, [pc, #332]	; (8000f6c <HAL_GPIO_Init+0x340>)
 8000e1e:	4293      	cmp	r3, r2
 8000e20:	d019      	beq.n	8000e56 <HAL_GPIO_Init+0x22a>
 8000e22:	687b      	ldr	r3, [r7, #4]
 8000e24:	4a52      	ldr	r2, [pc, #328]	; (8000f70 <HAL_GPIO_Init+0x344>)
 8000e26:	4293      	cmp	r3, r2
 8000e28:	d013      	beq.n	8000e52 <HAL_GPIO_Init+0x226>
 8000e2a:	687b      	ldr	r3, [r7, #4]
 8000e2c:	4a51      	ldr	r2, [pc, #324]	; (8000f74 <HAL_GPIO_Init+0x348>)
 8000e2e:	4293      	cmp	r3, r2
 8000e30:	d00d      	beq.n	8000e4e <HAL_GPIO_Init+0x222>
 8000e32:	687b      	ldr	r3, [r7, #4]
 8000e34:	4a50      	ldr	r2, [pc, #320]	; (8000f78 <HAL_GPIO_Init+0x34c>)
 8000e36:	4293      	cmp	r3, r2
 8000e38:	d007      	beq.n	8000e4a <HAL_GPIO_Init+0x21e>
 8000e3a:	687b      	ldr	r3, [r7, #4]
 8000e3c:	4a4f      	ldr	r2, [pc, #316]	; (8000f7c <HAL_GPIO_Init+0x350>)
 8000e3e:	4293      	cmp	r3, r2
 8000e40:	d101      	bne.n	8000e46 <HAL_GPIO_Init+0x21a>
 8000e42:	2309      	movs	r3, #9
 8000e44:	e012      	b.n	8000e6c <HAL_GPIO_Init+0x240>
 8000e46:	230a      	movs	r3, #10
 8000e48:	e010      	b.n	8000e6c <HAL_GPIO_Init+0x240>
 8000e4a:	2308      	movs	r3, #8
 8000e4c:	e00e      	b.n	8000e6c <HAL_GPIO_Init+0x240>
 8000e4e:	2307      	movs	r3, #7
 8000e50:	e00c      	b.n	8000e6c <HAL_GPIO_Init+0x240>
 8000e52:	2306      	movs	r3, #6
 8000e54:	e00a      	b.n	8000e6c <HAL_GPIO_Init+0x240>
 8000e56:	2305      	movs	r3, #5
 8000e58:	e008      	b.n	8000e6c <HAL_GPIO_Init+0x240>
 8000e5a:	2304      	movs	r3, #4
 8000e5c:	e006      	b.n	8000e6c <HAL_GPIO_Init+0x240>
 8000e5e:	2303      	movs	r3, #3
 8000e60:	e004      	b.n	8000e6c <HAL_GPIO_Init+0x240>
 8000e62:	2302      	movs	r3, #2
 8000e64:	e002      	b.n	8000e6c <HAL_GPIO_Init+0x240>
 8000e66:	2301      	movs	r3, #1
 8000e68:	e000      	b.n	8000e6c <HAL_GPIO_Init+0x240>
 8000e6a:	2300      	movs	r3, #0
 8000e6c:	69fa      	ldr	r2, [r7, #28]
 8000e6e:	f002 0203 	and.w	r2, r2, #3
 8000e72:	0092      	lsls	r2, r2, #2
 8000e74:	4093      	lsls	r3, r2
 8000e76:	69ba      	ldr	r2, [r7, #24]
 8000e78:	4313      	orrs	r3, r2
 8000e7a:	61bb      	str	r3, [r7, #24]
        SYSCFG->EXTICR[position >> 2U] = temp;
 8000e7c:	4935      	ldr	r1, [pc, #212]	; (8000f54 <HAL_GPIO_Init+0x328>)
 8000e7e:	69fb      	ldr	r3, [r7, #28]
 8000e80:	089b      	lsrs	r3, r3, #2
 8000e82:	3302      	adds	r3, #2
 8000e84:	69ba      	ldr	r2, [r7, #24]
 8000e86:	f841 2023 	str.w	r2, [r1, r3, lsl #2]

        /* Clear Rising Falling edge configuration */
        temp = EXTI->RTSR;
 8000e8a:	4b3d      	ldr	r3, [pc, #244]	; (8000f80 <HAL_GPIO_Init+0x354>)
 8000e8c:	689b      	ldr	r3, [r3, #8]
 8000e8e:	61bb      	str	r3, [r7, #24]
        temp &= ~((uint32_t)iocurrent);
 8000e90:	693b      	ldr	r3, [r7, #16]
 8000e92:	43db      	mvns	r3, r3
 8000e94:	69ba      	ldr	r2, [r7, #24]
 8000e96:	4013      	ands	r3, r2
 8000e98:	61bb      	str	r3, [r7, #24]
        if((GPIO_Init->Mode & TRIGGER_RISING) != 0x00U)
 8000e9a:	683b      	ldr	r3, [r7, #0]
 8000e9c:	685b      	ldr	r3, [r3, #4]
 8000e9e:	f403 1380 	and.w	r3, r3, #1048576	; 0x100000
 8000ea2:	2b00      	cmp	r3, #0
 8000ea4:	d003      	beq.n	8000eae <HAL_GPIO_Init+0x282>
        {
          temp |= iocurrent;
 8000ea6:	69ba      	ldr	r2, [r7, #24]
 8000ea8:	693b      	ldr	r3, [r7, #16]
 8000eaa:	4313      	orrs	r3, r2
 8000eac:	61bb      	str	r3, [r7, #24]
        }
        EXTI->RTSR = temp;
 8000eae:	4a34      	ldr	r2, [pc, #208]	; (8000f80 <HAL_GPIO_Init+0x354>)
 8000eb0:	69bb      	ldr	r3, [r7, #24]
 8000eb2:	6093      	str	r3, [r2, #8]

        temp = EXTI->FTSR;
 8000eb4:	4b32      	ldr	r3, [pc, #200]	; (8000f80 <HAL_GPIO_Init+0x354>)
 8000eb6:	68db      	ldr	r3, [r3, #12]
 8000eb8:	61bb      	str	r3, [r7, #24]
        temp &= ~((uint32_t)iocurrent);
 8000eba:	693b      	ldr	r3, [r7, #16]
 8000ebc:	43db      	mvns	r3, r3
 8000ebe:	69ba      	ldr	r2, [r7, #24]
 8000ec0:	4013      	ands	r3, r2
 8000ec2:	61bb      	str	r3, [r7, #24]
        if((GPIO_Init->Mode & TRIGGER_FALLING) != 0x00U)
 8000ec4:	683b      	ldr	r3, [r7, #0]
 8000ec6:	685b      	ldr	r3, [r3, #4]
 8000ec8:	f403 1300 	and.w	r3, r3, #2097152	; 0x200000
 8000ecc:	2b00      	cmp	r3, #0
 8000ece:	d003      	beq.n	8000ed8 <HAL_GPIO_Init+0x2ac>
        {
          temp |= iocurrent;
 8000ed0:	69ba      	ldr	r2, [r7, #24]
 8000ed2:	693b      	ldr	r3, [r7, #16]
 8000ed4:	4313      	orrs	r3, r2
 8000ed6:	61bb      	str	r3, [r7, #24]
        }
        EXTI->FTSR = temp;
 8000ed8:	4a29      	ldr	r2, [pc, #164]	; (8000f80 <HAL_GPIO_Init+0x354>)
 8000eda:	69bb      	ldr	r3, [r7, #24]
 8000edc:	60d3      	str	r3, [r2, #12]

        temp = EXTI->EMR;
 8000ede:	4b28      	ldr	r3, [pc, #160]	; (8000f80 <HAL_GPIO_Init+0x354>)
 8000ee0:	685b      	ldr	r3, [r3, #4]
 8000ee2:	61bb      	str	r3, [r7, #24]
        temp &= ~((uint32_t)iocurrent);
 8000ee4:	693b      	ldr	r3, [r7, #16]
 8000ee6:	43db      	mvns	r3, r3
 8000ee8:	69ba      	ldr	r2, [r7, #24]
 8000eea:	4013      	ands	r3, r2
 8000eec:	61bb      	str	r3, [r7, #24]
        if((GPIO_Init->Mode & EXTI_EVT) != 0x00U)
 8000eee:	683b      	ldr	r3, [r7, #0]
 8000ef0:	685b      	ldr	r3, [r3, #4]
 8000ef2:	f403 3300 	and.w	r3, r3, #131072	; 0x20000
 8000ef6:	2b00      	cmp	r3, #0
 8000ef8:	d003      	beq.n	8000f02 <HAL_GPIO_Init+0x2d6>
        {
          temp |= iocurrent;
 8000efa:	69ba      	ldr	r2, [r7, #24]
 8000efc:	693b      	ldr	r3, [r7, #16]
 8000efe:	4313      	orrs	r3, r2
 8000f00:	61bb      	str	r3, [r7, #24]
        }
        EXTI->EMR = temp;
 8000f02:	4a1f      	ldr	r2, [pc, #124]	; (8000f80 <HAL_GPIO_Init+0x354>)
 8000f04:	69bb      	ldr	r3, [r7, #24]
 8000f06:	6053      	str	r3, [r2, #4]

        /* Clear EXTI line configuration */
        temp = EXTI->IMR;
 8000f08:	4b1d      	ldr	r3, [pc, #116]	; (8000f80 <HAL_GPIO_Init+0x354>)
 8000f0a:	681b      	ldr	r3, [r3, #0]
 8000f0c:	61bb      	str	r3, [r7, #24]
        temp &= ~((uint32_t)iocurrent);
 8000f0e:	693b      	ldr	r3, [r7, #16]
 8000f10:	43db      	mvns	r3, r3
 8000f12:	69ba      	ldr	r2, [r7, #24]
 8000f14:	4013      	ands	r3, r2
 8000f16:	61bb      	str	r3, [r7, #24]
        if((GPIO_Init->Mode & EXTI_IT) != 0x00U)
 8000f18:	683b      	ldr	r3, [r7, #0]
 8000f1a:	685b      	ldr	r3, [r3, #4]
 8000f1c:	f403 3380 	and.w	r3, r3, #65536	; 0x10000
 8000f20:	2b00      	cmp	r3, #0
 8000f22:	d003      	beq.n	8000f2c <HAL_GPIO_Init+0x300>
        {
          temp |= iocurrent;
 8000f24:	69ba      	ldr	r2, [r7, #24]
 8000f26:	693b      	ldr	r3, [r7, #16]
 8000f28:	4313      	orrs	r3, r2
 8000f2a:	61bb      	str	r3, [r7, #24]
        }
        EXTI->IMR = temp;
 8000f2c:	4a14      	ldr	r2, [pc, #80]	; (8000f80 <HAL_GPIO_Init+0x354>)
 8000f2e:	69bb      	ldr	r3, [r7, #24]
 8000f30:	6013      	str	r3, [r2, #0]
  for(position = 0U; position < GPIO_NUMBER; position++)
 8000f32:	69fb      	ldr	r3, [r7, #28]
 8000f34:	3301      	adds	r3, #1
 8000f36:	61fb      	str	r3, [r7, #28]
 8000f38:	69fb      	ldr	r3, [r7, #28]
 8000f3a:	2b0f      	cmp	r3, #15
 8000f3c:	f67f ae84 	bls.w	8000c48 <HAL_GPIO_Init+0x1c>
      }
    }
  }
}
 8000f40:	bf00      	nop
 8000f42:	bf00      	nop
 8000f44:	3724      	adds	r7, #36	; 0x24
 8000f46:	46bd      	mov	sp, r7
 8000f48:	f85d 7b04 	ldr.w	r7, [sp], #4
 8000f4c:	4770      	bx	lr
 8000f4e:	bf00      	nop
 8000f50:	40023800 	.word	0x40023800
 8000f54:	40013800 	.word	0x40013800
 8000f58:	40020000 	.word	0x40020000
 8000f5c:	40020400 	.word	0x40020400
 8000f60:	40020800 	.word	0x40020800
 8000f64:	40020c00 	.word	0x40020c00
 8000f68:	40021000 	.word	0x40021000
 8000f6c:	40021400 	.word	0x40021400
 8000f70:	40021800 	.word	0x40021800
 8000f74:	40021c00 	.word	0x40021c00
 8000f78:	40022000 	.word	0x40022000
 8000f7c:	40022400 	.word	0x40022400
 8000f80:	40013c00 	.word	0x40013c00

08000f84 <HAL_GPIO_WritePin>:
  *            @arg GPIO_PIN_RESET: to clear the port pin
  *            @arg GPIO_PIN_SET: to set the port pin
  * @retval None
  */
void HAL_GPIO_WritePin(GPIO_TypeDef* GPIOx, uint16_t GPIO_Pin, GPIO_PinState PinState)
{
 8000f84:	b480      	push	{r7}
 8000f86:	b083      	sub	sp, #12
 8000f88:	af00      	add	r7, sp, #0
 8000f8a:	6078      	str	r0, [r7, #4]
 8000f8c:	460b      	mov	r3, r1
 8000f8e:	807b      	strh	r3, [r7, #2]
 8000f90:	4613      	mov	r3, r2
 8000f92:	707b      	strb	r3, [r7, #1]
  /* Check the parameters */
  assert_param(IS_GPIO_PIN(GPIO_Pin));
  assert_param(IS_GPIO_PIN_ACTION(PinState));

  if(PinState != GPIO_PIN_RESET)
 8000f94:	787b      	ldrb	r3, [r7, #1]
 8000f96:	2b00      	cmp	r3, #0
 8000f98:	d003      	beq.n	8000fa2 <HAL_GPIO_WritePin+0x1e>
  {
    GPIOx->BSRR = GPIO_Pin;
 8000f9a:	887a      	ldrh	r2, [r7, #2]
 8000f9c:	687b      	ldr	r3, [r7, #4]
 8000f9e:	619a      	str	r2, [r3, #24]
  }
  else
  {
    GPIOx->BSRR = (uint32_t)GPIO_Pin << 16U;
  }
}
 8000fa0:	e003      	b.n	8000faa <HAL_GPIO_WritePin+0x26>
    GPIOx->BSRR = (uint32_t)GPIO_Pin << 16U;
 8000fa2:	887b      	ldrh	r3, [r7, #2]
 8000fa4:	041a      	lsls	r2, r3, #16
 8000fa6:	687b      	ldr	r3, [r7, #4]
 8000fa8:	619a      	str	r2, [r3, #24]
}
 8000faa:	bf00      	nop
 8000fac:	370c      	adds	r7, #12
 8000fae:	46bd      	mov	sp, r7
 8000fb0:	f85d 7b04 	ldr.w	r7, [sp], #4
 8000fb4:	4770      	bx	lr

08000fb6 <HAL_GPIO_TogglePin>:
  *                      x can be (A..I) to select the GPIO peripheral for STM32F40XX and STM32F427X devices.
  * @param  GPIO_Pin Specifies the pins to be toggled.
  * @retval None
  */
void HAL_GPIO_TogglePin(GPIO_TypeDef* GPIOx, uint16_t GPIO_Pin)
{
 8000fb6:	b480      	push	{r7}
 8000fb8:	b085      	sub	sp, #20
 8000fba:	af00      	add	r7, sp, #0
 8000fbc:	6078      	str	r0, [r7, #4]
 8000fbe:	460b      	mov	r3, r1
 8000fc0:	807b      	strh	r3, [r7, #2]

  /* Check the parameters */
  assert_param(IS_GPIO_PIN(GPIO_Pin));

  /* get current Output Data Register value */
  odr = GPIOx->ODR;
 8000fc2:	687b      	ldr	r3, [r7, #4]
 8000fc4:	695b      	ldr	r3, [r3, #20]
 8000fc6:	60fb      	str	r3, [r7, #12]

  /* Set selected pins that were at low level, and reset ones that were high */
  GPIOx->BSRR = ((odr & GPIO_Pin) << GPIO_NUMBER) | (~odr & GPIO_Pin);
 8000fc8:	887a      	ldrh	r2, [r7, #2]
 8000fca:	68fb      	ldr	r3, [r7, #12]
 8000fcc:	4013      	ands	r3, r2
 8000fce:	041a      	lsls	r2, r3, #16
 8000fd0:	68fb      	ldr	r3, [r7, #12]
 8000fd2:	43d9      	mvns	r1, r3
 8000fd4:	887b      	ldrh	r3, [r7, #2]
 8000fd6:	400b      	ands	r3, r1
 8000fd8:	431a      	orrs	r2, r3
 8000fda:	687b      	ldr	r3, [r7, #4]
 8000fdc:	619a      	str	r2, [r3, #24]
}
 8000fde:	bf00      	nop
 8000fe0:	3714      	adds	r7, #20
 8000fe2:	46bd      	mov	sp, r7
 8000fe4:	f85d 7b04 	ldr.w	r7, [sp], #4
 8000fe8:	4770      	bx	lr
	...

08000fec <HAL_RCC_OscConfig>:
  *         supported by this API. User should request a transition to HSE Off
  *         first and then HSE On or HSE Bypass.
  * @retval HAL status
  */
__weak HAL_StatusTypeDef HAL_RCC_OscConfig(RCC_OscInitTypeDef  *RCC_OscInitStruct)
{
 8000fec:	b580      	push	{r7, lr}
 8000fee:	b086      	sub	sp, #24
 8000ff0:	af00      	add	r7, sp, #0
 8000ff2:	6078      	str	r0, [r7, #4]
  uint32_t tickstart, pll_config;

  /* Check Null pointer */
  if(RCC_OscInitStruct == NULL)
 8000ff4:	687b      	ldr	r3, [r7, #4]
 8000ff6:	2b00      	cmp	r3, #0
 8000ff8:	d101      	bne.n	8000ffe <HAL_RCC_OscConfig+0x12>
  {
    return HAL_ERROR;
 8000ffa:	2301      	movs	r3, #1
 8000ffc:	e267      	b.n	80014ce <HAL_RCC_OscConfig+0x4e2>
  }

  /* Check the parameters */
  assert_param(IS_RCC_OSCILLATORTYPE(RCC_OscInitStruct->OscillatorType));
  /*------------------------------- HSE Configuration ------------------------*/
  if(((RCC_OscInitStruct->OscillatorType) & RCC_OSCILLATORTYPE_HSE) == RCC_OSCILLATORTYPE_HSE)
 8000ffe:	687b      	ldr	r3, [r7, #4]
 8001000:	681b      	ldr	r3, [r3, #0]
 8001002:	f003 0301 	and.w	r3, r3, #1
 8001006:	2b00      	cmp	r3, #0
 8001008:	d075      	beq.n	80010f6 <HAL_RCC_OscConfig+0x10a>
  {
    /* Check the parameters */
    assert_param(IS_RCC_HSE(RCC_OscInitStruct->HSEState));
    /* When the HSE is used as system clock or clock source for PLL in these cases HSE will not disabled */
    if((__HAL_RCC_GET_SYSCLK_SOURCE() == RCC_CFGR_SWS_HSE) ||\
 800100a:	4b88      	ldr	r3, [pc, #544]	; (800122c <HAL_RCC_OscConfig+0x240>)
 800100c:	689b      	ldr	r3, [r3, #8]
 800100e:	f003 030c 	and.w	r3, r3, #12
 8001012:	2b04      	cmp	r3, #4
 8001014:	d00c      	beq.n	8001030 <HAL_RCC_OscConfig+0x44>
      ((__HAL_RCC_GET_SYSCLK_SOURCE() == RCC_CFGR_SWS_PLL) && ((RCC->PLLCFGR & RCC_PLLCFGR_PLLSRC) == RCC_PLLCFGR_PLLSRC_HSE)))
 8001016:	4b85      	ldr	r3, [pc, #532]	; (800122c <HAL_RCC_OscConfig+0x240>)
 8001018:	689b      	ldr	r3, [r3, #8]
 800101a:	f003 030c 	and.w	r3, r3, #12
    if((__HAL_RCC_GET_SYSCLK_SOURCE() == RCC_CFGR_SWS_HSE) ||\
 800101e:	2b08      	cmp	r3, #8
 8001020:	d112      	bne.n	8001048 <HAL_RCC_OscConfig+0x5c>
      ((__HAL_RCC_GET_SYSCLK_SOURCE() == RCC_CFGR_SWS_PLL) && ((RCC->PLLCFGR & RCC_PLLCFGR_PLLSRC) == RCC_PLLCFGR_PLLSRC_HSE)))
 8001022:	4b82      	ldr	r3, [pc, #520]	; (800122c <HAL_RCC_OscConfig+0x240>)
 8001024:	685b      	ldr	r3, [r3, #4]
 8001026:	f403 0380 	and.w	r3, r3, #4194304	; 0x400000
 800102a:	f5b3 0f80 	cmp.w	r3, #4194304	; 0x400000
 800102e:	d10b      	bne.n	8001048 <HAL_RCC_OscConfig+0x5c>
    {
      if((__HAL_RCC_GET_FLAG(RCC_FLAG_HSERDY) != RESET) && (RCC_OscInitStruct->HSEState == RCC_HSE_OFF))
 8001030:	4b7e      	ldr	r3, [pc, #504]	; (800122c <HAL_RCC_OscConfig+0x240>)
 8001032:	681b      	ldr	r3, [r3, #0]
 8001034:	f403 3300 	and.w	r3, r3, #131072	; 0x20000
 8001038:	2b00      	cmp	r3, #0
 800103a:	d05b      	beq.n	80010f4 <HAL_RCC_OscConfig+0x108>
 800103c:	687b      	ldr	r3, [r7, #4]
 800103e:	685b      	ldr	r3, [r3, #4]
 8001040:	2b00      	cmp	r3, #0
 8001042:	d157      	bne.n	80010f4 <HAL_RCC_OscConfig+0x108>
      {
        return HAL_ERROR;
 8001044:	2301      	movs	r3, #1
 8001046:	e242      	b.n	80014ce <HAL_RCC_OscConfig+0x4e2>
      }
    }
    else
    {
      /* Set the new HSE configuration ---------------------------------------*/
      __HAL_RCC_HSE_CONFIG(RCC_OscInitStruct->HSEState);
 8001048:	687b      	ldr	r3, [r7, #4]
 800104a:	685b      	ldr	r3, [r3, #4]
 800104c:	f5b3 3f80 	cmp.w	r3, #65536	; 0x10000
 8001050:	d106      	bne.n	8001060 <HAL_RCC_OscConfig+0x74>
 8001052:	4b76      	ldr	r3, [pc, #472]	; (800122c <HAL_RCC_OscConfig+0x240>)
 8001054:	681b      	ldr	r3, [r3, #0]
 8001056:	4a75      	ldr	r2, [pc, #468]	; (800122c <HAL_RCC_OscConfig+0x240>)
 8001058:	f443 3380 	orr.w	r3, r3, #65536	; 0x10000
 800105c:	6013      	str	r3, [r2, #0]
 800105e:	e01d      	b.n	800109c <HAL_RCC_OscConfig+0xb0>
 8001060:	687b      	ldr	r3, [r7, #4]
 8001062:	685b      	ldr	r3, [r3, #4]
 8001064:	f5b3 2fa0 	cmp.w	r3, #327680	; 0x50000
 8001068:	d10c      	bne.n	8001084 <HAL_RCC_OscConfig+0x98>
 800106a:	4b70      	ldr	r3, [pc, #448]	; (800122c <HAL_RCC_OscConfig+0x240>)
 800106c:	681b      	ldr	r3, [r3, #0]
 800106e:	4a6f      	ldr	r2, [pc, #444]	; (800122c <HAL_RCC_OscConfig+0x240>)
 8001070:	f443 2380 	orr.w	r3, r3, #262144	; 0x40000
 8001074:	6013      	str	r3, [r2, #0]
 8001076:	4b6d      	ldr	r3, [pc, #436]	; (800122c <HAL_RCC_OscConfig+0x240>)
 8001078:	681b      	ldr	r3, [r3, #0]
 800107a:	4a6c      	ldr	r2, [pc, #432]	; (800122c <HAL_RCC_OscConfig+0x240>)
 800107c:	f443 3380 	orr.w	r3, r3, #65536	; 0x10000
 8001080:	6013      	str	r3, [r2, #0]
 8001082:	e00b      	b.n	800109c <HAL_RCC_OscConfig+0xb0>
 8001084:	4b69      	ldr	r3, [pc, #420]	; (800122c <HAL_RCC_OscConfig+0x240>)
 8001086:	681b      	ldr	r3, [r3, #0]
 8001088:	4a68      	ldr	r2, [pc, #416]	; (800122c <HAL_RCC_OscConfig+0x240>)
 800108a:	f423 3380 	bic.w	r3, r3, #65536	; 0x10000
 800108e:	6013      	str	r3, [r2, #0]
 8001090:	4b66      	ldr	r3, [pc, #408]	; (800122c <HAL_RCC_OscConfig+0x240>)
 8001092:	681b      	ldr	r3, [r3, #0]
 8001094:	4a65      	ldr	r2, [pc, #404]	; (800122c <HAL_RCC_OscConfig+0x240>)
 8001096:	f423 2380 	bic.w	r3, r3, #262144	; 0x40000
 800109a:	6013      	str	r3, [r2, #0]

      /* Check the HSE State */
      if((RCC_OscInitStruct->HSEState) != RCC_HSE_OFF)
 800109c:	687b      	ldr	r3, [r7, #4]
 800109e:	685b      	ldr	r3, [r3, #4]
 80010a0:	2b00      	cmp	r3, #0
 80010a2:	d013      	beq.n	80010cc <HAL_RCC_OscConfig+0xe0>
      {
        /* Get Start Tick */
        tickstart = HAL_GetTick();
 80010a4:	f7ff fcd0 	bl	8000a48 <HAL_GetTick>
 80010a8:	6138      	str	r0, [r7, #16]

        /* Wait till HSE is ready */
        while(__HAL_RCC_GET_FLAG(RCC_FLAG_HSERDY) == RESET)
 80010aa:	e008      	b.n	80010be <HAL_RCC_OscConfig+0xd2>
        {
          if((HAL_GetTick() - tickstart ) > HSE_TIMEOUT_VALUE)
 80010ac:	f7ff fccc 	bl	8000a48 <HAL_GetTick>
 80010b0:	4602      	mov	r2, r0
 80010b2:	693b      	ldr	r3, [r7, #16]
 80010b4:	1ad3      	subs	r3, r2, r3
 80010b6:	2b64      	cmp	r3, #100	; 0x64
 80010b8:	d901      	bls.n	80010be <HAL_RCC_OscConfig+0xd2>
          {
            return HAL_TIMEOUT;
 80010ba:	2303      	movs	r3, #3
 80010bc:	e207      	b.n	80014ce <HAL_RCC_OscConfig+0x4e2>
        while(__HAL_RCC_GET_FLAG(RCC_FLAG_HSERDY) == RESET)
 80010be:	4b5b      	ldr	r3, [pc, #364]	; (800122c <HAL_RCC_OscConfig+0x240>)
 80010c0:	681b      	ldr	r3, [r3, #0]
 80010c2:	f403 3300 	and.w	r3, r3, #131072	; 0x20000
 80010c6:	2b00      	cmp	r3, #0
 80010c8:	d0f0      	beq.n	80010ac <HAL_RCC_OscConfig+0xc0>
 80010ca:	e014      	b.n	80010f6 <HAL_RCC_OscConfig+0x10a>
        }
      }
      else
      {
        /* Get Start Tick */
        tickstart = HAL_GetTick();
 80010cc:	f7ff fcbc 	bl	8000a48 <HAL_GetTick>
 80010d0:	6138      	str	r0, [r7, #16]

        /* Wait till HSE is bypassed or disabled */
        while(__HAL_RCC_GET_FLAG(RCC_FLAG_HSERDY) != RESET)
 80010d2:	e008      	b.n	80010e6 <HAL_RCC_OscConfig+0xfa>
        {
          if((HAL_GetTick() - tickstart ) > HSE_TIMEOUT_VALUE)
 80010d4:	f7ff fcb8 	bl	8000a48 <HAL_GetTick>
 80010d8:	4602      	mov	r2, r0
 80010da:	693b      	ldr	r3, [r7, #16]
 80010dc:	1ad3      	subs	r3, r2, r3
 80010de:	2b64      	cmp	r3, #100	; 0x64
 80010e0:	d901      	bls.n	80010e6 <HAL_RCC_OscConfig+0xfa>
          {
            return HAL_TIMEOUT;
 80010e2:	2303      	movs	r3, #3
 80010e4:	e1f3      	b.n	80014ce <HAL_RCC_OscConfig+0x4e2>
        while(__HAL_RCC_GET_FLAG(RCC_FLAG_HSERDY) != RESET)
 80010e6:	4b51      	ldr	r3, [pc, #324]	; (800122c <HAL_RCC_OscConfig+0x240>)
 80010e8:	681b      	ldr	r3, [r3, #0]
 80010ea:	f403 3300 	and.w	r3, r3, #131072	; 0x20000
 80010ee:	2b00      	cmp	r3, #0
 80010f0:	d1f0      	bne.n	80010d4 <HAL_RCC_OscConfig+0xe8>
 80010f2:	e000      	b.n	80010f6 <HAL_RCC_OscConfig+0x10a>
      if((__HAL_RCC_GET_FLAG(RCC_FLAG_HSERDY) != RESET) && (RCC_OscInitStruct->HSEState == RCC_HSE_OFF))
 80010f4:	bf00      	nop
        }
      }
    }
  }
  /*----------------------------- HSI Configuration --------------------------*/
  if(((RCC_OscInitStruct->OscillatorType) & RCC_OSCILLATORTYPE_HSI) == RCC_OSCILLATORTYPE_HSI)
 80010f6:	687b      	ldr	r3, [r7, #4]
 80010f8:	681b      	ldr	r3, [r3, #0]
 80010fa:	f003 0302 	and.w	r3, r3, #2
 80010fe:	2b00      	cmp	r3, #0
 8001100:	d063      	beq.n	80011ca <HAL_RCC_OscConfig+0x1de>
    /* Check the parameters */
    assert_param(IS_RCC_HSI(RCC_OscInitStruct->HSIState));
    assert_param(IS_RCC_CALIBRATION_VALUE(RCC_OscInitStruct->HSICalibrationValue));

    /* Check if HSI is used as system clock or as PLL source when PLL is selected as system clock */
    if((__HAL_RCC_GET_SYSCLK_SOURCE() == RCC_CFGR_SWS_HSI) ||\
 8001102:	4b4a      	ldr	r3, [pc, #296]	; (800122c <HAL_RCC_OscConfig+0x240>)
 8001104:	689b      	ldr	r3, [r3, #8]
 8001106:	f003 030c 	and.w	r3, r3, #12
 800110a:	2b00      	cmp	r3, #0
 800110c:	d00b      	beq.n	8001126 <HAL_RCC_OscConfig+0x13a>
      ((__HAL_RCC_GET_SYSCLK_SOURCE() == RCC_CFGR_SWS_PLL) && ((RCC->PLLCFGR & RCC_PLLCFGR_PLLSRC) == RCC_PLLCFGR_PLLSRC_HSI)))
 800110e:	4b47      	ldr	r3, [pc, #284]	; (800122c <HAL_RCC_OscConfig+0x240>)
 8001110:	689b      	ldr	r3, [r3, #8]
 8001112:	f003 030c 	and.w	r3, r3, #12
    if((__HAL_RCC_GET_SYSCLK_SOURCE() == RCC_CFGR_SWS_HSI) ||\
 8001116:	2b08      	cmp	r3, #8
 8001118:	d11c      	bne.n	8001154 <HAL_RCC_OscConfig+0x168>
      ((__HAL_RCC_GET_SYSCLK_SOURCE() == RCC_CFGR_SWS_PLL) && ((RCC->PLLCFGR & RCC_PLLCFGR_PLLSRC) == RCC_PLLCFGR_PLLSRC_HSI)))
 800111a:	4b44      	ldr	r3, [pc, #272]	; (800122c <HAL_RCC_OscConfig+0x240>)
 800111c:	685b      	ldr	r3, [r3, #4]
 800111e:	f403 0380 	and.w	r3, r3, #4194304	; 0x400000
 8001122:	2b00      	cmp	r3, #0
 8001124:	d116      	bne.n	8001154 <HAL_RCC_OscConfig+0x168>
    {
      /* When HSI is used as system clock it will not disabled */
      if((__HAL_RCC_GET_FLAG(RCC_FLAG_HSIRDY) != RESET) && (RCC_OscInitStruct->HSIState != RCC_HSI_ON))
 8001126:	4b41      	ldr	r3, [pc, #260]	; (800122c <HAL_RCC_OscConfig+0x240>)
 8001128:	681b      	ldr	r3, [r3, #0]
 800112a:	f003 0302 	and.w	r3, r3, #2
 800112e:	2b00      	cmp	r3, #0
 8001130:	d005      	beq.n	800113e <HAL_RCC_OscConfig+0x152>
 8001132:	687b      	ldr	r3, [r7, #4]
 8001134:	68db      	ldr	r3, [r3, #12]
 8001136:	2b01      	cmp	r3, #1
 8001138:	d001      	beq.n	800113e <HAL_RCC_OscConfig+0x152>
      {
        return HAL_ERROR;
 800113a:	2301      	movs	r3, #1
 800113c:	e1c7      	b.n	80014ce <HAL_RCC_OscConfig+0x4e2>
      }
      /* Otherwise, just the calibration is allowed */
      else
      {
        /* Adjusts the Internal High Speed oscillator (HSI) calibration value.*/
        __HAL_RCC_HSI_CALIBRATIONVALUE_ADJUST(RCC_OscInitStruct->HSICalibrationValue);
 800113e:	4b3b      	ldr	r3, [pc, #236]	; (800122c <HAL_RCC_OscConfig+0x240>)
 8001140:	681b      	ldr	r3, [r3, #0]
 8001142:	f023 02f8 	bic.w	r2, r3, #248	; 0xf8
 8001146:	687b      	ldr	r3, [r7, #4]
 8001148:	691b      	ldr	r3, [r3, #16]
 800114a:	00db      	lsls	r3, r3, #3
 800114c:	4937      	ldr	r1, [pc, #220]	; (800122c <HAL_RCC_OscConfig+0x240>)
 800114e:	4313      	orrs	r3, r2
 8001150:	600b      	str	r3, [r1, #0]
      if((__HAL_RCC_GET_FLAG(RCC_FLAG_HSIRDY) != RESET) && (RCC_OscInitStruct->HSIState != RCC_HSI_ON))
 8001152:	e03a      	b.n	80011ca <HAL_RCC_OscConfig+0x1de>
      }
    }
    else
    {
      /* Check the HSI State */
      if((RCC_OscInitStruct->HSIState)!= RCC_HSI_OFF)
 8001154:	687b      	ldr	r3, [r7, #4]
 8001156:	68db      	ldr	r3, [r3, #12]
 8001158:	2b00      	cmp	r3, #0
 800115a:	d020      	beq.n	800119e <HAL_RCC_OscConfig+0x1b2>
      {
        /* Enable the Internal High Speed oscillator (HSI). */
        __HAL_RCC_HSI_ENABLE();
 800115c:	4b34      	ldr	r3, [pc, #208]	; (8001230 <HAL_RCC_OscConfig+0x244>)
 800115e:	2201      	movs	r2, #1
 8001160:	601a      	str	r2, [r3, #0]

        /* Get Start Tick*/
        tickstart = HAL_GetTick();
 8001162:	f7ff fc71 	bl	8000a48 <HAL_GetTick>
 8001166:	6138      	str	r0, [r7, #16]

        /* Wait till HSI is ready */
        while(__HAL_RCC_GET_FLAG(RCC_FLAG_HSIRDY) == RESET)
 8001168:	e008      	b.n	800117c <HAL_RCC_OscConfig+0x190>
        {
          if((HAL_GetTick() - tickstart ) > HSI_TIMEOUT_VALUE)
 800116a:	f7ff fc6d 	bl	8000a48 <HAL_GetTick>
 800116e:	4602      	mov	r2, r0
 8001170:	693b      	ldr	r3, [r7, #16]
 8001172:	1ad3      	subs	r3, r2, r3
 8001174:	2b02      	cmp	r3, #2
 8001176:	d901      	bls.n	800117c <HAL_RCC_OscConfig+0x190>
          {
            return HAL_TIMEOUT;
 8001178:	2303      	movs	r3, #3
 800117a:	e1a8      	b.n	80014ce <HAL_RCC_OscConfig+0x4e2>
        while(__HAL_RCC_GET_FLAG(RCC_FLAG_HSIRDY) == RESET)
 800117c:	4b2b      	ldr	r3, [pc, #172]	; (800122c <HAL_RCC_OscConfig+0x240>)
 800117e:	681b      	ldr	r3, [r3, #0]
 8001180:	f003 0302 	and.w	r3, r3, #2
 8001184:	2b00      	cmp	r3, #0
 8001186:	d0f0      	beq.n	800116a <HAL_RCC_OscConfig+0x17e>
          }
        }

        /* Adjusts the Internal High Speed oscillator (HSI) calibration value. */
        __HAL_RCC_HSI_CALIBRATIONVALUE_ADJUST(RCC_OscInitStruct->HSICalibrationValue);
 8001188:	4b28      	ldr	r3, [pc, #160]	; (800122c <HAL_RCC_OscConfig+0x240>)
 800118a:	681b      	ldr	r3, [r3, #0]
 800118c:	f023 02f8 	bic.w	r2, r3, #248	; 0xf8
 8001190:	687b      	ldr	r3, [r7, #4]
 8001192:	691b      	ldr	r3, [r3, #16]
 8001194:	00db      	lsls	r3, r3, #3
 8001196:	4925      	ldr	r1, [pc, #148]	; (800122c <HAL_RCC_OscConfig+0x240>)
 8001198:	4313      	orrs	r3, r2
 800119a:	600b      	str	r3, [r1, #0]
 800119c:	e015      	b.n	80011ca <HAL_RCC_OscConfig+0x1de>
      }
      else
      {
        /* Disable the Internal High Speed oscillator (HSI). */
        __HAL_RCC_HSI_DISABLE();
 800119e:	4b24      	ldr	r3, [pc, #144]	; (8001230 <HAL_RCC_OscConfig+0x244>)
 80011a0:	2200      	movs	r2, #0
 80011a2:	601a      	str	r2, [r3, #0]

        /* Get Start Tick*/
        tickstart = HAL_GetTick();
 80011a4:	f7ff fc50 	bl	8000a48 <HAL_GetTick>
 80011a8:	6138      	str	r0, [r7, #16]

        /* Wait till HSI is ready */
        while(__HAL_RCC_GET_FLAG(RCC_FLAG_HSIRDY) != RESET)
 80011aa:	e008      	b.n	80011be <HAL_RCC_OscConfig+0x1d2>
        {
          if((HAL_GetTick() - tickstart ) > HSI_TIMEOUT_VALUE)
 80011ac:	f7ff fc4c 	bl	8000a48 <HAL_GetTick>
 80011b0:	4602      	mov	r2, r0
 80011b2:	693b      	ldr	r3, [r7, #16]
 80011b4:	1ad3      	subs	r3, r2, r3
 80011b6:	2b02      	cmp	r3, #2
 80011b8:	d901      	bls.n	80011be <HAL_RCC_OscConfig+0x1d2>
          {
            return HAL_TIMEOUT;
 80011ba:	2303      	movs	r3, #3
 80011bc:	e187      	b.n	80014ce <HAL_RCC_OscConfig+0x4e2>
        while(__HAL_RCC_GET_FLAG(RCC_FLAG_HSIRDY) != RESET)
 80011be:	4b1b      	ldr	r3, [pc, #108]	; (800122c <HAL_RCC_OscConfig+0x240>)
 80011c0:	681b      	ldr	r3, [r3, #0]
 80011c2:	f003 0302 	and.w	r3, r3, #2
 80011c6:	2b00      	cmp	r3, #0
 80011c8:	d1f0      	bne.n	80011ac <HAL_RCC_OscConfig+0x1c0>
        }
      }
    }
  }
  /*------------------------------ LSI Configuration -------------------------*/
  if(((RCC_OscInitStruct->OscillatorType) & RCC_OSCILLATORTYPE_LSI) == RCC_OSCILLATORTYPE_LSI)
 80011ca:	687b      	ldr	r3, [r7, #4]
 80011cc:	681b      	ldr	r3, [r3, #0]
 80011ce:	f003 0308 	and.w	r3, r3, #8
 80011d2:	2b00      	cmp	r3, #0
 80011d4:	d036      	beq.n	8001244 <HAL_RCC_OscConfig+0x258>
  {
    /* Check the parameters */
    assert_param(IS_RCC_LSI(RCC_OscInitStruct->LSIState));

    /* Check the LSI State */
    if((RCC_OscInitStruct->LSIState)!= RCC_LSI_OFF)
 80011d6:	687b      	ldr	r3, [r7, #4]
 80011d8:	695b      	ldr	r3, [r3, #20]
 80011da:	2b00      	cmp	r3, #0
 80011dc:	d016      	beq.n	800120c <HAL_RCC_OscConfig+0x220>
    {
      /* Enable the Internal Low Speed oscillator (LSI). */
      __HAL_RCC_LSI_ENABLE();
 80011de:	4b15      	ldr	r3, [pc, #84]	; (8001234 <HAL_RCC_OscConfig+0x248>)
 80011e0:	2201      	movs	r2, #1
 80011e2:	601a      	str	r2, [r3, #0]

      /* Get Start Tick*/
      tickstart = HAL_GetTick();
 80011e4:	f7ff fc30 	bl	8000a48 <HAL_GetTick>
 80011e8:	6138      	str	r0, [r7, #16]

      /* Wait till LSI is ready */
      while(__HAL_RCC_GET_FLAG(RCC_FLAG_LSIRDY) == RESET)
 80011ea:	e008      	b.n	80011fe <HAL_RCC_OscConfig+0x212>
      {
        if((HAL_GetTick() - tickstart ) > LSI_TIMEOUT_VALUE)
 80011ec:	f7ff fc2c 	bl	8000a48 <HAL_GetTick>
 80011f0:	4602      	mov	r2, r0
 80011f2:	693b      	ldr	r3, [r7, #16]
 80011f4:	1ad3      	subs	r3, r2, r3
 80011f6:	2b02      	cmp	r3, #2
 80011f8:	d901      	bls.n	80011fe <HAL_RCC_OscConfig+0x212>
        {
          return HAL_TIMEOUT;
 80011fa:	2303      	movs	r3, #3
 80011fc:	e167      	b.n	80014ce <HAL_RCC_OscConfig+0x4e2>
      while(__HAL_RCC_GET_FLAG(RCC_FLAG_LSIRDY) == RESET)
 80011fe:	4b0b      	ldr	r3, [pc, #44]	; (800122c <HAL_RCC_OscConfig+0x240>)
 8001200:	6f5b      	ldr	r3, [r3, #116]	; 0x74
 8001202:	f003 0302 	and.w	r3, r3, #2
 8001206:	2b00      	cmp	r3, #0
 8001208:	d0f0      	beq.n	80011ec <HAL_RCC_OscConfig+0x200>
 800120a:	e01b      	b.n	8001244 <HAL_RCC_OscConfig+0x258>
      }
    }
    else
    {
      /* Disable the Internal Low Speed oscillator (LSI). */
      __HAL_RCC_LSI_DISABLE();
 800120c:	4b09      	ldr	r3, [pc, #36]	; (8001234 <HAL_RCC_OscConfig+0x248>)
 800120e:	2200      	movs	r2, #0
 8001210:	601a      	str	r2, [r3, #0]

      /* Get Start Tick */
      tickstart = HAL_GetTick();
 8001212:	f7ff fc19 	bl	8000a48 <HAL_GetTick>
 8001216:	6138      	str	r0, [r7, #16]

      /* Wait till LSI is ready */
      while(__HAL_RCC_GET_FLAG(RCC_FLAG_LSIRDY) != RESET)
 8001218:	e00e      	b.n	8001238 <HAL_RCC_OscConfig+0x24c>
      {
        if((HAL_GetTick() - tickstart ) > LSI_TIMEOUT_VALUE)
 800121a:	f7ff fc15 	bl	8000a48 <HAL_GetTick>
 800121e:	4602      	mov	r2, r0
 8001220:	693b      	ldr	r3, [r7, #16]
 8001222:	1ad3      	subs	r3, r2, r3
 8001224:	2b02      	cmp	r3, #2
 8001226:	d907      	bls.n	8001238 <HAL_RCC_OscConfig+0x24c>
        {
          return HAL_TIMEOUT;
 8001228:	2303      	movs	r3, #3
 800122a:	e150      	b.n	80014ce <HAL_RCC_OscConfig+0x4e2>
 800122c:	40023800 	.word	0x40023800
 8001230:	42470000 	.word	0x42470000
 8001234:	42470e80 	.word	0x42470e80
      while(__HAL_RCC_GET_FLAG(RCC_FLAG_LSIRDY) != RESET)
 8001238:	4b88      	ldr	r3, [pc, #544]	; (800145c <HAL_RCC_OscConfig+0x470>)
 800123a:	6f5b      	ldr	r3, [r3, #116]	; 0x74
 800123c:	f003 0302 	and.w	r3, r3, #2
 8001240:	2b00      	cmp	r3, #0
 8001242:	d1ea      	bne.n	800121a <HAL_RCC_OscConfig+0x22e>
        }
      }
    }
  }
  /*------------------------------ LSE Configuration -------------------------*/
  if(((RCC_OscInitStruct->OscillatorType) & RCC_OSCILLATORTYPE_LSE) == RCC_OSCILLATORTYPE_LSE)
 8001244:	687b      	ldr	r3, [r7, #4]
 8001246:	681b      	ldr	r3, [r3, #0]
 8001248:	f003 0304 	and.w	r3, r3, #4
 800124c:	2b00      	cmp	r3, #0
 800124e:	f000 8097 	beq.w	8001380 <HAL_RCC_OscConfig+0x394>
  {
    FlagStatus       pwrclkchanged = RESET;
 8001252:	2300      	movs	r3, #0
 8001254:	75fb      	strb	r3, [r7, #23]
    /* Check the parameters */
    assert_param(IS_RCC_LSE(RCC_OscInitStruct->LSEState));

    /* Update LSE configuration in Backup Domain control register    */
    /* Requires to enable write access to Backup Domain of necessary */
    if(__HAL_RCC_PWR_IS_CLK_DISABLED())
 8001256:	4b81      	ldr	r3, [pc, #516]	; (800145c <HAL_RCC_OscConfig+0x470>)
 8001258:	6c1b      	ldr	r3, [r3, #64]	; 0x40
 800125a:	f003 5380 	and.w	r3, r3, #268435456	; 0x10000000
 800125e:	2b00      	cmp	r3, #0
 8001260:	d10f      	bne.n	8001282 <HAL_RCC_OscConfig+0x296>
    {
      __HAL_RCC_PWR_CLK_ENABLE();
 8001262:	2300      	movs	r3, #0
 8001264:	60bb      	str	r3, [r7, #8]
 8001266:	4b7d      	ldr	r3, [pc, #500]	; (800145c <HAL_RCC_OscConfig+0x470>)
 8001268:	6c1b      	ldr	r3, [r3, #64]	; 0x40
 800126a:	4a7c      	ldr	r2, [pc, #496]	; (800145c <HAL_RCC_OscConfig+0x470>)
 800126c:	f043 5380 	orr.w	r3, r3, #268435456	; 0x10000000
 8001270:	6413      	str	r3, [r2, #64]	; 0x40
 8001272:	4b7a      	ldr	r3, [pc, #488]	; (800145c <HAL_RCC_OscConfig+0x470>)
 8001274:	6c1b      	ldr	r3, [r3, #64]	; 0x40
 8001276:	f003 5380 	and.w	r3, r3, #268435456	; 0x10000000
 800127a:	60bb      	str	r3, [r7, #8]
 800127c:	68bb      	ldr	r3, [r7, #8]
      pwrclkchanged = SET;
 800127e:	2301      	movs	r3, #1
 8001280:	75fb      	strb	r3, [r7, #23]
    }

    if(HAL_IS_BIT_CLR(PWR->CR, PWR_CR_DBP))
 8001282:	4b77      	ldr	r3, [pc, #476]	; (8001460 <HAL_RCC_OscConfig+0x474>)
 8001284:	681b      	ldr	r3, [r3, #0]
 8001286:	f403 7380 	and.w	r3, r3, #256	; 0x100
 800128a:	2b00      	cmp	r3, #0
 800128c:	d118      	bne.n	80012c0 <HAL_RCC_OscConfig+0x2d4>
    {
      /* Enable write access to Backup domain */
      SET_BIT(PWR->CR, PWR_CR_DBP);
 800128e:	4b74      	ldr	r3, [pc, #464]	; (8001460 <HAL_RCC_OscConfig+0x474>)
 8001290:	681b      	ldr	r3, [r3, #0]
 8001292:	4a73      	ldr	r2, [pc, #460]	; (8001460 <HAL_RCC_OscConfig+0x474>)
 8001294:	f443 7380 	orr.w	r3, r3, #256	; 0x100
 8001298:	6013      	str	r3, [r2, #0]

      /* Wait for Backup domain Write protection disable */
      tickstart = HAL_GetTick();
 800129a:	f7ff fbd5 	bl	8000a48 <HAL_GetTick>
 800129e:	6138      	str	r0, [r7, #16]

      while(HAL_IS_BIT_CLR(PWR->CR, PWR_CR_DBP))
 80012a0:	e008      	b.n	80012b4 <HAL_RCC_OscConfig+0x2c8>
      {
        if((HAL_GetTick() - tickstart) > RCC_DBP_TIMEOUT_VALUE)
 80012a2:	f7ff fbd1 	bl	8000a48 <HAL_GetTick>
 80012a6:	4602      	mov	r2, r0
 80012a8:	693b      	ldr	r3, [r7, #16]
 80012aa:	1ad3      	subs	r3, r2, r3
 80012ac:	2b02      	cmp	r3, #2
 80012ae:	d901      	bls.n	80012b4 <HAL_RCC_OscConfig+0x2c8>
        {
          return HAL_TIMEOUT;
 80012b0:	2303      	movs	r3, #3
 80012b2:	e10c      	b.n	80014ce <HAL_RCC_OscConfig+0x4e2>
      while(HAL_IS_BIT_CLR(PWR->CR, PWR_CR_DBP))
 80012b4:	4b6a      	ldr	r3, [pc, #424]	; (8001460 <HAL_RCC_OscConfig+0x474>)
 80012b6:	681b      	ldr	r3, [r3, #0]
 80012b8:	f403 7380 	and.w	r3, r3, #256	; 0x100
 80012bc:	2b00      	cmp	r3, #0
 80012be:	d0f0      	beq.n	80012a2 <HAL_RCC_OscConfig+0x2b6>
        }
      }
    }

    /* Set the new LSE configuration -----------------------------------------*/
    __HAL_RCC_LSE_CONFIG(RCC_OscInitStruct->LSEState);
 80012c0:	687b      	ldr	r3, [r7, #4]
 80012c2:	689b      	ldr	r3, [r3, #8]
 80012c4:	2b01      	cmp	r3, #1
 80012c6:	d106      	bne.n	80012d6 <HAL_RCC_OscConfig+0x2ea>
 80012c8:	4b64      	ldr	r3, [pc, #400]	; (800145c <HAL_RCC_OscConfig+0x470>)
 80012ca:	6f1b      	ldr	r3, [r3, #112]	; 0x70
 80012cc:	4a63      	ldr	r2, [pc, #396]	; (800145c <HAL_RCC_OscConfig+0x470>)
 80012ce:	f043 0301 	orr.w	r3, r3, #1
 80012d2:	6713      	str	r3, [r2, #112]	; 0x70
 80012d4:	e01c      	b.n	8001310 <HAL_RCC_OscConfig+0x324>
 80012d6:	687b      	ldr	r3, [r7, #4]
 80012d8:	689b      	ldr	r3, [r3, #8]
 80012da:	2b05      	cmp	r3, #5
 80012dc:	d10c      	bne.n	80012f8 <HAL_RCC_OscConfig+0x30c>
 80012de:	4b5f      	ldr	r3, [pc, #380]	; (800145c <HAL_RCC_OscConfig+0x470>)
 80012e0:	6f1b      	ldr	r3, [r3, #112]	; 0x70
 80012e2:	4a5e      	ldr	r2, [pc, #376]	; (800145c <HAL_RCC_OscConfig+0x470>)
 80012e4:	f043 0304 	orr.w	r3, r3, #4
 80012e8:	6713      	str	r3, [r2, #112]	; 0x70
 80012ea:	4b5c      	ldr	r3, [pc, #368]	; (800145c <HAL_RCC_OscConfig+0x470>)
 80012ec:	6f1b      	ldr	r3, [r3, #112]	; 0x70
 80012ee:	4a5b      	ldr	r2, [pc, #364]	; (800145c <HAL_RCC_OscConfig+0x470>)
 80012f0:	f043 0301 	orr.w	r3, r3, #1
 80012f4:	6713      	str	r3, [r2, #112]	; 0x70
 80012f6:	e00b      	b.n	8001310 <HAL_RCC_OscConfig+0x324>
 80012f8:	4b58      	ldr	r3, [pc, #352]	; (800145c <HAL_RCC_OscConfig+0x470>)
 80012fa:	6f1b      	ldr	r3, [r3, #112]	; 0x70
 80012fc:	4a57      	ldr	r2, [pc, #348]	; (800145c <HAL_RCC_OscConfig+0x470>)
 80012fe:	f023 0301 	bic.w	r3, r3, #1
 8001302:	6713      	str	r3, [r2, #112]	; 0x70
 8001304:	4b55      	ldr	r3, [pc, #340]	; (800145c <HAL_RCC_OscConfig+0x470>)
 8001306:	6f1b      	ldr	r3, [r3, #112]	; 0x70
 8001308:	4a54      	ldr	r2, [pc, #336]	; (800145c <HAL_RCC_OscConfig+0x470>)
 800130a:	f023 0304 	bic.w	r3, r3, #4
 800130e:	6713      	str	r3, [r2, #112]	; 0x70
    /* Check the LSE State */
    if((RCC_OscInitStruct->LSEState) != RCC_LSE_OFF)
 8001310:	687b      	ldr	r3, [r7, #4]
 8001312:	689b      	ldr	r3, [r3, #8]
 8001314:	2b00      	cmp	r3, #0
 8001316:	d015      	beq.n	8001344 <HAL_RCC_OscConfig+0x358>
    {
      /* Get Start Tick*/
      tickstart = HAL_GetTick();
 8001318:	f7ff fb96 	bl	8000a48 <HAL_GetTick>
 800131c:	6138      	str	r0, [r7, #16]

      /* Wait till LSE is ready */
      while(__HAL_RCC_GET_FLAG(RCC_FLAG_LSERDY) == RESET)
 800131e:	e00a      	b.n	8001336 <HAL_RCC_OscConfig+0x34a>
      {
        if((HAL_GetTick() - tickstart ) > RCC_LSE_TIMEOUT_VALUE)
 8001320:	f7ff fb92 	bl	8000a48 <HAL_GetTick>
 8001324:	4602      	mov	r2, r0
 8001326:	693b      	ldr	r3, [r7, #16]
 8001328:	1ad3      	subs	r3, r2, r3
 800132a:	f241 3288 	movw	r2, #5000	; 0x1388
 800132e:	4293      	cmp	r3, r2
 8001330:	d901      	bls.n	8001336 <HAL_RCC_OscConfig+0x34a>
        {
          return HAL_TIMEOUT;
 8001332:	2303      	movs	r3, #3
 8001334:	e0cb      	b.n	80014ce <HAL_RCC_OscConfig+0x4e2>
      while(__HAL_RCC_GET_FLAG(RCC_FLAG_LSERDY) == RESET)
 8001336:	4b49      	ldr	r3, [pc, #292]	; (800145c <HAL_RCC_OscConfig+0x470>)
 8001338:	6f1b      	ldr	r3, [r3, #112]	; 0x70
 800133a:	f003 0302 	and.w	r3, r3, #2
 800133e:	2b00      	cmp	r3, #0
 8001340:	d0ee      	beq.n	8001320 <HAL_RCC_OscConfig+0x334>
 8001342:	e014      	b.n	800136e <HAL_RCC_OscConfig+0x382>
      }
    }
    else
    {
      /* Get Start Tick */
      tickstart = HAL_GetTick();
 8001344:	f7ff fb80 	bl	8000a48 <HAL_GetTick>
 8001348:	6138      	str	r0, [r7, #16]

      /* Wait till LSE is ready */
      while(__HAL_RCC_GET_FLAG(RCC_FLAG_LSERDY) != RESET)
 800134a:	e00a      	b.n	8001362 <HAL_RCC_OscConfig+0x376>
      {
        if((HAL_GetTick() - tickstart ) > RCC_LSE_TIMEOUT_VALUE)
 800134c:	f7ff fb7c 	bl	8000a48 <HAL_GetTick>
 8001350:	4602      	mov	r2, r0
 8001352:	693b      	ldr	r3, [r7, #16]
 8001354:	1ad3      	subs	r3, r2, r3
 8001356:	f241 3288 	movw	r2, #5000	; 0x1388
 800135a:	4293      	cmp	r3, r2
 800135c:	d901      	bls.n	8001362 <HAL_RCC_OscConfig+0x376>
        {
          return HAL_TIMEOUT;
 800135e:	2303      	movs	r3, #3
 8001360:	e0b5      	b.n	80014ce <HAL_RCC_OscConfig+0x4e2>
      while(__HAL_RCC_GET_FLAG(RCC_FLAG_LSERDY) != RESET)
 8001362:	4b3e      	ldr	r3, [pc, #248]	; (800145c <HAL_RCC_OscConfig+0x470>)
 8001364:	6f1b      	ldr	r3, [r3, #112]	; 0x70
 8001366:	f003 0302 	and.w	r3, r3, #2
 800136a:	2b00      	cmp	r3, #0
 800136c:	d1ee      	bne.n	800134c <HAL_RCC_OscConfig+0x360>
        }
      }
    }

    /* Restore clock configuration if changed */
    if(pwrclkchanged == SET)
 800136e:	7dfb      	ldrb	r3, [r7, #23]
 8001370:	2b01      	cmp	r3, #1
 8001372:	d105      	bne.n	8001380 <HAL_RCC_OscConfig+0x394>
    {
      __HAL_RCC_PWR_CLK_DISABLE();
 8001374:	4b39      	ldr	r3, [pc, #228]	; (800145c <HAL_RCC_OscConfig+0x470>)
 8001376:	6c1b      	ldr	r3, [r3, #64]	; 0x40
 8001378:	4a38      	ldr	r2, [pc, #224]	; (800145c <HAL_RCC_OscConfig+0x470>)
 800137a:	f023 5380 	bic.w	r3, r3, #268435456	; 0x10000000
 800137e:	6413      	str	r3, [r2, #64]	; 0x40
    }
  }
  /*-------------------------------- PLL Configuration -----------------------*/
  /* Check the parameters */
  assert_param(IS_RCC_PLL(RCC_OscInitStruct->PLL.PLLState));
  if ((RCC_OscInitStruct->PLL.PLLState) != RCC_PLL_NONE)
 8001380:	687b      	ldr	r3, [r7, #4]
 8001382:	699b      	ldr	r3, [r3, #24]
 8001384:	2b00      	cmp	r3, #0
 8001386:	f000 80a1 	beq.w	80014cc <HAL_RCC_OscConfig+0x4e0>
  {
    /* Check if the PLL is used as system clock or not */
    if(__HAL_RCC_GET_SYSCLK_SOURCE() != RCC_CFGR_SWS_PLL)
 800138a:	4b34      	ldr	r3, [pc, #208]	; (800145c <HAL_RCC_OscConfig+0x470>)
 800138c:	689b      	ldr	r3, [r3, #8]
 800138e:	f003 030c 	and.w	r3, r3, #12
 8001392:	2b08      	cmp	r3, #8
 8001394:	d05c      	beq.n	8001450 <HAL_RCC_OscConfig+0x464>
    {
      if((RCC_OscInitStruct->PLL.PLLState) == RCC_PLL_ON)
 8001396:	687b      	ldr	r3, [r7, #4]
 8001398:	699b      	ldr	r3, [r3, #24]
 800139a:	2b02      	cmp	r3, #2
 800139c:	d141      	bne.n	8001422 <HAL_RCC_OscConfig+0x436>
        assert_param(IS_RCC_PLLN_VALUE(RCC_OscInitStruct->PLL.PLLN));
        assert_param(IS_RCC_PLLP_VALUE(RCC_OscInitStruct->PLL.PLLP));
        assert_param(IS_RCC_PLLQ_VALUE(RCC_OscInitStruct->PLL.PLLQ));

        /* Disable the main PLL. */
        __HAL_RCC_PLL_DISABLE();
 800139e:	4b31      	ldr	r3, [pc, #196]	; (8001464 <HAL_RCC_OscConfig+0x478>)
 80013a0:	2200      	movs	r2, #0
 80013a2:	601a      	str	r2, [r3, #0]

        /* Get Start Tick */
        tickstart = HAL_GetTick();
 80013a4:	f7ff fb50 	bl	8000a48 <HAL_GetTick>
 80013a8:	6138      	str	r0, [r7, #16]

        /* Wait till PLL is ready */
        while(__HAL_RCC_GET_FLAG(RCC_FLAG_PLLRDY) != RESET)
 80013aa:	e008      	b.n	80013be <HAL_RCC_OscConfig+0x3d2>
        {
          if((HAL_GetTick() - tickstart ) > PLL_TIMEOUT_VALUE)
 80013ac:	f7ff fb4c 	bl	8000a48 <HAL_GetTick>
 80013b0:	4602      	mov	r2, r0
 80013b2:	693b      	ldr	r3, [r7, #16]
 80013b4:	1ad3      	subs	r3, r2, r3
 80013b6:	2b02      	cmp	r3, #2
 80013b8:	d901      	bls.n	80013be <HAL_RCC_OscConfig+0x3d2>
          {
            return HAL_TIMEOUT;
 80013ba:	2303      	movs	r3, #3
 80013bc:	e087      	b.n	80014ce <HAL_RCC_OscConfig+0x4e2>
        while(__HAL_RCC_GET_FLAG(RCC_FLAG_PLLRDY) != RESET)
 80013be:	4b27      	ldr	r3, [pc, #156]	; (800145c <HAL_RCC_OscConfig+0x470>)
 80013c0:	681b      	ldr	r3, [r3, #0]
 80013c2:	f003 7300 	and.w	r3, r3, #33554432	; 0x2000000
 80013c6:	2b00      	cmp	r3, #0
 80013c8:	d1f0      	bne.n	80013ac <HAL_RCC_OscConfig+0x3c0>
          }
        }

        /* Configure the main PLL clock source, multiplication and division factors. */
        WRITE_REG(RCC->PLLCFGR, (RCC_OscInitStruct->PLL.PLLSource                                            | \
 80013ca:	687b      	ldr	r3, [r7, #4]
 80013cc:	69da      	ldr	r2, [r3, #28]
 80013ce:	687b      	ldr	r3, [r7, #4]
 80013d0:	6a1b      	ldr	r3, [r3, #32]
 80013d2:	431a      	orrs	r2, r3
 80013d4:	687b      	ldr	r3, [r7, #4]
 80013d6:	6a5b      	ldr	r3, [r3, #36]	; 0x24
 80013d8:	019b      	lsls	r3, r3, #6
 80013da:	431a      	orrs	r2, r3
 80013dc:	687b      	ldr	r3, [r7, #4]
 80013de:	6a9b      	ldr	r3, [r3, #40]	; 0x28
 80013e0:	085b      	lsrs	r3, r3, #1
 80013e2:	3b01      	subs	r3, #1
 80013e4:	041b      	lsls	r3, r3, #16
 80013e6:	431a      	orrs	r2, r3
 80013e8:	687b      	ldr	r3, [r7, #4]
 80013ea:	6adb      	ldr	r3, [r3, #44]	; 0x2c
 80013ec:	061b      	lsls	r3, r3, #24
 80013ee:	491b      	ldr	r1, [pc, #108]	; (800145c <HAL_RCC_OscConfig+0x470>)
 80013f0:	4313      	orrs	r3, r2
 80013f2:	604b      	str	r3, [r1, #4]
                                 RCC_OscInitStruct->PLL.PLLM                                                 | \
                                 (RCC_OscInitStruct->PLL.PLLN << RCC_PLLCFGR_PLLN_Pos)             | \
                                 (((RCC_OscInitStruct->PLL.PLLP >> 1U) - 1U) << RCC_PLLCFGR_PLLP_Pos) | \
                                 (RCC_OscInitStruct->PLL.PLLQ << RCC_PLLCFGR_PLLQ_Pos)));
        /* Enable the main PLL. */
        __HAL_RCC_PLL_ENABLE();
 80013f4:	4b1b      	ldr	r3, [pc, #108]	; (8001464 <HAL_RCC_OscConfig+0x478>)
 80013f6:	2201      	movs	r2, #1
 80013f8:	601a      	str	r2, [r3, #0]

        /* Get Start Tick */
        tickstart = HAL_GetTick();
 80013fa:	f7ff fb25 	bl	8000a48 <HAL_GetTick>
 80013fe:	6138      	str	r0, [r7, #16]

        /* Wait till PLL is ready */
        while(__HAL_RCC_GET_FLAG(RCC_FLAG_PLLRDY) == RESET)
 8001400:	e008      	b.n	8001414 <HAL_RCC_OscConfig+0x428>
        {
          if((HAL_GetTick() - tickstart ) > PLL_TIMEOUT_VALUE)
 8001402:	f7ff fb21 	bl	8000a48 <HAL_GetTick>
 8001406:	4602      	mov	r2, r0
 8001408:	693b      	ldr	r3, [r7, #16]
 800140a:	1ad3      	subs	r3, r2, r3
 800140c:	2b02      	cmp	r3, #2
 800140e:	d901      	bls.n	8001414 <HAL_RCC_OscConfig+0x428>
          {
            return HAL_TIMEOUT;
 8001410:	2303      	movs	r3, #3
 8001412:	e05c      	b.n	80014ce <HAL_RCC_OscConfig+0x4e2>
        while(__HAL_RCC_GET_FLAG(RCC_FLAG_PLLRDY) == RESET)
 8001414:	4b11      	ldr	r3, [pc, #68]	; (800145c <HAL_RCC_OscConfig+0x470>)
 8001416:	681b      	ldr	r3, [r3, #0]
 8001418:	f003 7300 	and.w	r3, r3, #33554432	; 0x2000000
 800141c:	2b00      	cmp	r3, #0
 800141e:	d0f0      	beq.n	8001402 <HAL_RCC_OscConfig+0x416>
 8001420:	e054      	b.n	80014cc <HAL_RCC_OscConfig+0x4e0>
        }
      }
      else
      {
        /* Disable the main PLL. */
        __HAL_RCC_PLL_DISABLE();
 8001422:	4b10      	ldr	r3, [pc, #64]	; (8001464 <HAL_RCC_OscConfig+0x478>)
 8001424:	2200      	movs	r2, #0
 8001426:	601a      	str	r2, [r3, #0]

        /* Get Start Tick */
        tickstart = HAL_GetTick();
 8001428:	f7ff fb0e 	bl	8000a48 <HAL_GetTick>
 800142c:	6138      	str	r0, [r7, #16]

        /* Wait till PLL is ready */
        while(__HAL_RCC_GET_FLAG(RCC_FLAG_PLLRDY) != RESET)
 800142e:	e008      	b.n	8001442 <HAL_RCC_OscConfig+0x456>
        {
          if((HAL_GetTick() - tickstart ) > PLL_TIMEOUT_VALUE)
 8001430:	f7ff fb0a 	bl	8000a48 <HAL_GetTick>
 8001434:	4602      	mov	r2, r0
 8001436:	693b      	ldr	r3, [r7, #16]
 8001438:	1ad3      	subs	r3, r2, r3
 800143a:	2b02      	cmp	r3, #2
 800143c:	d901      	bls.n	8001442 <HAL_RCC_OscConfig+0x456>
          {
            return HAL_TIMEOUT;
 800143e:	2303      	movs	r3, #3
 8001440:	e045      	b.n	80014ce <HAL_RCC_OscConfig+0x4e2>
        while(__HAL_RCC_GET_FLAG(RCC_FLAG_PLLRDY) != RESET)
 8001442:	4b06      	ldr	r3, [pc, #24]	; (800145c <HAL_RCC_OscConfig+0x470>)
 8001444:	681b      	ldr	r3, [r3, #0]
 8001446:	f003 7300 	and.w	r3, r3, #33554432	; 0x2000000
 800144a:	2b00      	cmp	r3, #0
 800144c:	d1f0      	bne.n	8001430 <HAL_RCC_OscConfig+0x444>
 800144e:	e03d      	b.n	80014cc <HAL_RCC_OscConfig+0x4e0>
      }
    }
    else
    {
      /* Check if there is a request to disable the PLL used as System clock source */
      if((RCC_OscInitStruct->PLL.PLLState) == RCC_PLL_OFF)
 8001450:	687b      	ldr	r3, [r7, #4]
 8001452:	699b      	ldr	r3, [r3, #24]
 8001454:	2b01      	cmp	r3, #1
 8001456:	d107      	bne.n	8001468 <HAL_RCC_OscConfig+0x47c>
      {
        return HAL_ERROR;
 8001458:	2301      	movs	r3, #1
 800145a:	e038      	b.n	80014ce <HAL_RCC_OscConfig+0x4e2>
 800145c:	40023800 	.word	0x40023800
 8001460:	40007000 	.word	0x40007000
 8001464:	42470060 	.word	0x42470060
      }
      else
      {
        /* Do not return HAL_ERROR if request repeats the current configuration */
        pll_config = RCC->PLLCFGR;
 8001468:	4b1b      	ldr	r3, [pc, #108]	; (80014d8 <HAL_RCC_OscConfig+0x4ec>)
 800146a:	685b      	ldr	r3, [r3, #4]
 800146c:	60fb      	str	r3, [r7, #12]
            (READ_BIT(pll_config, RCC_PLLCFGR_PLLN) != (RCC_OscInitStruct->PLL.PLLN) << RCC_PLLCFGR_PLLN_Pos) ||
            (READ_BIT(pll_config, RCC_PLLCFGR_PLLP) != (((RCC_OscInitStruct->PLL.PLLP >> 1U) - 1U)) << RCC_PLLCFGR_PLLP_Pos) ||
            (READ_BIT(pll_config, RCC_PLLCFGR_PLLQ) != (RCC_OscInitStruct->PLL.PLLQ << RCC_PLLCFGR_PLLQ_Pos)) ||
            (READ_BIT(pll_config, RCC_PLLCFGR_PLLR) != (RCC_OscInitStruct->PLL.PLLR << RCC_PLLCFGR_PLLR_Pos)))
#else
        if (((RCC_OscInitStruct->PLL.PLLState) == RCC_PLL_OFF) ||
 800146e:	687b      	ldr	r3, [r7, #4]
 8001470:	699b      	ldr	r3, [r3, #24]
 8001472:	2b01      	cmp	r3, #1
 8001474:	d028      	beq.n	80014c8 <HAL_RCC_OscConfig+0x4dc>
            (READ_BIT(pll_config, RCC_PLLCFGR_PLLSRC) != RCC_OscInitStruct->PLL.PLLSource) ||
 8001476:	68fb      	ldr	r3, [r7, #12]
 8001478:	f403 0280 	and.w	r2, r3, #4194304	; 0x400000
 800147c:	687b      	ldr	r3, [r7, #4]
 800147e:	69db      	ldr	r3, [r3, #28]
        if (((RCC_OscInitStruct->PLL.PLLState) == RCC_PLL_OFF) ||
 8001480:	429a      	cmp	r2, r3
 8001482:	d121      	bne.n	80014c8 <HAL_RCC_OscConfig+0x4dc>
            (READ_BIT(pll_config, RCC_PLLCFGR_PLLM) != (RCC_OscInitStruct->PLL.PLLM) << RCC_PLLCFGR_PLLM_Pos) ||
 8001484:	68fb      	ldr	r3, [r7, #12]
 8001486:	f003 023f 	and.w	r2, r3, #63	; 0x3f
 800148a:	687b      	ldr	r3, [r7, #4]
 800148c:	6a1b      	ldr	r3, [r3, #32]
            (READ_BIT(pll_config, RCC_PLLCFGR_PLLSRC) != RCC_OscInitStruct->PLL.PLLSource) ||
 800148e:	429a      	cmp	r2, r3
 8001490:	d11a      	bne.n	80014c8 <HAL_RCC_OscConfig+0x4dc>
            (READ_BIT(pll_config, RCC_PLLCFGR_PLLN) != (RCC_OscInitStruct->PLL.PLLN) << RCC_PLLCFGR_PLLN_Pos) ||
 8001492:	68fa      	ldr	r2, [r7, #12]
 8001494:	f647 73c0 	movw	r3, #32704	; 0x7fc0
 8001498:	4013      	ands	r3, r2
 800149a:	687a      	ldr	r2, [r7, #4]
 800149c:	6a52      	ldr	r2, [r2, #36]	; 0x24
 800149e:	0192      	lsls	r2, r2, #6
            (READ_BIT(pll_config, RCC_PLLCFGR_PLLM) != (RCC_OscInitStruct->PLL.PLLM) << RCC_PLLCFGR_PLLM_Pos) ||
 80014a0:	4293      	cmp	r3, r2
 80014a2:	d111      	bne.n	80014c8 <HAL_RCC_OscConfig+0x4dc>
            (READ_BIT(pll_config, RCC_PLLCFGR_PLLP) != (((RCC_OscInitStruct->PLL.PLLP >> 1U) - 1U)) << RCC_PLLCFGR_PLLP_Pos) ||
 80014a4:	68fb      	ldr	r3, [r7, #12]
 80014a6:	f403 3240 	and.w	r2, r3, #196608	; 0x30000
 80014aa:	687b      	ldr	r3, [r7, #4]
 80014ac:	6a9b      	ldr	r3, [r3, #40]	; 0x28
 80014ae:	085b      	lsrs	r3, r3, #1
 80014b0:	3b01      	subs	r3, #1
 80014b2:	041b      	lsls	r3, r3, #16
            (READ_BIT(pll_config, RCC_PLLCFGR_PLLN) != (RCC_OscInitStruct->PLL.PLLN) << RCC_PLLCFGR_PLLN_Pos) ||
 80014b4:	429a      	cmp	r2, r3
 80014b6:	d107      	bne.n	80014c8 <HAL_RCC_OscConfig+0x4dc>
            (READ_BIT(pll_config, RCC_PLLCFGR_PLLQ) != (RCC_OscInitStruct->PLL.PLLQ << RCC_PLLCFGR_PLLQ_Pos)))
 80014b8:	68fb      	ldr	r3, [r7, #12]
 80014ba:	f003 6270 	and.w	r2, r3, #251658240	; 0xf000000
 80014be:	687b      	ldr	r3, [r7, #4]
 80014c0:	6adb      	ldr	r3, [r3, #44]	; 0x2c
 80014c2:	061b      	lsls	r3, r3, #24
            (READ_BIT(pll_config, RCC_PLLCFGR_PLLP) != (((RCC_OscInitStruct->PLL.PLLP >> 1U) - 1U)) << RCC_PLLCFGR_PLLP_Pos) ||
 80014c4:	429a      	cmp	r2, r3
 80014c6:	d001      	beq.n	80014cc <HAL_RCC_OscConfig+0x4e0>
#endif
        {
          return HAL_ERROR;
 80014c8:	2301      	movs	r3, #1
 80014ca:	e000      	b.n	80014ce <HAL_RCC_OscConfig+0x4e2>
        }
      }
    }
  }
  return HAL_OK;
 80014cc:	2300      	movs	r3, #0
}
 80014ce:	4618      	mov	r0, r3
 80014d0:	3718      	adds	r7, #24
 80014d2:	46bd      	mov	sp, r7
 80014d4:	bd80      	pop	{r7, pc}
 80014d6:	bf00      	nop
 80014d8:	40023800 	.word	0x40023800

080014dc <HAL_RCC_ClockConfig>:
  *         HPRE[3:0] bits to ensure that HCLK not exceed the maximum allowed frequency
  *         (for more details refer to section above "Initialization/de-initialization functions")
  * @retval None
  */
HAL_StatusTypeDef HAL_RCC_ClockConfig(RCC_ClkInitTypeDef  *RCC_ClkInitStruct, uint32_t FLatency)
{
 80014dc:	b580      	push	{r7, lr}
 80014de:	b084      	sub	sp, #16
 80014e0:	af00      	add	r7, sp, #0
 80014e2:	6078      	str	r0, [r7, #4]
 80014e4:	6039      	str	r1, [r7, #0]
  uint32_t tickstart;

  /* Check Null pointer */
  if(RCC_ClkInitStruct == NULL)
 80014e6:	687b      	ldr	r3, [r7, #4]
 80014e8:	2b00      	cmp	r3, #0
 80014ea:	d101      	bne.n	80014f0 <HAL_RCC_ClockConfig+0x14>
  {
    return HAL_ERROR;
 80014ec:	2301      	movs	r3, #1
 80014ee:	e0cc      	b.n	800168a <HAL_RCC_ClockConfig+0x1ae>
  /* To correctly read data from FLASH memory, the number of wait states (LATENCY)
    must be correctly programmed according to the frequency of the CPU clock
    (HCLK) and the supply voltage of the device. */

  /* Increasing the number of wait states because of higher CPU frequency */
  if(FLatency > __HAL_FLASH_GET_LATENCY())
 80014f0:	4b68      	ldr	r3, [pc, #416]	; (8001694 <HAL_RCC_ClockConfig+0x1b8>)
 80014f2:	681b      	ldr	r3, [r3, #0]
 80014f4:	f003 030f 	and.w	r3, r3, #15
 80014f8:	683a      	ldr	r2, [r7, #0]
 80014fa:	429a      	cmp	r2, r3
 80014fc:	d90c      	bls.n	8001518 <HAL_RCC_ClockConfig+0x3c>
  {
    /* Program the new number of wait states to the LATENCY bits in the FLASH_ACR register */
    __HAL_FLASH_SET_LATENCY(FLatency);
 80014fe:	4b65      	ldr	r3, [pc, #404]	; (8001694 <HAL_RCC_ClockConfig+0x1b8>)
 8001500:	683a      	ldr	r2, [r7, #0]
 8001502:	b2d2      	uxtb	r2, r2
 8001504:	701a      	strb	r2, [r3, #0]

    /* Check that the new number of wait states is taken into account to access the Flash
    memory by reading the FLASH_ACR register */
    if(__HAL_FLASH_GET_LATENCY() != FLatency)
 8001506:	4b63      	ldr	r3, [pc, #396]	; (8001694 <HAL_RCC_ClockConfig+0x1b8>)
 8001508:	681b      	ldr	r3, [r3, #0]
 800150a:	f003 030f 	and.w	r3, r3, #15
 800150e:	683a      	ldr	r2, [r7, #0]
 8001510:	429a      	cmp	r2, r3
 8001512:	d001      	beq.n	8001518 <HAL_RCC_ClockConfig+0x3c>
    {
      return HAL_ERROR;
 8001514:	2301      	movs	r3, #1
 8001516:	e0b8      	b.n	800168a <HAL_RCC_ClockConfig+0x1ae>
    }
  }

  /*-------------------------- HCLK Configuration --------------------------*/
  if(((RCC_ClkInitStruct->ClockType) & RCC_CLOCKTYPE_HCLK) == RCC_CLOCKTYPE_HCLK)
 8001518:	687b      	ldr	r3, [r7, #4]
 800151a:	681b      	ldr	r3, [r3, #0]
 800151c:	f003 0302 	and.w	r3, r3, #2
 8001520:	2b00      	cmp	r3, #0
 8001522:	d020      	beq.n	8001566 <HAL_RCC_ClockConfig+0x8a>
  {
    /* Set the highest APBx dividers in order to ensure that we do not go through
       a non-spec phase whatever we decrease or increase HCLK. */
    if(((RCC_ClkInitStruct->ClockType) & RCC_CLOCKTYPE_PCLK1) == RCC_CLOCKTYPE_PCLK1)
 8001524:	687b      	ldr	r3, [r7, #4]
 8001526:	681b      	ldr	r3, [r3, #0]
 8001528:	f003 0304 	and.w	r3, r3, #4
 800152c:	2b00      	cmp	r3, #0
 800152e:	d005      	beq.n	800153c <HAL_RCC_ClockConfig+0x60>
    {
      MODIFY_REG(RCC->CFGR, RCC_CFGR_PPRE1, RCC_HCLK_DIV16);
 8001530:	4b59      	ldr	r3, [pc, #356]	; (8001698 <HAL_RCC_ClockConfig+0x1bc>)
 8001532:	689b      	ldr	r3, [r3, #8]
 8001534:	4a58      	ldr	r2, [pc, #352]	; (8001698 <HAL_RCC_ClockConfig+0x1bc>)
 8001536:	f443 53e0 	orr.w	r3, r3, #7168	; 0x1c00
 800153a:	6093      	str	r3, [r2, #8]
    }

    if(((RCC_ClkInitStruct->ClockType) & RCC_CLOCKTYPE_PCLK2) == RCC_CLOCKTYPE_PCLK2)
 800153c:	687b      	ldr	r3, [r7, #4]
 800153e:	681b      	ldr	r3, [r3, #0]
 8001540:	f003 0308 	and.w	r3, r3, #8
 8001544:	2b00      	cmp	r3, #0
 8001546:	d005      	beq.n	8001554 <HAL_RCC_ClockConfig+0x78>
    {
      MODIFY_REG(RCC->CFGR, RCC_CFGR_PPRE2, (RCC_HCLK_DIV16 << 3));
 8001548:	4b53      	ldr	r3, [pc, #332]	; (8001698 <HAL_RCC_ClockConfig+0x1bc>)
 800154a:	689b      	ldr	r3, [r3, #8]
 800154c:	4a52      	ldr	r2, [pc, #328]	; (8001698 <HAL_RCC_ClockConfig+0x1bc>)
 800154e:	f443 4360 	orr.w	r3, r3, #57344	; 0xe000
 8001552:	6093      	str	r3, [r2, #8]
    }

    assert_param(IS_RCC_HCLK(RCC_ClkInitStruct->AHBCLKDivider));
    MODIFY_REG(RCC->CFGR, RCC_CFGR_HPRE, RCC_ClkInitStruct->AHBCLKDivider);
 8001554:	4b50      	ldr	r3, [pc, #320]	; (8001698 <HAL_RCC_ClockConfig+0x1bc>)
 8001556:	689b      	ldr	r3, [r3, #8]
 8001558:	f023 02f0 	bic.w	r2, r3, #240	; 0xf0
 800155c:	687b      	ldr	r3, [r7, #4]
 800155e:	689b      	ldr	r3, [r3, #8]
 8001560:	494d      	ldr	r1, [pc, #308]	; (8001698 <HAL_RCC_ClockConfig+0x1bc>)
 8001562:	4313      	orrs	r3, r2
 8001564:	608b      	str	r3, [r1, #8]
  }

  /*------------------------- SYSCLK Configuration ---------------------------*/
  if(((RCC_ClkInitStruct->ClockType) & RCC_CLOCKTYPE_SYSCLK) == RCC_CLOCKTYPE_SYSCLK)
 8001566:	687b      	ldr	r3, [r7, #4]
 8001568:	681b      	ldr	r3, [r3, #0]
 800156a:	f003 0301 	and.w	r3, r3, #1
 800156e:	2b00      	cmp	r3, #0
 8001570:	d044      	beq.n	80015fc <HAL_RCC_ClockConfig+0x120>
  {
    assert_param(IS_RCC_SYSCLKSOURCE(RCC_ClkInitStruct->SYSCLKSource));

    /* HSE is selected as System Clock Source */
    if(RCC_ClkInitStruct->SYSCLKSource == RCC_SYSCLKSOURCE_HSE)
 8001572:	687b      	ldr	r3, [r7, #4]
 8001574:	685b      	ldr	r3, [r3, #4]
 8001576:	2b01      	cmp	r3, #1
 8001578:	d107      	bne.n	800158a <HAL_RCC_ClockConfig+0xae>
    {
      /* Check the HSE ready flag */
      if(__HAL_RCC_GET_FLAG(RCC_FLAG_HSERDY) == RESET)
 800157a:	4b47      	ldr	r3, [pc, #284]	; (8001698 <HAL_RCC_ClockConfig+0x1bc>)
 800157c:	681b      	ldr	r3, [r3, #0]
 800157e:	f403 3300 	and.w	r3, r3, #131072	; 0x20000
 8001582:	2b00      	cmp	r3, #0
 8001584:	d119      	bne.n	80015ba <HAL_RCC_ClockConfig+0xde>
      {
        return HAL_ERROR;
 8001586:	2301      	movs	r3, #1
 8001588:	e07f      	b.n	800168a <HAL_RCC_ClockConfig+0x1ae>
      }
    }
    /* PLL is selected as System Clock Source */
    else if((RCC_ClkInitStruct->SYSCLKSource == RCC_SYSCLKSOURCE_PLLCLK)   ||
 800158a:	687b      	ldr	r3, [r7, #4]
 800158c:	685b      	ldr	r3, [r3, #4]
 800158e:	2b02      	cmp	r3, #2
 8001590:	d003      	beq.n	800159a <HAL_RCC_ClockConfig+0xbe>
            (RCC_ClkInitStruct->SYSCLKSource == RCC_SYSCLKSOURCE_PLLRCLK))
 8001592:	687b      	ldr	r3, [r7, #4]
 8001594:	685b      	ldr	r3, [r3, #4]
    else if((RCC_ClkInitStruct->SYSCLKSource == RCC_SYSCLKSOURCE_PLLCLK)   ||
 8001596:	2b03      	cmp	r3, #3
 8001598:	d107      	bne.n	80015aa <HAL_RCC_ClockConfig+0xce>
    {
      /* Check the PLL ready flag */
      if(__HAL_RCC_GET_FLAG(RCC_FLAG_PLLRDY) == RESET)
 800159a:	4b3f      	ldr	r3, [pc, #252]	; (8001698 <HAL_RCC_ClockConfig+0x1bc>)
 800159c:	681b      	ldr	r3, [r3, #0]
 800159e:	f003 7300 	and.w	r3, r3, #33554432	; 0x2000000
 80015a2:	2b00      	cmp	r3, #0
 80015a4:	d109      	bne.n	80015ba <HAL_RCC_ClockConfig+0xde>
      {
        return HAL_ERROR;
 80015a6:	2301      	movs	r3, #1
 80015a8:	e06f      	b.n	800168a <HAL_RCC_ClockConfig+0x1ae>
    }
    /* HSI is selected as System Clock Source */
    else
    {
      /* Check the HSI ready flag */
      if(__HAL_RCC_GET_FLAG(RCC_FLAG_HSIRDY) == RESET)
 80015aa:	4b3b      	ldr	r3, [pc, #236]	; (8001698 <HAL_RCC_ClockConfig+0x1bc>)
 80015ac:	681b      	ldr	r3, [r3, #0]
 80015ae:	f003 0302 	and.w	r3, r3, #2
 80015b2:	2b00      	cmp	r3, #0
 80015b4:	d101      	bne.n	80015ba <HAL_RCC_ClockConfig+0xde>
      {
        return HAL_ERROR;
 80015b6:	2301      	movs	r3, #1
 80015b8:	e067      	b.n	800168a <HAL_RCC_ClockConfig+0x1ae>
      }
    }

    __HAL_RCC_SYSCLK_CONFIG(RCC_ClkInitStruct->SYSCLKSource);
 80015ba:	4b37      	ldr	r3, [pc, #220]	; (8001698 <HAL_RCC_ClockConfig+0x1bc>)
 80015bc:	689b      	ldr	r3, [r3, #8]
 80015be:	f023 0203 	bic.w	r2, r3, #3
 80015c2:	687b      	ldr	r3, [r7, #4]
 80015c4:	685b      	ldr	r3, [r3, #4]
 80015c6:	4934      	ldr	r1, [pc, #208]	; (8001698 <HAL_RCC_ClockConfig+0x1bc>)
 80015c8:	4313      	orrs	r3, r2
 80015ca:	608b      	str	r3, [r1, #8]

    /* Get Start Tick */
    tickstart = HAL_GetTick();
 80015cc:	f7ff fa3c 	bl	8000a48 <HAL_GetTick>
 80015d0:	60f8      	str	r0, [r7, #12]

    while (__HAL_RCC_GET_SYSCLK_SOURCE() != (RCC_ClkInitStruct->SYSCLKSource << RCC_CFGR_SWS_Pos))
 80015d2:	e00a      	b.n	80015ea <HAL_RCC_ClockConfig+0x10e>
    {
      if ((HAL_GetTick() - tickstart) > CLOCKSWITCH_TIMEOUT_VALUE)
 80015d4:	f7ff fa38 	bl	8000a48 <HAL_GetTick>
 80015d8:	4602      	mov	r2, r0
 80015da:	68fb      	ldr	r3, [r7, #12]
 80015dc:	1ad3      	subs	r3, r2, r3
 80015de:	f241 3288 	movw	r2, #5000	; 0x1388
 80015e2:	4293      	cmp	r3, r2
 80015e4:	d901      	bls.n	80015ea <HAL_RCC_ClockConfig+0x10e>
      {
        return HAL_TIMEOUT;
 80015e6:	2303      	movs	r3, #3
 80015e8:	e04f      	b.n	800168a <HAL_RCC_ClockConfig+0x1ae>
    while (__HAL_RCC_GET_SYSCLK_SOURCE() != (RCC_ClkInitStruct->SYSCLKSource << RCC_CFGR_SWS_Pos))
 80015ea:	4b2b      	ldr	r3, [pc, #172]	; (8001698 <HAL_RCC_ClockConfig+0x1bc>)
 80015ec:	689b      	ldr	r3, [r3, #8]
 80015ee:	f003 020c 	and.w	r2, r3, #12
 80015f2:	687b      	ldr	r3, [r7, #4]
 80015f4:	685b      	ldr	r3, [r3, #4]
 80015f6:	009b      	lsls	r3, r3, #2
 80015f8:	429a      	cmp	r2, r3
 80015fa:	d1eb      	bne.n	80015d4 <HAL_RCC_ClockConfig+0xf8>
      }
    }
  }

  /* Decreasing the number of wait states because of lower CPU frequency */
  if(FLatency < __HAL_FLASH_GET_LATENCY())
 80015fc:	4b25      	ldr	r3, [pc, #148]	; (8001694 <HAL_RCC_ClockConfig+0x1b8>)
 80015fe:	681b      	ldr	r3, [r3, #0]
 8001600:	f003 030f 	and.w	r3, r3, #15
 8001604:	683a      	ldr	r2, [r7, #0]
 8001606:	429a      	cmp	r2, r3
 8001608:	d20c      	bcs.n	8001624 <HAL_RCC_ClockConfig+0x148>
  {
     /* Program the new number of wait states to the LATENCY bits in the FLASH_ACR register */
    __HAL_FLASH_SET_LATENCY(FLatency);
 800160a:	4b22      	ldr	r3, [pc, #136]	; (8001694 <HAL_RCC_ClockConfig+0x1b8>)
 800160c:	683a      	ldr	r2, [r7, #0]
 800160e:	b2d2      	uxtb	r2, r2
 8001610:	701a      	strb	r2, [r3, #0]

    /* Check that the new number of wait states is taken into account to access the Flash
    memory by reading the FLASH_ACR register */
    if(__HAL_FLASH_GET_LATENCY() != FLatency)
 8001612:	4b20      	ldr	r3, [pc, #128]	; (8001694 <HAL_RCC_ClockConfig+0x1b8>)
 8001614:	681b      	ldr	r3, [r3, #0]
 8001616:	f003 030f 	and.w	r3, r3, #15
 800161a:	683a      	ldr	r2, [r7, #0]
 800161c:	429a      	cmp	r2, r3
 800161e:	d001      	beq.n	8001624 <HAL_RCC_ClockConfig+0x148>
    {
      return HAL_ERROR;
 8001620:	2301      	movs	r3, #1
 8001622:	e032      	b.n	800168a <HAL_RCC_ClockConfig+0x1ae>
    }
  }

  /*-------------------------- PCLK1 Configuration ---------------------------*/
  if(((RCC_ClkInitStruct->ClockType) & RCC_CLOCKTYPE_PCLK1) == RCC_CLOCKTYPE_PCLK1)
 8001624:	687b      	ldr	r3, [r7, #4]
 8001626:	681b      	ldr	r3, [r3, #0]
 8001628:	f003 0304 	and.w	r3, r3, #4
 800162c:	2b00      	cmp	r3, #0
 800162e:	d008      	beq.n	8001642 <HAL_RCC_ClockConfig+0x166>
  {
    assert_param(IS_RCC_PCLK(RCC_ClkInitStruct->APB1CLKDivider));
    MODIFY_REG(RCC->CFGR, RCC_CFGR_PPRE1, RCC_ClkInitStruct->APB1CLKDivider);
 8001630:	4b19      	ldr	r3, [pc, #100]	; (8001698 <HAL_RCC_ClockConfig+0x1bc>)
 8001632:	689b      	ldr	r3, [r3, #8]
 8001634:	f423 52e0 	bic.w	r2, r3, #7168	; 0x1c00
 8001638:	687b      	ldr	r3, [r7, #4]
 800163a:	68db      	ldr	r3, [r3, #12]
 800163c:	4916      	ldr	r1, [pc, #88]	; (8001698 <HAL_RCC_ClockConfig+0x1bc>)
 800163e:	4313      	orrs	r3, r2
 8001640:	608b      	str	r3, [r1, #8]
  }

  /*-------------------------- PCLK2 Configuration ---------------------------*/
  if(((RCC_ClkInitStruct->ClockType) & RCC_CLOCKTYPE_PCLK2) == RCC_CLOCKTYPE_PCLK2)
 8001642:	687b      	ldr	r3, [r7, #4]
 8001644:	681b      	ldr	r3, [r3, #0]
 8001646:	f003 0308 	and.w	r3, r3, #8
 800164a:	2b00      	cmp	r3, #0
 800164c:	d009      	beq.n	8001662 <HAL_RCC_ClockConfig+0x186>
  {
    assert_param(IS_RCC_PCLK(RCC_ClkInitStruct->APB2CLKDivider));
    MODIFY_REG(RCC->CFGR, RCC_CFGR_PPRE2, ((RCC_ClkInitStruct->APB2CLKDivider) << 3U));
 800164e:	4b12      	ldr	r3, [pc, #72]	; (8001698 <HAL_RCC_ClockConfig+0x1bc>)
 8001650:	689b      	ldr	r3, [r3, #8]
 8001652:	f423 4260 	bic.w	r2, r3, #57344	; 0xe000
 8001656:	687b      	ldr	r3, [r7, #4]
 8001658:	691b      	ldr	r3, [r3, #16]
 800165a:	00db      	lsls	r3, r3, #3
 800165c:	490e      	ldr	r1, [pc, #56]	; (8001698 <HAL_RCC_ClockConfig+0x1bc>)
 800165e:	4313      	orrs	r3, r2
 8001660:	608b      	str	r3, [r1, #8]
  }

  /* Update the SystemCoreClock global variable */
  SystemCoreClock = HAL_RCC_GetSysClockFreq() >> AHBPrescTable[(RCC->CFGR & RCC_CFGR_HPRE)>> RCC_CFGR_HPRE_Pos];
 8001662:	f000 f821 	bl	80016a8 <HAL_RCC_GetSysClockFreq>
 8001666:	4602      	mov	r2, r0
 8001668:	4b0b      	ldr	r3, [pc, #44]	; (8001698 <HAL_RCC_ClockConfig+0x1bc>)
 800166a:	689b      	ldr	r3, [r3, #8]
 800166c:	091b      	lsrs	r3, r3, #4
 800166e:	f003 030f 	and.w	r3, r3, #15
 8001672:	490a      	ldr	r1, [pc, #40]	; (800169c <HAL_RCC_ClockConfig+0x1c0>)
 8001674:	5ccb      	ldrb	r3, [r1, r3]
 8001676:	fa22 f303 	lsr.w	r3, r2, r3
 800167a:	4a09      	ldr	r2, [pc, #36]	; (80016a0 <HAL_RCC_ClockConfig+0x1c4>)
 800167c:	6013      	str	r3, [r2, #0]

  /* Configure the source of time base considering new system clocks settings */
  HAL_InitTick (uwTickPrio);
 800167e:	4b09      	ldr	r3, [pc, #36]	; (80016a4 <HAL_RCC_ClockConfig+0x1c8>)
 8001680:	681b      	ldr	r3, [r3, #0]
 8001682:	4618      	mov	r0, r3
 8001684:	f7ff f99c 	bl	80009c0 <HAL_InitTick>

  return HAL_OK;
 8001688:	2300      	movs	r3, #0
}
 800168a:	4618      	mov	r0, r3
 800168c:	3710      	adds	r7, #16
 800168e:	46bd      	mov	sp, r7
 8001690:	bd80      	pop	{r7, pc}
 8001692:	bf00      	nop
 8001694:	40023c00 	.word	0x40023c00
 8001698:	40023800 	.word	0x40023800
 800169c:	08002264 	.word	0x08002264
 80016a0:	20000000 	.word	0x20000000
 80016a4:	20000004 	.word	0x20000004

080016a8 <HAL_RCC_GetSysClockFreq>:
  *
  *
  * @retval SYSCLK frequency
  */
__weak uint32_t HAL_RCC_GetSysClockFreq(void)
{
 80016a8:	e92d 4fb0 	stmdb	sp!, {r4, r5, r7, r8, r9, sl, fp, lr}
 80016ac:	b094      	sub	sp, #80	; 0x50
 80016ae:	af00      	add	r7, sp, #0
  uint32_t pllm = 0U, pllvco = 0U, pllp = 0U;
 80016b0:	2300      	movs	r3, #0
 80016b2:	647b      	str	r3, [r7, #68]	; 0x44
 80016b4:	2300      	movs	r3, #0
 80016b6:	64fb      	str	r3, [r7, #76]	; 0x4c
 80016b8:	2300      	movs	r3, #0
 80016ba:	643b      	str	r3, [r7, #64]	; 0x40
  uint32_t sysclockfreq = 0U;
 80016bc:	2300      	movs	r3, #0
 80016be:	64bb      	str	r3, [r7, #72]	; 0x48

  /* Get SYSCLK source -------------------------------------------------------*/
  switch (RCC->CFGR & RCC_CFGR_SWS)
 80016c0:	4b79      	ldr	r3, [pc, #484]	; (80018a8 <HAL_RCC_GetSysClockFreq+0x200>)
 80016c2:	689b      	ldr	r3, [r3, #8]
 80016c4:	f003 030c 	and.w	r3, r3, #12
 80016c8:	2b08      	cmp	r3, #8
 80016ca:	d00d      	beq.n	80016e8 <HAL_RCC_GetSysClockFreq+0x40>
 80016cc:	2b08      	cmp	r3, #8
 80016ce:	f200 80e1 	bhi.w	8001894 <HAL_RCC_GetSysClockFreq+0x1ec>
 80016d2:	2b00      	cmp	r3, #0
 80016d4:	d002      	beq.n	80016dc <HAL_RCC_GetSysClockFreq+0x34>
 80016d6:	2b04      	cmp	r3, #4
 80016d8:	d003      	beq.n	80016e2 <HAL_RCC_GetSysClockFreq+0x3a>
 80016da:	e0db      	b.n	8001894 <HAL_RCC_GetSysClockFreq+0x1ec>
  {
    case RCC_CFGR_SWS_HSI:  /* HSI used as system clock source */
    {
      sysclockfreq = HSI_VALUE;
 80016dc:	4b73      	ldr	r3, [pc, #460]	; (80018ac <HAL_RCC_GetSysClockFreq+0x204>)
 80016de:	64bb      	str	r3, [r7, #72]	; 0x48
       break;
 80016e0:	e0db      	b.n	800189a <HAL_RCC_GetSysClockFreq+0x1f2>
    }
    case RCC_CFGR_SWS_HSE:  /* HSE used as system clock  source */
    {
      sysclockfreq = HSE_VALUE;
 80016e2:	4b73      	ldr	r3, [pc, #460]	; (80018b0 <HAL_RCC_GetSysClockFreq+0x208>)
 80016e4:	64bb      	str	r3, [r7, #72]	; 0x48
      break;
 80016e6:	e0d8      	b.n	800189a <HAL_RCC_GetSysClockFreq+0x1f2>
    }
    case RCC_CFGR_SWS_PLL:  /* PLL used as system clock  source */
    {
      /* PLL_VCO = (HSE_VALUE or HSI_VALUE / PLLM) * PLLN
      SYSCLK = PLL_VCO / PLLP */
      pllm = RCC->PLLCFGR & RCC_PLLCFGR_PLLM;
 80016e8:	4b6f      	ldr	r3, [pc, #444]	; (80018a8 <HAL_RCC_GetSysClockFreq+0x200>)
 80016ea:	685b      	ldr	r3, [r3, #4]
 80016ec:	f003 033f 	and.w	r3, r3, #63	; 0x3f
 80016f0:	647b      	str	r3, [r7, #68]	; 0x44
      if(__HAL_RCC_GET_PLL_OSCSOURCE() != RCC_PLLSOURCE_HSI)
 80016f2:	4b6d      	ldr	r3, [pc, #436]	; (80018a8 <HAL_RCC_GetSysClockFreq+0x200>)
 80016f4:	685b      	ldr	r3, [r3, #4]
 80016f6:	f403 0380 	and.w	r3, r3, #4194304	; 0x400000
 80016fa:	2b00      	cmp	r3, #0
 80016fc:	d063      	beq.n	80017c6 <HAL_RCC_GetSysClockFreq+0x11e>
      {
        /* HSE used as PLL clock source */
        pllvco = (uint32_t) ((((uint64_t) HSE_VALUE * ((uint64_t) ((RCC->PLLCFGR & RCC_PLLCFGR_PLLN) >> RCC_PLLCFGR_PLLN_Pos)))) / (uint64_t)pllm);
 80016fe:	4b6a      	ldr	r3, [pc, #424]	; (80018a8 <HAL_RCC_GetSysClockFreq+0x200>)
 8001700:	685b      	ldr	r3, [r3, #4]
 8001702:	099b      	lsrs	r3, r3, #6
 8001704:	2200      	movs	r2, #0
 8001706:	63bb      	str	r3, [r7, #56]	; 0x38
 8001708:	63fa      	str	r2, [r7, #60]	; 0x3c
 800170a:	6bbb      	ldr	r3, [r7, #56]	; 0x38
 800170c:	f3c3 0308 	ubfx	r3, r3, #0, #9
 8001710:	633b      	str	r3, [r7, #48]	; 0x30
 8001712:	2300      	movs	r3, #0
 8001714:	637b      	str	r3, [r7, #52]	; 0x34
 8001716:	e9d7 450c 	ldrd	r4, r5, [r7, #48]	; 0x30
 800171a:	4622      	mov	r2, r4
 800171c:	462b      	mov	r3, r5
 800171e:	f04f 0000 	mov.w	r0, #0
 8001722:	f04f 0100 	mov.w	r1, #0
 8001726:	0159      	lsls	r1, r3, #5
 8001728:	ea41 61d2 	orr.w	r1, r1, r2, lsr #27
 800172c:	0150      	lsls	r0, r2, #5
 800172e:	4602      	mov	r2, r0
 8001730:	460b      	mov	r3, r1
 8001732:	4621      	mov	r1, r4
 8001734:	1a51      	subs	r1, r2, r1
 8001736:	6139      	str	r1, [r7, #16]
 8001738:	4629      	mov	r1, r5
 800173a:	eb63 0301 	sbc.w	r3, r3, r1
 800173e:	617b      	str	r3, [r7, #20]
 8001740:	f04f 0200 	mov.w	r2, #0
 8001744:	f04f 0300 	mov.w	r3, #0
 8001748:	e9d7 ab04 	ldrd	sl, fp, [r7, #16]
 800174c:	4659      	mov	r1, fp
 800174e:	018b      	lsls	r3, r1, #6
 8001750:	4651      	mov	r1, sl
 8001752:	ea43 6391 	orr.w	r3, r3, r1, lsr #26
 8001756:	4651      	mov	r1, sl
 8001758:	018a      	lsls	r2, r1, #6
 800175a:	4651      	mov	r1, sl
 800175c:	ebb2 0801 	subs.w	r8, r2, r1
 8001760:	4659      	mov	r1, fp
 8001762:	eb63 0901 	sbc.w	r9, r3, r1
 8001766:	f04f 0200 	mov.w	r2, #0
 800176a:	f04f 0300 	mov.w	r3, #0
 800176e:	ea4f 03c9 	mov.w	r3, r9, lsl #3
 8001772:	ea43 7358 	orr.w	r3, r3, r8, lsr #29
 8001776:	ea4f 02c8 	mov.w	r2, r8, lsl #3
 800177a:	4690      	mov	r8, r2
 800177c:	4699      	mov	r9, r3
 800177e:	4623      	mov	r3, r4
 8001780:	eb18 0303 	adds.w	r3, r8, r3
 8001784:	60bb      	str	r3, [r7, #8]
 8001786:	462b      	mov	r3, r5
 8001788:	eb49 0303 	adc.w	r3, r9, r3
 800178c:	60fb      	str	r3, [r7, #12]
 800178e:	f04f 0200 	mov.w	r2, #0
 8001792:	f04f 0300 	mov.w	r3, #0
 8001796:	e9d7 4502 	ldrd	r4, r5, [r7, #8]
 800179a:	4629      	mov	r1, r5
 800179c:	024b      	lsls	r3, r1, #9
 800179e:	4621      	mov	r1, r4
 80017a0:	ea43 53d1 	orr.w	r3, r3, r1, lsr #23
 80017a4:	4621      	mov	r1, r4
 80017a6:	024a      	lsls	r2, r1, #9
 80017a8:	4610      	mov	r0, r2
 80017aa:	4619      	mov	r1, r3
 80017ac:	6c7b      	ldr	r3, [r7, #68]	; 0x44
 80017ae:	2200      	movs	r2, #0
 80017b0:	62bb      	str	r3, [r7, #40]	; 0x28
 80017b2:	62fa      	str	r2, [r7, #44]	; 0x2c
 80017b4:	e9d7 230a 	ldrd	r2, r3, [r7, #40]	; 0x28
 80017b8:	f7fe fd18 	bl	80001ec <__aeabi_uldivmod>
 80017bc:	4602      	mov	r2, r0
 80017be:	460b      	mov	r3, r1
 80017c0:	4613      	mov	r3, r2
 80017c2:	64fb      	str	r3, [r7, #76]	; 0x4c
 80017c4:	e058      	b.n	8001878 <HAL_RCC_GetSysClockFreq+0x1d0>
      }
      else
      {
        /* HSI used as PLL clock source */
        pllvco = (uint32_t) ((((uint64_t) HSI_VALUE * ((uint64_t) ((RCC->PLLCFGR & RCC_PLLCFGR_PLLN) >> RCC_PLLCFGR_PLLN_Pos)))) / (uint64_t)pllm);
 80017c6:	4b38      	ldr	r3, [pc, #224]	; (80018a8 <HAL_RCC_GetSysClockFreq+0x200>)
 80017c8:	685b      	ldr	r3, [r3, #4]
 80017ca:	099b      	lsrs	r3, r3, #6
 80017cc:	2200      	movs	r2, #0
 80017ce:	4618      	mov	r0, r3
 80017d0:	4611      	mov	r1, r2
 80017d2:	f3c0 0308 	ubfx	r3, r0, #0, #9
 80017d6:	623b      	str	r3, [r7, #32]
 80017d8:	2300      	movs	r3, #0
 80017da:	627b      	str	r3, [r7, #36]	; 0x24
 80017dc:	e9d7 8908 	ldrd	r8, r9, [r7, #32]
 80017e0:	4642      	mov	r2, r8
 80017e2:	464b      	mov	r3, r9
 80017e4:	f04f 0000 	mov.w	r0, #0
 80017e8:	f04f 0100 	mov.w	r1, #0
 80017ec:	0159      	lsls	r1, r3, #5
 80017ee:	ea41 61d2 	orr.w	r1, r1, r2, lsr #27
 80017f2:	0150      	lsls	r0, r2, #5
 80017f4:	4602      	mov	r2, r0
 80017f6:	460b      	mov	r3, r1
 80017f8:	4641      	mov	r1, r8
 80017fa:	ebb2 0a01 	subs.w	sl, r2, r1
 80017fe:	4649      	mov	r1, r9
 8001800:	eb63 0b01 	sbc.w	fp, r3, r1
 8001804:	f04f 0200 	mov.w	r2, #0
 8001808:	f04f 0300 	mov.w	r3, #0
 800180c:	ea4f 138b 	mov.w	r3, fp, lsl #6
 8001810:	ea43 639a 	orr.w	r3, r3, sl, lsr #26
 8001814:	ea4f 128a 	mov.w	r2, sl, lsl #6
 8001818:	ebb2 040a 	subs.w	r4, r2, sl
 800181c:	eb63 050b 	sbc.w	r5, r3, fp
 8001820:	f04f 0200 	mov.w	r2, #0
 8001824:	f04f 0300 	mov.w	r3, #0
 8001828:	00eb      	lsls	r3, r5, #3
 800182a:	ea43 7354 	orr.w	r3, r3, r4, lsr #29
 800182e:	00e2      	lsls	r2, r4, #3
 8001830:	4614      	mov	r4, r2
 8001832:	461d      	mov	r5, r3
 8001834:	4643      	mov	r3, r8
 8001836:	18e3      	adds	r3, r4, r3
 8001838:	603b      	str	r3, [r7, #0]
 800183a:	464b      	mov	r3, r9
 800183c:	eb45 0303 	adc.w	r3, r5, r3
 8001840:	607b      	str	r3, [r7, #4]
 8001842:	f04f 0200 	mov.w	r2, #0
 8001846:	f04f 0300 	mov.w	r3, #0
 800184a:	e9d7 4500 	ldrd	r4, r5, [r7]
 800184e:	4629      	mov	r1, r5
 8001850:	028b      	lsls	r3, r1, #10
 8001852:	4621      	mov	r1, r4
 8001854:	ea43 5391 	orr.w	r3, r3, r1, lsr #22
 8001858:	4621      	mov	r1, r4
 800185a:	028a      	lsls	r2, r1, #10
 800185c:	4610      	mov	r0, r2
 800185e:	4619      	mov	r1, r3
 8001860:	6c7b      	ldr	r3, [r7, #68]	; 0x44
 8001862:	2200      	movs	r2, #0
 8001864:	61bb      	str	r3, [r7, #24]
 8001866:	61fa      	str	r2, [r7, #28]
 8001868:	e9d7 2306 	ldrd	r2, r3, [r7, #24]
 800186c:	f7fe fcbe 	bl	80001ec <__aeabi_uldivmod>
 8001870:	4602      	mov	r2, r0
 8001872:	460b      	mov	r3, r1
 8001874:	4613      	mov	r3, r2
 8001876:	64fb      	str	r3, [r7, #76]	; 0x4c
      }
      pllp = ((((RCC->PLLCFGR & RCC_PLLCFGR_PLLP) >> RCC_PLLCFGR_PLLP_Pos) + 1U) *2U);
 8001878:	4b0b      	ldr	r3, [pc, #44]	; (80018a8 <HAL_RCC_GetSysClockFreq+0x200>)
 800187a:	685b      	ldr	r3, [r3, #4]
 800187c:	0c1b      	lsrs	r3, r3, #16
 800187e:	f003 0303 	and.w	r3, r3, #3
 8001882:	3301      	adds	r3, #1
 8001884:	005b      	lsls	r3, r3, #1
 8001886:	643b      	str	r3, [r7, #64]	; 0x40

      sysclockfreq = pllvco/pllp;
 8001888:	6cfa      	ldr	r2, [r7, #76]	; 0x4c
 800188a:	6c3b      	ldr	r3, [r7, #64]	; 0x40
 800188c:	fbb2 f3f3 	udiv	r3, r2, r3
 8001890:	64bb      	str	r3, [r7, #72]	; 0x48
      break;
 8001892:	e002      	b.n	800189a <HAL_RCC_GetSysClockFreq+0x1f2>
    }
    default:
    {
      sysclockfreq = HSI_VALUE;
 8001894:	4b05      	ldr	r3, [pc, #20]	; (80018ac <HAL_RCC_GetSysClockFreq+0x204>)
 8001896:	64bb      	str	r3, [r7, #72]	; 0x48
      break;
 8001898:	bf00      	nop
    }
  }
  return sysclockfreq;
 800189a:	6cbb      	ldr	r3, [r7, #72]	; 0x48
}
 800189c:	4618      	mov	r0, r3
 800189e:	3750      	adds	r7, #80	; 0x50
 80018a0:	46bd      	mov	sp, r7
 80018a2:	e8bd 8fb0 	ldmia.w	sp!, {r4, r5, r7, r8, r9, sl, fp, pc}
 80018a6:	bf00      	nop
 80018a8:	40023800 	.word	0x40023800
 80018ac:	00f42400 	.word	0x00f42400
 80018b0:	007a1200 	.word	0x007a1200

080018b4 <HAL_RCC_GetHCLKFreq>:
  * @note   The SystemCoreClock CMSIS variable is used to store System Clock Frequency
  *         and updated within this function
  * @retval HCLK frequency
  */
uint32_t HAL_RCC_GetHCLKFreq(void)
{
 80018b4:	b480      	push	{r7}
 80018b6:	af00      	add	r7, sp, #0
  return SystemCoreClock;
 80018b8:	4b03      	ldr	r3, [pc, #12]	; (80018c8 <HAL_RCC_GetHCLKFreq+0x14>)
 80018ba:	681b      	ldr	r3, [r3, #0]
}
 80018bc:	4618      	mov	r0, r3
 80018be:	46bd      	mov	sp, r7
 80018c0:	f85d 7b04 	ldr.w	r7, [sp], #4
 80018c4:	4770      	bx	lr
 80018c6:	bf00      	nop
 80018c8:	20000000 	.word	0x20000000

080018cc <HAL_RCC_GetPCLK1Freq>:
  * @note   Each time PCLK1 changes, this function must be called to update the
  *         right PCLK1 value. Otherwise, any configuration based on this function will be incorrect.
  * @retval PCLK1 frequency
  */
uint32_t HAL_RCC_GetPCLK1Freq(void)
{
 80018cc:	b580      	push	{r7, lr}
 80018ce:	af00      	add	r7, sp, #0
  /* Get HCLK source and Compute PCLK1 frequency ---------------------------*/
  return (HAL_RCC_GetHCLKFreq() >> APBPrescTable[(RCC->CFGR & RCC_CFGR_PPRE1)>> RCC_CFGR_PPRE1_Pos]);
 80018d0:	f7ff fff0 	bl	80018b4 <HAL_RCC_GetHCLKFreq>
 80018d4:	4602      	mov	r2, r0
 80018d6:	4b05      	ldr	r3, [pc, #20]	; (80018ec <HAL_RCC_GetPCLK1Freq+0x20>)
 80018d8:	689b      	ldr	r3, [r3, #8]
 80018da:	0a9b      	lsrs	r3, r3, #10
 80018dc:	f003 0307 	and.w	r3, r3, #7
 80018e0:	4903      	ldr	r1, [pc, #12]	; (80018f0 <HAL_RCC_GetPCLK1Freq+0x24>)
 80018e2:	5ccb      	ldrb	r3, [r1, r3]
 80018e4:	fa22 f303 	lsr.w	r3, r2, r3
}
 80018e8:	4618      	mov	r0, r3
 80018ea:	bd80      	pop	{r7, pc}
 80018ec:	40023800 	.word	0x40023800
 80018f0:	08002274 	.word	0x08002274

080018f4 <HAL_RCC_GetPCLK2Freq>:
  * @note   Each time PCLK2 changes, this function must be called to update the
  *         right PCLK2 value. Otherwise, any configuration based on this function will be incorrect.
  * @retval PCLK2 frequency
  */
uint32_t HAL_RCC_GetPCLK2Freq(void)
{
 80018f4:	b580      	push	{r7, lr}
 80018f6:	af00      	add	r7, sp, #0
  /* Get HCLK source and Compute PCLK2 frequency ---------------------------*/
  return (HAL_RCC_GetHCLKFreq()>> APBPrescTable[(RCC->CFGR & RCC_CFGR_PPRE2)>> RCC_CFGR_PPRE2_Pos]);
 80018f8:	f7ff ffdc 	bl	80018b4 <HAL_RCC_GetHCLKFreq>
 80018fc:	4602      	mov	r2, r0
 80018fe:	4b05      	ldr	r3, [pc, #20]	; (8001914 <HAL_RCC_GetPCLK2Freq+0x20>)
 8001900:	689b      	ldr	r3, [r3, #8]
 8001902:	0b5b      	lsrs	r3, r3, #13
 8001904:	f003 0307 	and.w	r3, r3, #7
 8001908:	4903      	ldr	r1, [pc, #12]	; (8001918 <HAL_RCC_GetPCLK2Freq+0x24>)
 800190a:	5ccb      	ldrb	r3, [r1, r3]
 800190c:	fa22 f303 	lsr.w	r3, r2, r3
}
 8001910:	4618      	mov	r0, r3
 8001912:	bd80      	pop	{r7, pc}
 8001914:	40023800 	.word	0x40023800
 8001918:	08002274 	.word	0x08002274

0800191c <HAL_UART_Init>:
  * @param  huart  Pointer to a UART_HandleTypeDef structure that contains
  *                the configuration information for the specified UART module.
  * @retval HAL status
  */
HAL_StatusTypeDef HAL_UART_Init(UART_HandleTypeDef *huart)
{
 800191c:	b580      	push	{r7, lr}
 800191e:	b082      	sub	sp, #8
 8001920:	af00      	add	r7, sp, #0
 8001922:	6078      	str	r0, [r7, #4]
  /* Check the UART handle allocation */
  if (huart == NULL)
 8001924:	687b      	ldr	r3, [r7, #4]
 8001926:	2b00      	cmp	r3, #0
 8001928:	d101      	bne.n	800192e <HAL_UART_Init+0x12>
  {
    return HAL_ERROR;
 800192a:	2301      	movs	r3, #1
 800192c:	e03f      	b.n	80019ae <HAL_UART_Init+0x92>
    assert_param(IS_UART_INSTANCE(huart->Instance));
  }
  assert_param(IS_UART_WORD_LENGTH(huart->Init.WordLength));
  assert_param(IS_UART_OVERSAMPLING(huart->Init.OverSampling));

  if (huart->gState == HAL_UART_STATE_RESET)
 800192e:	687b      	ldr	r3, [r7, #4]
 8001930:	f893 303d 	ldrb.w	r3, [r3, #61]	; 0x3d
 8001934:	b2db      	uxtb	r3, r3
 8001936:	2b00      	cmp	r3, #0
 8001938:	d106      	bne.n	8001948 <HAL_UART_Init+0x2c>
  {
    /* Allocate lock resource and initialize it */
    huart->Lock = HAL_UNLOCKED;
 800193a:	687b      	ldr	r3, [r7, #4]
 800193c:	2200      	movs	r2, #0
 800193e:	f883 203c 	strb.w	r2, [r3, #60]	; 0x3c

    /* Init the low level hardware */
    huart->MspInitCallback(huart);
#else
    /* Init the low level hardware : GPIO, CLOCK */
    HAL_UART_MspInit(huart);
 8001942:	6878      	ldr	r0, [r7, #4]
 8001944:	f7fe ff6c 	bl	8000820 <HAL_UART_MspInit>
#endif /* (USE_HAL_UART_REGISTER_CALLBACKS) */
  }

  huart->gState = HAL_UART_STATE_BUSY;
 8001948:	687b      	ldr	r3, [r7, #4]
 800194a:	2224      	movs	r2, #36	; 0x24
 800194c:	f883 203d 	strb.w	r2, [r3, #61]	; 0x3d

  /* Disable the peripheral */
  __HAL_UART_DISABLE(huart);
 8001950:	687b      	ldr	r3, [r7, #4]
 8001952:	681b      	ldr	r3, [r3, #0]
 8001954:	68da      	ldr	r2, [r3, #12]
 8001956:	687b      	ldr	r3, [r7, #4]
 8001958:	681b      	ldr	r3, [r3, #0]
 800195a:	f422 5200 	bic.w	r2, r2, #8192	; 0x2000
 800195e:	60da      	str	r2, [r3, #12]

  /* Set the UART Communication parameters */
  UART_SetConfig(huart);
 8001960:	6878      	ldr	r0, [r7, #4]
 8001962:	f000 f9cb 	bl	8001cfc <UART_SetConfig>

  /* In asynchronous mode, the following bits must be kept cleared:
     - LINEN and CLKEN bits in the USART_CR2 register,
     - SCEN, HDSEL and IREN  bits in the USART_CR3 register.*/
  CLEAR_BIT(huart->Instance->CR2, (USART_CR2_LINEN | USART_CR2_CLKEN));
 8001966:	687b      	ldr	r3, [r7, #4]
 8001968:	681b      	ldr	r3, [r3, #0]
 800196a:	691a      	ldr	r2, [r3, #16]
 800196c:	687b      	ldr	r3, [r7, #4]
 800196e:	681b      	ldr	r3, [r3, #0]
 8001970:	f422 4290 	bic.w	r2, r2, #18432	; 0x4800
 8001974:	611a      	str	r2, [r3, #16]
  CLEAR_BIT(huart->Instance->CR3, (USART_CR3_SCEN | USART_CR3_HDSEL | USART_CR3_IREN));
 8001976:	687b      	ldr	r3, [r7, #4]
 8001978:	681b      	ldr	r3, [r3, #0]
 800197a:	695a      	ldr	r2, [r3, #20]
 800197c:	687b      	ldr	r3, [r7, #4]
 800197e:	681b      	ldr	r3, [r3, #0]
 8001980:	f022 022a 	bic.w	r2, r2, #42	; 0x2a
 8001984:	615a      	str	r2, [r3, #20]

  /* Enable the peripheral */
  __HAL_UART_ENABLE(huart);
 8001986:	687b      	ldr	r3, [r7, #4]
 8001988:	681b      	ldr	r3, [r3, #0]
 800198a:	68da      	ldr	r2, [r3, #12]
 800198c:	687b      	ldr	r3, [r7, #4]
 800198e:	681b      	ldr	r3, [r3, #0]
 8001990:	f442 5200 	orr.w	r2, r2, #8192	; 0x2000
 8001994:	60da      	str	r2, [r3, #12]

  /* Initialize the UART state */
  huart->ErrorCode = HAL_UART_ERROR_NONE;
 8001996:	687b      	ldr	r3, [r7, #4]
 8001998:	2200      	movs	r2, #0
 800199a:	641a      	str	r2, [r3, #64]	; 0x40
  huart->gState = HAL_UART_STATE_READY;
 800199c:	687b      	ldr	r3, [r7, #4]
 800199e:	2220      	movs	r2, #32
 80019a0:	f883 203d 	strb.w	r2, [r3, #61]	; 0x3d
  huart->RxState = HAL_UART_STATE_READY;
 80019a4:	687b      	ldr	r3, [r7, #4]
 80019a6:	2220      	movs	r2, #32
 80019a8:	f883 203e 	strb.w	r2, [r3, #62]	; 0x3e

  return HAL_OK;
 80019ac:	2300      	movs	r3, #0
}
 80019ae:	4618      	mov	r0, r3
 80019b0:	3708      	adds	r7, #8
 80019b2:	46bd      	mov	sp, r7
 80019b4:	bd80      	pop	{r7, pc}

080019b6 <HAL_UART_Transmit>:
  * @param  Size  Amount of data elements (u8 or u16) to be sent
  * @param  Timeout Timeout duration
  * @retval HAL status
  */
HAL_StatusTypeDef HAL_UART_Transmit(UART_HandleTypeDef *huart, const uint8_t *pData, uint16_t Size, uint32_t Timeout)
{
 80019b6:	b580      	push	{r7, lr}
 80019b8:	b08a      	sub	sp, #40	; 0x28
 80019ba:	af02      	add	r7, sp, #8
 80019bc:	60f8      	str	r0, [r7, #12]
 80019be:	60b9      	str	r1, [r7, #8]
 80019c0:	603b      	str	r3, [r7, #0]
 80019c2:	4613      	mov	r3, r2
 80019c4:	80fb      	strh	r3, [r7, #6]
  const uint8_t  *pdata8bits;
  const uint16_t *pdata16bits;
  uint32_t tickstart = 0U;
 80019c6:	2300      	movs	r3, #0
 80019c8:	617b      	str	r3, [r7, #20]

  /* Check that a Tx process is not already ongoing */
  if (huart->gState == HAL_UART_STATE_READY)
 80019ca:	68fb      	ldr	r3, [r7, #12]
 80019cc:	f893 303d 	ldrb.w	r3, [r3, #61]	; 0x3d
 80019d0:	b2db      	uxtb	r3, r3
 80019d2:	2b20      	cmp	r3, #32
 80019d4:	d17c      	bne.n	8001ad0 <HAL_UART_Transmit+0x11a>
  {
    if ((pData == NULL) || (Size == 0U))
 80019d6:	68bb      	ldr	r3, [r7, #8]
 80019d8:	2b00      	cmp	r3, #0
 80019da:	d002      	beq.n	80019e2 <HAL_UART_Transmit+0x2c>
 80019dc:	88fb      	ldrh	r3, [r7, #6]
 80019de:	2b00      	cmp	r3, #0
 80019e0:	d101      	bne.n	80019e6 <HAL_UART_Transmit+0x30>
    {
      return  HAL_ERROR;
 80019e2:	2301      	movs	r3, #1
 80019e4:	e075      	b.n	8001ad2 <HAL_UART_Transmit+0x11c>
    }

    /* Process Locked */
    __HAL_LOCK(huart);
 80019e6:	68fb      	ldr	r3, [r7, #12]
 80019e8:	f893 303c 	ldrb.w	r3, [r3, #60]	; 0x3c
 80019ec:	2b01      	cmp	r3, #1
 80019ee:	d101      	bne.n	80019f4 <HAL_UART_Transmit+0x3e>
 80019f0:	2302      	movs	r3, #2
 80019f2:	e06e      	b.n	8001ad2 <HAL_UART_Transmit+0x11c>
 80019f4:	68fb      	ldr	r3, [r7, #12]
 80019f6:	2201      	movs	r2, #1
 80019f8:	f883 203c 	strb.w	r2, [r3, #60]	; 0x3c

    huart->ErrorCode = HAL_UART_ERROR_NONE;
 80019fc:	68fb      	ldr	r3, [r7, #12]
 80019fe:	2200      	movs	r2, #0
 8001a00:	641a      	str	r2, [r3, #64]	; 0x40
    huart->gState = HAL_UART_STATE_BUSY_TX;
 8001a02:	68fb      	ldr	r3, [r7, #12]
 8001a04:	2221      	movs	r2, #33	; 0x21
 8001a06:	f883 203d 	strb.w	r2, [r3, #61]	; 0x3d

    /* Init tickstart for timeout management */
    tickstart = HAL_GetTick();
 8001a0a:	f7ff f81d 	bl	8000a48 <HAL_GetTick>
 8001a0e:	6178      	str	r0, [r7, #20]

    huart->TxXferSize = Size;
 8001a10:	68fb      	ldr	r3, [r7, #12]
 8001a12:	88fa      	ldrh	r2, [r7, #6]
 8001a14:	849a      	strh	r2, [r3, #36]	; 0x24
    huart->TxXferCount = Size;
 8001a16:	68fb      	ldr	r3, [r7, #12]
 8001a18:	88fa      	ldrh	r2, [r7, #6]
 8001a1a:	84da      	strh	r2, [r3, #38]	; 0x26

    /* In case of 9bits/No Parity transfer, pData needs to be handled as a uint16_t pointer */
    if ((huart->Init.WordLength == UART_WORDLENGTH_9B) && (huart->Init.Parity == UART_PARITY_NONE))
 8001a1c:	68fb      	ldr	r3, [r7, #12]
 8001a1e:	689b      	ldr	r3, [r3, #8]
 8001a20:	f5b3 5f80 	cmp.w	r3, #4096	; 0x1000
 8001a24:	d108      	bne.n	8001a38 <HAL_UART_Transmit+0x82>
 8001a26:	68fb      	ldr	r3, [r7, #12]
 8001a28:	691b      	ldr	r3, [r3, #16]
 8001a2a:	2b00      	cmp	r3, #0
 8001a2c:	d104      	bne.n	8001a38 <HAL_UART_Transmit+0x82>
    {
      pdata8bits  = NULL;
 8001a2e:	2300      	movs	r3, #0
 8001a30:	61fb      	str	r3, [r7, #28]
      pdata16bits = (const uint16_t *) pData;
 8001a32:	68bb      	ldr	r3, [r7, #8]
 8001a34:	61bb      	str	r3, [r7, #24]
 8001a36:	e003      	b.n	8001a40 <HAL_UART_Transmit+0x8a>
    }
    else
    {
      pdata8bits  = pData;
 8001a38:	68bb      	ldr	r3, [r7, #8]
 8001a3a:	61fb      	str	r3, [r7, #28]
      pdata16bits = NULL;
 8001a3c:	2300      	movs	r3, #0
 8001a3e:	61bb      	str	r3, [r7, #24]
    }

    /* Process Unlocked */
    __HAL_UNLOCK(huart);
 8001a40:	68fb      	ldr	r3, [r7, #12]
 8001a42:	2200      	movs	r2, #0
 8001a44:	f883 203c 	strb.w	r2, [r3, #60]	; 0x3c

    while (huart->TxXferCount > 0U)
 8001a48:	e02a      	b.n	8001aa0 <HAL_UART_Transmit+0xea>
    {
      if (UART_WaitOnFlagUntilTimeout(huart, UART_FLAG_TXE, RESET, tickstart, Timeout) != HAL_OK)
 8001a4a:	683b      	ldr	r3, [r7, #0]
 8001a4c:	9300      	str	r3, [sp, #0]
 8001a4e:	697b      	ldr	r3, [r7, #20]
 8001a50:	2200      	movs	r2, #0
 8001a52:	2180      	movs	r1, #128	; 0x80
 8001a54:	68f8      	ldr	r0, [r7, #12]
 8001a56:	f000 f8e2 	bl	8001c1e <UART_WaitOnFlagUntilTimeout>
 8001a5a:	4603      	mov	r3, r0
 8001a5c:	2b00      	cmp	r3, #0
 8001a5e:	d001      	beq.n	8001a64 <HAL_UART_Transmit+0xae>
      {
        return HAL_TIMEOUT;
 8001a60:	2303      	movs	r3, #3
 8001a62:	e036      	b.n	8001ad2 <HAL_UART_Transmit+0x11c>
      }
      if (pdata8bits == NULL)
 8001a64:	69fb      	ldr	r3, [r7, #28]
 8001a66:	2b00      	cmp	r3, #0
 8001a68:	d10b      	bne.n	8001a82 <HAL_UART_Transmit+0xcc>
      {
        huart->Instance->DR = (uint16_t)(*pdata16bits & 0x01FFU);
 8001a6a:	69bb      	ldr	r3, [r7, #24]
 8001a6c:	881b      	ldrh	r3, [r3, #0]
 8001a6e:	461a      	mov	r2, r3
 8001a70:	68fb      	ldr	r3, [r7, #12]
 8001a72:	681b      	ldr	r3, [r3, #0]
 8001a74:	f3c2 0208 	ubfx	r2, r2, #0, #9
 8001a78:	605a      	str	r2, [r3, #4]
        pdata16bits++;
 8001a7a:	69bb      	ldr	r3, [r7, #24]
 8001a7c:	3302      	adds	r3, #2
 8001a7e:	61bb      	str	r3, [r7, #24]
 8001a80:	e007      	b.n	8001a92 <HAL_UART_Transmit+0xdc>
      }
      else
      {
        huart->Instance->DR = (uint8_t)(*pdata8bits & 0xFFU);
 8001a82:	69fb      	ldr	r3, [r7, #28]
 8001a84:	781a      	ldrb	r2, [r3, #0]
 8001a86:	68fb      	ldr	r3, [r7, #12]
 8001a88:	681b      	ldr	r3, [r3, #0]
 8001a8a:	605a      	str	r2, [r3, #4]
        pdata8bits++;
 8001a8c:	69fb      	ldr	r3, [r7, #28]
 8001a8e:	3301      	adds	r3, #1
 8001a90:	61fb      	str	r3, [r7, #28]
      }
      huart->TxXferCount--;
 8001a92:	68fb      	ldr	r3, [r7, #12]
 8001a94:	8cdb      	ldrh	r3, [r3, #38]	; 0x26
 8001a96:	b29b      	uxth	r3, r3
 8001a98:	3b01      	subs	r3, #1
 8001a9a:	b29a      	uxth	r2, r3
 8001a9c:	68fb      	ldr	r3, [r7, #12]
 8001a9e:	84da      	strh	r2, [r3, #38]	; 0x26
    while (huart->TxXferCount > 0U)
 8001aa0:	68fb      	ldr	r3, [r7, #12]
 8001aa2:	8cdb      	ldrh	r3, [r3, #38]	; 0x26
 8001aa4:	b29b      	uxth	r3, r3
 8001aa6:	2b00      	cmp	r3, #0
 8001aa8:	d1cf      	bne.n	8001a4a <HAL_UART_Transmit+0x94>
    }

    if (UART_WaitOnFlagUntilTimeout(huart, UART_FLAG_TC, RESET, tickstart, Timeout) != HAL_OK)
 8001aaa:	683b      	ldr	r3, [r7, #0]
 8001aac:	9300      	str	r3, [sp, #0]
 8001aae:	697b      	ldr	r3, [r7, #20]
 8001ab0:	2200      	movs	r2, #0
 8001ab2:	2140      	movs	r1, #64	; 0x40
 8001ab4:	68f8      	ldr	r0, [r7, #12]
 8001ab6:	f000 f8b2 	bl	8001c1e <UART_WaitOnFlagUntilTimeout>
 8001aba:	4603      	mov	r3, r0
 8001abc:	2b00      	cmp	r3, #0
 8001abe:	d001      	beq.n	8001ac4 <HAL_UART_Transmit+0x10e>
    {
      return HAL_TIMEOUT;
 8001ac0:	2303      	movs	r3, #3
 8001ac2:	e006      	b.n	8001ad2 <HAL_UART_Transmit+0x11c>
    }

    /* At end of Tx process, restore huart->gState to Ready */
    huart->gState = HAL_UART_STATE_READY;
 8001ac4:	68fb      	ldr	r3, [r7, #12]
 8001ac6:	2220      	movs	r2, #32
 8001ac8:	f883 203d 	strb.w	r2, [r3, #61]	; 0x3d

    return HAL_OK;
 8001acc:	2300      	movs	r3, #0
 8001ace:	e000      	b.n	8001ad2 <HAL_UART_Transmit+0x11c>
  }
  else
  {
    return HAL_BUSY;
 8001ad0:	2302      	movs	r3, #2
  }
}
 8001ad2:	4618      	mov	r0, r3
 8001ad4:	3720      	adds	r7, #32
 8001ad6:	46bd      	mov	sp, r7
 8001ad8:	bd80      	pop	{r7, pc}

08001ada <HAL_UART_Receive>:
  * @param  Size  Amount of data elements (u8 or u16) to be received.
  * @param  Timeout Timeout duration
  * @retval HAL status
  */
HAL_StatusTypeDef HAL_UART_Receive(UART_HandleTypeDef *huart, uint8_t *pData, uint16_t Size, uint32_t Timeout)
{
 8001ada:	b580      	push	{r7, lr}
 8001adc:	b08a      	sub	sp, #40	; 0x28
 8001ade:	af02      	add	r7, sp, #8
 8001ae0:	60f8      	str	r0, [r7, #12]
 8001ae2:	60b9      	str	r1, [r7, #8]
 8001ae4:	603b      	str	r3, [r7, #0]
 8001ae6:	4613      	mov	r3, r2
 8001ae8:	80fb      	strh	r3, [r7, #6]
  uint8_t  *pdata8bits;
  uint16_t *pdata16bits;
  uint32_t tickstart = 0U;
 8001aea:	2300      	movs	r3, #0
 8001aec:	617b      	str	r3, [r7, #20]

  /* Check that a Rx process is not already ongoing */
  if (huart->RxState == HAL_UART_STATE_READY)
 8001aee:	68fb      	ldr	r3, [r7, #12]
 8001af0:	f893 303e 	ldrb.w	r3, [r3, #62]	; 0x3e
 8001af4:	b2db      	uxtb	r3, r3
 8001af6:	2b20      	cmp	r3, #32
 8001af8:	f040 808c 	bne.w	8001c14 <HAL_UART_Receive+0x13a>
  {
    if ((pData == NULL) || (Size == 0U))
 8001afc:	68bb      	ldr	r3, [r7, #8]
 8001afe:	2b00      	cmp	r3, #0
 8001b00:	d002      	beq.n	8001b08 <HAL_UART_Receive+0x2e>
 8001b02:	88fb      	ldrh	r3, [r7, #6]
 8001b04:	2b00      	cmp	r3, #0
 8001b06:	d101      	bne.n	8001b0c <HAL_UART_Receive+0x32>
    {
      return  HAL_ERROR;
 8001b08:	2301      	movs	r3, #1
 8001b0a:	e084      	b.n	8001c16 <HAL_UART_Receive+0x13c>
    }

    /* Process Locked */
    __HAL_LOCK(huart);
 8001b0c:	68fb      	ldr	r3, [r7, #12]
 8001b0e:	f893 303c 	ldrb.w	r3, [r3, #60]	; 0x3c
 8001b12:	2b01      	cmp	r3, #1
 8001b14:	d101      	bne.n	8001b1a <HAL_UART_Receive+0x40>
 8001b16:	2302      	movs	r3, #2
 8001b18:	e07d      	b.n	8001c16 <HAL_UART_Receive+0x13c>
 8001b1a:	68fb      	ldr	r3, [r7, #12]
 8001b1c:	2201      	movs	r2, #1
 8001b1e:	f883 203c 	strb.w	r2, [r3, #60]	; 0x3c

    huart->ErrorCode = HAL_UART_ERROR_NONE;
 8001b22:	68fb      	ldr	r3, [r7, #12]
 8001b24:	2200      	movs	r2, #0
 8001b26:	641a      	str	r2, [r3, #64]	; 0x40
    huart->RxState = HAL_UART_STATE_BUSY_RX;
 8001b28:	68fb      	ldr	r3, [r7, #12]
 8001b2a:	2222      	movs	r2, #34	; 0x22
 8001b2c:	f883 203e 	strb.w	r2, [r3, #62]	; 0x3e
    huart->ReceptionType = HAL_UART_RECEPTION_STANDARD;
 8001b30:	68fb      	ldr	r3, [r7, #12]
 8001b32:	2200      	movs	r2, #0
 8001b34:	631a      	str	r2, [r3, #48]	; 0x30

    /* Init tickstart for timeout management */
    tickstart = HAL_GetTick();
 8001b36:	f7fe ff87 	bl	8000a48 <HAL_GetTick>
 8001b3a:	6178      	str	r0, [r7, #20]

    huart->RxXferSize = Size;
 8001b3c:	68fb      	ldr	r3, [r7, #12]
 8001b3e:	88fa      	ldrh	r2, [r7, #6]
 8001b40:	859a      	strh	r2, [r3, #44]	; 0x2c
    huart->RxXferCount = Size;
 8001b42:	68fb      	ldr	r3, [r7, #12]
 8001b44:	88fa      	ldrh	r2, [r7, #6]
 8001b46:	85da      	strh	r2, [r3, #46]	; 0x2e

    /* In case of 9bits/No Parity transfer, pRxData needs to be handled as a uint16_t pointer */
    if ((huart->Init.WordLength == UART_WORDLENGTH_9B) && (huart->Init.Parity == UART_PARITY_NONE))
 8001b48:	68fb      	ldr	r3, [r7, #12]
 8001b4a:	689b      	ldr	r3, [r3, #8]
 8001b4c:	f5b3 5f80 	cmp.w	r3, #4096	; 0x1000
 8001b50:	d108      	bne.n	8001b64 <HAL_UART_Receive+0x8a>
 8001b52:	68fb      	ldr	r3, [r7, #12]
 8001b54:	691b      	ldr	r3, [r3, #16]
 8001b56:	2b00      	cmp	r3, #0
 8001b58:	d104      	bne.n	8001b64 <HAL_UART_Receive+0x8a>
    {
      pdata8bits  = NULL;
 8001b5a:	2300      	movs	r3, #0
 8001b5c:	61fb      	str	r3, [r7, #28]
      pdata16bits = (uint16_t *) pData;
 8001b5e:	68bb      	ldr	r3, [r7, #8]
 8001b60:	61bb      	str	r3, [r7, #24]
 8001b62:	e003      	b.n	8001b6c <HAL_UART_Receive+0x92>
    }
    else
    {
      pdata8bits  = pData;
 8001b64:	68bb      	ldr	r3, [r7, #8]
 8001b66:	61fb      	str	r3, [r7, #28]
      pdata16bits = NULL;
 8001b68:	2300      	movs	r3, #0
 8001b6a:	61bb      	str	r3, [r7, #24]
    }

    /* Process Unlocked */
    __HAL_UNLOCK(huart);
 8001b6c:	68fb      	ldr	r3, [r7, #12]
 8001b6e:	2200      	movs	r2, #0
 8001b70:	f883 203c 	strb.w	r2, [r3, #60]	; 0x3c

    /* Check the remain data to be received */
    while (huart->RxXferCount > 0U)
 8001b74:	e043      	b.n	8001bfe <HAL_UART_Receive+0x124>
    {
      if (UART_WaitOnFlagUntilTimeout(huart, UART_FLAG_RXNE, RESET, tickstart, Timeout) != HAL_OK)
 8001b76:	683b      	ldr	r3, [r7, #0]
 8001b78:	9300      	str	r3, [sp, #0]
 8001b7a:	697b      	ldr	r3, [r7, #20]
 8001b7c:	2200      	movs	r2, #0
 8001b7e:	2120      	movs	r1, #32
 8001b80:	68f8      	ldr	r0, [r7, #12]
 8001b82:	f000 f84c 	bl	8001c1e <UART_WaitOnFlagUntilTimeout>
 8001b86:	4603      	mov	r3, r0
 8001b88:	2b00      	cmp	r3, #0
 8001b8a:	d001      	beq.n	8001b90 <HAL_UART_Receive+0xb6>
      {
        return HAL_TIMEOUT;
 8001b8c:	2303      	movs	r3, #3
 8001b8e:	e042      	b.n	8001c16 <HAL_UART_Receive+0x13c>
      }
      if (pdata8bits == NULL)
 8001b90:	69fb      	ldr	r3, [r7, #28]
 8001b92:	2b00      	cmp	r3, #0
 8001b94:	d10c      	bne.n	8001bb0 <HAL_UART_Receive+0xd6>
      {
        *pdata16bits = (uint16_t)(huart->Instance->DR & 0x01FF);
 8001b96:	68fb      	ldr	r3, [r7, #12]
 8001b98:	681b      	ldr	r3, [r3, #0]
 8001b9a:	685b      	ldr	r3, [r3, #4]
 8001b9c:	b29b      	uxth	r3, r3
 8001b9e:	f3c3 0308 	ubfx	r3, r3, #0, #9
 8001ba2:	b29a      	uxth	r2, r3
 8001ba4:	69bb      	ldr	r3, [r7, #24]
 8001ba6:	801a      	strh	r2, [r3, #0]
        pdata16bits++;
 8001ba8:	69bb      	ldr	r3, [r7, #24]
 8001baa:	3302      	adds	r3, #2
 8001bac:	61bb      	str	r3, [r7, #24]
 8001bae:	e01f      	b.n	8001bf0 <HAL_UART_Receive+0x116>
      }
      else
      {
        if ((huart->Init.WordLength == UART_WORDLENGTH_9B) || ((huart->Init.WordLength == UART_WORDLENGTH_8B) && (huart->Init.Parity == UART_PARITY_NONE)))
 8001bb0:	68fb      	ldr	r3, [r7, #12]
 8001bb2:	689b      	ldr	r3, [r3, #8]
 8001bb4:	f5b3 5f80 	cmp.w	r3, #4096	; 0x1000
 8001bb8:	d007      	beq.n	8001bca <HAL_UART_Receive+0xf0>
 8001bba:	68fb      	ldr	r3, [r7, #12]
 8001bbc:	689b      	ldr	r3, [r3, #8]
 8001bbe:	2b00      	cmp	r3, #0
 8001bc0:	d10a      	bne.n	8001bd8 <HAL_UART_Receive+0xfe>
 8001bc2:	68fb      	ldr	r3, [r7, #12]
 8001bc4:	691b      	ldr	r3, [r3, #16]
 8001bc6:	2b00      	cmp	r3, #0
 8001bc8:	d106      	bne.n	8001bd8 <HAL_UART_Receive+0xfe>
        {
          *pdata8bits = (uint8_t)(huart->Instance->DR & (uint8_t)0x00FF);
 8001bca:	68fb      	ldr	r3, [r7, #12]
 8001bcc:	681b      	ldr	r3, [r3, #0]
 8001bce:	685b      	ldr	r3, [r3, #4]
 8001bd0:	b2da      	uxtb	r2, r3
 8001bd2:	69fb      	ldr	r3, [r7, #28]
 8001bd4:	701a      	strb	r2, [r3, #0]
 8001bd6:	e008      	b.n	8001bea <HAL_UART_Receive+0x110>
        }
        else
        {
          *pdata8bits = (uint8_t)(huart->Instance->DR & (uint8_t)0x007F);
 8001bd8:	68fb      	ldr	r3, [r7, #12]
 8001bda:	681b      	ldr	r3, [r3, #0]
 8001bdc:	685b      	ldr	r3, [r3, #4]
 8001bde:	b2db      	uxtb	r3, r3
 8001be0:	f003 037f 	and.w	r3, r3, #127	; 0x7f
 8001be4:	b2da      	uxtb	r2, r3
 8001be6:	69fb      	ldr	r3, [r7, #28]
 8001be8:	701a      	strb	r2, [r3, #0]
        }
        pdata8bits++;
 8001bea:	69fb      	ldr	r3, [r7, #28]
 8001bec:	3301      	adds	r3, #1
 8001bee:	61fb      	str	r3, [r7, #28]
      }
      huart->RxXferCount--;
 8001bf0:	68fb      	ldr	r3, [r7, #12]
 8001bf2:	8ddb      	ldrh	r3, [r3, #46]	; 0x2e
 8001bf4:	b29b      	uxth	r3, r3
 8001bf6:	3b01      	subs	r3, #1
 8001bf8:	b29a      	uxth	r2, r3
 8001bfa:	68fb      	ldr	r3, [r7, #12]
 8001bfc:	85da      	strh	r2, [r3, #46]	; 0x2e
    while (huart->RxXferCount > 0U)
 8001bfe:	68fb      	ldr	r3, [r7, #12]
 8001c00:	8ddb      	ldrh	r3, [r3, #46]	; 0x2e
 8001c02:	b29b      	uxth	r3, r3
 8001c04:	2b00      	cmp	r3, #0
 8001c06:	d1b6      	bne.n	8001b76 <HAL_UART_Receive+0x9c>
    }

    /* At end of Rx process, restore huart->RxState to Ready */
    huart->RxState = HAL_UART_STATE_READY;
 8001c08:	68fb      	ldr	r3, [r7, #12]
 8001c0a:	2220      	movs	r2, #32
 8001c0c:	f883 203e 	strb.w	r2, [r3, #62]	; 0x3e

    return HAL_OK;
 8001c10:	2300      	movs	r3, #0
 8001c12:	e000      	b.n	8001c16 <HAL_UART_Receive+0x13c>
  }
  else
  {
    return HAL_BUSY;
 8001c14:	2302      	movs	r3, #2
  }
}
 8001c16:	4618      	mov	r0, r3
 8001c18:	3720      	adds	r7, #32
 8001c1a:	46bd      	mov	sp, r7
 8001c1c:	bd80      	pop	{r7, pc}

08001c1e <UART_WaitOnFlagUntilTimeout>:
  * @param  Timeout Timeout duration
  * @retval HAL status
  */
static HAL_StatusTypeDef UART_WaitOnFlagUntilTimeout(UART_HandleTypeDef *huart, uint32_t Flag, FlagStatus Status,
                                                     uint32_t Tickstart, uint32_t Timeout)
{
 8001c1e:	b580      	push	{r7, lr}
 8001c20:	b090      	sub	sp, #64	; 0x40
 8001c22:	af00      	add	r7, sp, #0
 8001c24:	60f8      	str	r0, [r7, #12]
 8001c26:	60b9      	str	r1, [r7, #8]
 8001c28:	603b      	str	r3, [r7, #0]
 8001c2a:	4613      	mov	r3, r2
 8001c2c:	71fb      	strb	r3, [r7, #7]
  /* Wait until flag is set */
  while ((__HAL_UART_GET_FLAG(huart, Flag) ? SET : RESET) == Status)
 8001c2e:	e050      	b.n	8001cd2 <UART_WaitOnFlagUntilTimeout+0xb4>
  {
    /* Check for the Timeout */
    if (Timeout != HAL_MAX_DELAY)
 8001c30:	6cbb      	ldr	r3, [r7, #72]	; 0x48
 8001c32:	f1b3 3fff 	cmp.w	r3, #4294967295
 8001c36:	d04c      	beq.n	8001cd2 <UART_WaitOnFlagUntilTimeout+0xb4>
    {
      if ((Timeout == 0U) || ((HAL_GetTick() - Tickstart) > Timeout))
 8001c38:	6cbb      	ldr	r3, [r7, #72]	; 0x48
 8001c3a:	2b00      	cmp	r3, #0
 8001c3c:	d007      	beq.n	8001c4e <UART_WaitOnFlagUntilTimeout+0x30>
 8001c3e:	f7fe ff03 	bl	8000a48 <HAL_GetTick>
 8001c42:	4602      	mov	r2, r0
 8001c44:	683b      	ldr	r3, [r7, #0]
 8001c46:	1ad3      	subs	r3, r2, r3
 8001c48:	6cba      	ldr	r2, [r7, #72]	; 0x48
 8001c4a:	429a      	cmp	r2, r3
 8001c4c:	d241      	bcs.n	8001cd2 <UART_WaitOnFlagUntilTimeout+0xb4>
      {
        /* Disable TXE, RXNE, PE and ERR (Frame error, noise error, overrun error) interrupts for the interrupt process */
        ATOMIC_CLEAR_BIT(huart->Instance->CR1, (USART_CR1_RXNEIE | USART_CR1_PEIE | USART_CR1_TXEIE));
 8001c4e:	68fb      	ldr	r3, [r7, #12]
 8001c50:	681b      	ldr	r3, [r3, #0]
 8001c52:	330c      	adds	r3, #12
 8001c54:	62bb      	str	r3, [r7, #40]	; 0x28
 */
__STATIC_FORCEINLINE uint32_t __LDREXW(volatile uint32_t *addr)
{
    uint32_t result;

   __ASM volatile ("ldrex %0, %1" : "=r" (result) : "Q" (*addr) );
 8001c56:	6abb      	ldr	r3, [r7, #40]	; 0x28
 8001c58:	e853 3f00 	ldrex	r3, [r3]
 8001c5c:	627b      	str	r3, [r7, #36]	; 0x24
   return(result);
 8001c5e:	6a7b      	ldr	r3, [r7, #36]	; 0x24
 8001c60:	f423 73d0 	bic.w	r3, r3, #416	; 0x1a0
 8001c64:	63fb      	str	r3, [r7, #60]	; 0x3c
 8001c66:	68fb      	ldr	r3, [r7, #12]
 8001c68:	681b      	ldr	r3, [r3, #0]
 8001c6a:	330c      	adds	r3, #12
 8001c6c:	6bfa      	ldr	r2, [r7, #60]	; 0x3c
 8001c6e:	637a      	str	r2, [r7, #52]	; 0x34
 8001c70:	633b      	str	r3, [r7, #48]	; 0x30
 */
__STATIC_FORCEINLINE uint32_t __STREXW(uint32_t value, volatile uint32_t *addr)
{
   uint32_t result;

   __ASM volatile ("strex %0, %2, %1" : "=&r" (result), "=Q" (*addr) : "r" (value) );
 8001c72:	6b39      	ldr	r1, [r7, #48]	; 0x30
 8001c74:	6b7a      	ldr	r2, [r7, #52]	; 0x34
 8001c76:	e841 2300 	strex	r3, r2, [r1]
 8001c7a:	62fb      	str	r3, [r7, #44]	; 0x2c
   return(result);
 8001c7c:	6afb      	ldr	r3, [r7, #44]	; 0x2c
 8001c7e:	2b00      	cmp	r3, #0
 8001c80:	d1e5      	bne.n	8001c4e <UART_WaitOnFlagUntilTimeout+0x30>
        ATOMIC_CLEAR_BIT(huart->Instance->CR3, USART_CR3_EIE);
 8001c82:	68fb      	ldr	r3, [r7, #12]
 8001c84:	681b      	ldr	r3, [r3, #0]
 8001c86:	3314      	adds	r3, #20
 8001c88:	617b      	str	r3, [r7, #20]
   __ASM volatile ("ldrex %0, %1" : "=r" (result) : "Q" (*addr) );
 8001c8a:	697b      	ldr	r3, [r7, #20]
 8001c8c:	e853 3f00 	ldrex	r3, [r3]
 8001c90:	613b      	str	r3, [r7, #16]
   return(result);
 8001c92:	693b      	ldr	r3, [r7, #16]
 8001c94:	f023 0301 	bic.w	r3, r3, #1
 8001c98:	63bb      	str	r3, [r7, #56]	; 0x38
 8001c9a:	68fb      	ldr	r3, [r7, #12]
 8001c9c:	681b      	ldr	r3, [r3, #0]
 8001c9e:	3314      	adds	r3, #20
 8001ca0:	6bba      	ldr	r2, [r7, #56]	; 0x38
 8001ca2:	623a      	str	r2, [r7, #32]
 8001ca4:	61fb      	str	r3, [r7, #28]
   __ASM volatile ("strex %0, %2, %1" : "=&r" (result), "=Q" (*addr) : "r" (value) );
 8001ca6:	69f9      	ldr	r1, [r7, #28]
 8001ca8:	6a3a      	ldr	r2, [r7, #32]
 8001caa:	e841 2300 	strex	r3, r2, [r1]
 8001cae:	61bb      	str	r3, [r7, #24]
   return(result);
 8001cb0:	69bb      	ldr	r3, [r7, #24]
 8001cb2:	2b00      	cmp	r3, #0
 8001cb4:	d1e5      	bne.n	8001c82 <UART_WaitOnFlagUntilTimeout+0x64>

        huart->gState  = HAL_UART_STATE_READY;
 8001cb6:	68fb      	ldr	r3, [r7, #12]
 8001cb8:	2220      	movs	r2, #32
 8001cba:	f883 203d 	strb.w	r2, [r3, #61]	; 0x3d
        huart->RxState = HAL_UART_STATE_READY;
 8001cbe:	68fb      	ldr	r3, [r7, #12]
 8001cc0:	2220      	movs	r2, #32
 8001cc2:	f883 203e 	strb.w	r2, [r3, #62]	; 0x3e

        /* Process Unlocked */
        __HAL_UNLOCK(huart);
 8001cc6:	68fb      	ldr	r3, [r7, #12]
 8001cc8:	2200      	movs	r2, #0
 8001cca:	f883 203c 	strb.w	r2, [r3, #60]	; 0x3c

        return HAL_TIMEOUT;
 8001cce:	2303      	movs	r3, #3
 8001cd0:	e00f      	b.n	8001cf2 <UART_WaitOnFlagUntilTimeout+0xd4>
  while ((__HAL_UART_GET_FLAG(huart, Flag) ? SET : RESET) == Status)
 8001cd2:	68fb      	ldr	r3, [r7, #12]
 8001cd4:	681b      	ldr	r3, [r3, #0]
 8001cd6:	681a      	ldr	r2, [r3, #0]
 8001cd8:	68bb      	ldr	r3, [r7, #8]
 8001cda:	4013      	ands	r3, r2
 8001cdc:	68ba      	ldr	r2, [r7, #8]
 8001cde:	429a      	cmp	r2, r3
 8001ce0:	bf0c      	ite	eq
 8001ce2:	2301      	moveq	r3, #1
 8001ce4:	2300      	movne	r3, #0
 8001ce6:	b2db      	uxtb	r3, r3
 8001ce8:	461a      	mov	r2, r3
 8001cea:	79fb      	ldrb	r3, [r7, #7]
 8001cec:	429a      	cmp	r2, r3
 8001cee:	d09f      	beq.n	8001c30 <UART_WaitOnFlagUntilTimeout+0x12>
      }
    }
  }
  return HAL_OK;
 8001cf0:	2300      	movs	r3, #0
}
 8001cf2:	4618      	mov	r0, r3
 8001cf4:	3740      	adds	r7, #64	; 0x40
 8001cf6:	46bd      	mov	sp, r7
 8001cf8:	bd80      	pop	{r7, pc}
	...

08001cfc <UART_SetConfig>:
  * @param  huart  Pointer to a UART_HandleTypeDef structure that contains
  *                the configuration information for the specified UART module.
  * @retval None
  */
static void UART_SetConfig(UART_HandleTypeDef *huart)
{
 8001cfc:	e92d 4fb0 	stmdb	sp!, {r4, r5, r7, r8, r9, sl, fp, lr}
 8001d00:	b0c0      	sub	sp, #256	; 0x100
 8001d02:	af00      	add	r7, sp, #0
 8001d04:	f8c7 00f4 	str.w	r0, [r7, #244]	; 0xf4
  assert_param(IS_UART_MODE(huart->Init.Mode));

  /*-------------------------- USART CR2 Configuration -----------------------*/
  /* Configure the UART Stop Bits: Set STOP[13:12] bits
     according to huart->Init.StopBits value */
  MODIFY_REG(huart->Instance->CR2, USART_CR2_STOP, huart->Init.StopBits);
 8001d08:	f8d7 30f4 	ldr.w	r3, [r7, #244]	; 0xf4
 8001d0c:	681b      	ldr	r3, [r3, #0]
 8001d0e:	691b      	ldr	r3, [r3, #16]
 8001d10:	f423 5040 	bic.w	r0, r3, #12288	; 0x3000
 8001d14:	f8d7 30f4 	ldr.w	r3, [r7, #244]	; 0xf4
 8001d18:	68d9      	ldr	r1, [r3, #12]
 8001d1a:	f8d7 30f4 	ldr.w	r3, [r7, #244]	; 0xf4
 8001d1e:	681a      	ldr	r2, [r3, #0]
 8001d20:	ea40 0301 	orr.w	r3, r0, r1
 8001d24:	6113      	str	r3, [r2, #16]
     Set the M bits according to huart->Init.WordLength value
     Set PCE and PS bits according to huart->Init.Parity value
     Set TE and RE bits according to huart->Init.Mode value
     Set OVER8 bit according to huart->Init.OverSampling value */

  tmpreg = (uint32_t)huart->Init.WordLength | huart->Init.Parity | huart->Init.Mode | huart->Init.OverSampling;
 8001d26:	f8d7 30f4 	ldr.w	r3, [r7, #244]	; 0xf4
 8001d2a:	689a      	ldr	r2, [r3, #8]
 8001d2c:	f8d7 30f4 	ldr.w	r3, [r7, #244]	; 0xf4
 8001d30:	691b      	ldr	r3, [r3, #16]
 8001d32:	431a      	orrs	r2, r3
 8001d34:	f8d7 30f4 	ldr.w	r3, [r7, #244]	; 0xf4
 8001d38:	695b      	ldr	r3, [r3, #20]
 8001d3a:	431a      	orrs	r2, r3
 8001d3c:	f8d7 30f4 	ldr.w	r3, [r7, #244]	; 0xf4
 8001d40:	69db      	ldr	r3, [r3, #28]
 8001d42:	4313      	orrs	r3, r2
 8001d44:	f8c7 30f8 	str.w	r3, [r7, #248]	; 0xf8
  MODIFY_REG(huart->Instance->CR1,
 8001d48:	f8d7 30f4 	ldr.w	r3, [r7, #244]	; 0xf4
 8001d4c:	681b      	ldr	r3, [r3, #0]
 8001d4e:	68db      	ldr	r3, [r3, #12]
 8001d50:	f423 4116 	bic.w	r1, r3, #38400	; 0x9600
 8001d54:	f021 010c 	bic.w	r1, r1, #12
 8001d58:	f8d7 30f4 	ldr.w	r3, [r7, #244]	; 0xf4
 8001d5c:	681a      	ldr	r2, [r3, #0]
 8001d5e:	f8d7 30f8 	ldr.w	r3, [r7, #248]	; 0xf8
 8001d62:	430b      	orrs	r3, r1
 8001d64:	60d3      	str	r3, [r2, #12]
             (uint32_t)(USART_CR1_M | USART_CR1_PCE | USART_CR1_PS | USART_CR1_TE | USART_CR1_RE | USART_CR1_OVER8),
             tmpreg);

  /*-------------------------- USART CR3 Configuration -----------------------*/
  /* Configure the UART HFC: Set CTSE and RTSE bits according to huart->Init.HwFlowCtl value */
  MODIFY_REG(huart->Instance->CR3, (USART_CR3_RTSE | USART_CR3_CTSE), huart->Init.HwFlowCtl);
 8001d66:	f8d7 30f4 	ldr.w	r3, [r7, #244]	; 0xf4
 8001d6a:	681b      	ldr	r3, [r3, #0]
 8001d6c:	695b      	ldr	r3, [r3, #20]
 8001d6e:	f423 7040 	bic.w	r0, r3, #768	; 0x300
 8001d72:	f8d7 30f4 	ldr.w	r3, [r7, #244]	; 0xf4
 8001d76:	6999      	ldr	r1, [r3, #24]
 8001d78:	f8d7 30f4 	ldr.w	r3, [r7, #244]	; 0xf4
 8001d7c:	681a      	ldr	r2, [r3, #0]
 8001d7e:	ea40 0301 	orr.w	r3, r0, r1
 8001d82:	6153      	str	r3, [r2, #20]
    if ((huart->Instance == USART1) || (huart->Instance == USART6) || (huart->Instance == UART9) || (huart->Instance == UART10))
    {
      pclk = HAL_RCC_GetPCLK2Freq();
    }
#elif defined(USART6)
    if ((huart->Instance == USART1) || (huart->Instance == USART6))
 8001d84:	f8d7 30f4 	ldr.w	r3, [r7, #244]	; 0xf4
 8001d88:	681a      	ldr	r2, [r3, #0]
 8001d8a:	4b8f      	ldr	r3, [pc, #572]	; (8001fc8 <UART_SetConfig+0x2cc>)
 8001d8c:	429a      	cmp	r2, r3
 8001d8e:	d005      	beq.n	8001d9c <UART_SetConfig+0xa0>
 8001d90:	f8d7 30f4 	ldr.w	r3, [r7, #244]	; 0xf4
 8001d94:	681a      	ldr	r2, [r3, #0]
 8001d96:	4b8d      	ldr	r3, [pc, #564]	; (8001fcc <UART_SetConfig+0x2d0>)
 8001d98:	429a      	cmp	r2, r3
 8001d9a:	d104      	bne.n	8001da6 <UART_SetConfig+0xaa>
    {
      pclk = HAL_RCC_GetPCLK2Freq();
 8001d9c:	f7ff fdaa 	bl	80018f4 <HAL_RCC_GetPCLK2Freq>
 8001da0:	f8c7 00fc 	str.w	r0, [r7, #252]	; 0xfc
 8001da4:	e003      	b.n	8001dae <UART_SetConfig+0xb2>
      pclk = HAL_RCC_GetPCLK2Freq();
    }
#endif /* USART6 */
    else
    {
      pclk = HAL_RCC_GetPCLK1Freq();
 8001da6:	f7ff fd91 	bl	80018cc <HAL_RCC_GetPCLK1Freq>
 8001daa:	f8c7 00fc 	str.w	r0, [r7, #252]	; 0xfc
    }
  /*-------------------------- USART BRR Configuration ---------------------*/
  if (huart->Init.OverSampling == UART_OVERSAMPLING_8)
 8001dae:	f8d7 30f4 	ldr.w	r3, [r7, #244]	; 0xf4
 8001db2:	69db      	ldr	r3, [r3, #28]
 8001db4:	f5b3 4f00 	cmp.w	r3, #32768	; 0x8000
 8001db8:	f040 810c 	bne.w	8001fd4 <UART_SetConfig+0x2d8>
  {
    huart->Instance->BRR = UART_BRR_SAMPLING8(pclk, huart->Init.BaudRate);
 8001dbc:	f8d7 30fc 	ldr.w	r3, [r7, #252]	; 0xfc
 8001dc0:	2200      	movs	r2, #0
 8001dc2:	f8c7 30e8 	str.w	r3, [r7, #232]	; 0xe8
 8001dc6:	f8c7 20ec 	str.w	r2, [r7, #236]	; 0xec
 8001dca:	e9d7 453a 	ldrd	r4, r5, [r7, #232]	; 0xe8
 8001dce:	4622      	mov	r2, r4
 8001dd0:	462b      	mov	r3, r5
 8001dd2:	1891      	adds	r1, r2, r2
 8001dd4:	65b9      	str	r1, [r7, #88]	; 0x58
 8001dd6:	415b      	adcs	r3, r3
 8001dd8:	65fb      	str	r3, [r7, #92]	; 0x5c
 8001dda:	e9d7 2316 	ldrd	r2, r3, [r7, #88]	; 0x58
 8001dde:	4621      	mov	r1, r4
 8001de0:	eb12 0801 	adds.w	r8, r2, r1
 8001de4:	4629      	mov	r1, r5
 8001de6:	eb43 0901 	adc.w	r9, r3, r1
 8001dea:	f04f 0200 	mov.w	r2, #0
 8001dee:	f04f 0300 	mov.w	r3, #0
 8001df2:	ea4f 03c9 	mov.w	r3, r9, lsl #3
 8001df6:	ea43 7358 	orr.w	r3, r3, r8, lsr #29
 8001dfa:	ea4f 02c8 	mov.w	r2, r8, lsl #3
 8001dfe:	4690      	mov	r8, r2
 8001e00:	4699      	mov	r9, r3
 8001e02:	4623      	mov	r3, r4
 8001e04:	eb18 0303 	adds.w	r3, r8, r3
 8001e08:	f8c7 30e0 	str.w	r3, [r7, #224]	; 0xe0
 8001e0c:	462b      	mov	r3, r5
 8001e0e:	eb49 0303 	adc.w	r3, r9, r3
 8001e12:	f8c7 30e4 	str.w	r3, [r7, #228]	; 0xe4
 8001e16:	f8d7 30f4 	ldr.w	r3, [r7, #244]	; 0xf4
 8001e1a:	685b      	ldr	r3, [r3, #4]
 8001e1c:	2200      	movs	r2, #0
 8001e1e:	f8c7 30d8 	str.w	r3, [r7, #216]	; 0xd8
 8001e22:	f8c7 20dc 	str.w	r2, [r7, #220]	; 0xdc
 8001e26:	e9d7 1236 	ldrd	r1, r2, [r7, #216]	; 0xd8
 8001e2a:	460b      	mov	r3, r1
 8001e2c:	18db      	adds	r3, r3, r3
 8001e2e:	653b      	str	r3, [r7, #80]	; 0x50
 8001e30:	4613      	mov	r3, r2
 8001e32:	eb42 0303 	adc.w	r3, r2, r3
 8001e36:	657b      	str	r3, [r7, #84]	; 0x54
 8001e38:	e9d7 2314 	ldrd	r2, r3, [r7, #80]	; 0x50
 8001e3c:	e9d7 0138 	ldrd	r0, r1, [r7, #224]	; 0xe0
 8001e40:	f7fe f9d4 	bl	80001ec <__aeabi_uldivmod>
 8001e44:	4602      	mov	r2, r0
 8001e46:	460b      	mov	r3, r1
 8001e48:	4b61      	ldr	r3, [pc, #388]	; (8001fd0 <UART_SetConfig+0x2d4>)
 8001e4a:	fba3 2302 	umull	r2, r3, r3, r2
 8001e4e:	095b      	lsrs	r3, r3, #5
 8001e50:	011c      	lsls	r4, r3, #4
 8001e52:	f8d7 30fc 	ldr.w	r3, [r7, #252]	; 0xfc
 8001e56:	2200      	movs	r2, #0
 8001e58:	f8c7 30d0 	str.w	r3, [r7, #208]	; 0xd0
 8001e5c:	f8c7 20d4 	str.w	r2, [r7, #212]	; 0xd4
 8001e60:	e9d7 8934 	ldrd	r8, r9, [r7, #208]	; 0xd0
 8001e64:	4642      	mov	r2, r8
 8001e66:	464b      	mov	r3, r9
 8001e68:	1891      	adds	r1, r2, r2
 8001e6a:	64b9      	str	r1, [r7, #72]	; 0x48
 8001e6c:	415b      	adcs	r3, r3
 8001e6e:	64fb      	str	r3, [r7, #76]	; 0x4c
 8001e70:	e9d7 2312 	ldrd	r2, r3, [r7, #72]	; 0x48
 8001e74:	4641      	mov	r1, r8
 8001e76:	eb12 0a01 	adds.w	sl, r2, r1
 8001e7a:	4649      	mov	r1, r9
 8001e7c:	eb43 0b01 	adc.w	fp, r3, r1
 8001e80:	f04f 0200 	mov.w	r2, #0
 8001e84:	f04f 0300 	mov.w	r3, #0
 8001e88:	ea4f 03cb 	mov.w	r3, fp, lsl #3
 8001e8c:	ea43 735a 	orr.w	r3, r3, sl, lsr #29
 8001e90:	ea4f 02ca 	mov.w	r2, sl, lsl #3
 8001e94:	4692      	mov	sl, r2
 8001e96:	469b      	mov	fp, r3
 8001e98:	4643      	mov	r3, r8
 8001e9a:	eb1a 0303 	adds.w	r3, sl, r3
 8001e9e:	f8c7 30c8 	str.w	r3, [r7, #200]	; 0xc8
 8001ea2:	464b      	mov	r3, r9
 8001ea4:	eb4b 0303 	adc.w	r3, fp, r3
 8001ea8:	f8c7 30cc 	str.w	r3, [r7, #204]	; 0xcc
 8001eac:	f8d7 30f4 	ldr.w	r3, [r7, #244]	; 0xf4
 8001eb0:	685b      	ldr	r3, [r3, #4]
 8001eb2:	2200      	movs	r2, #0
 8001eb4:	f8c7 30c0 	str.w	r3, [r7, #192]	; 0xc0
 8001eb8:	f8c7 20c4 	str.w	r2, [r7, #196]	; 0xc4
 8001ebc:	e9d7 1230 	ldrd	r1, r2, [r7, #192]	; 0xc0
 8001ec0:	460b      	mov	r3, r1
 8001ec2:	18db      	adds	r3, r3, r3
 8001ec4:	643b      	str	r3, [r7, #64]	; 0x40
 8001ec6:	4613      	mov	r3, r2
 8001ec8:	eb42 0303 	adc.w	r3, r2, r3
 8001ecc:	647b      	str	r3, [r7, #68]	; 0x44
 8001ece:	e9d7 2310 	ldrd	r2, r3, [r7, #64]	; 0x40
 8001ed2:	e9d7 0132 	ldrd	r0, r1, [r7, #200]	; 0xc8
 8001ed6:	f7fe f989 	bl	80001ec <__aeabi_uldivmod>
 8001eda:	4602      	mov	r2, r0
 8001edc:	460b      	mov	r3, r1
 8001ede:	4611      	mov	r1, r2
 8001ee0:	4b3b      	ldr	r3, [pc, #236]	; (8001fd0 <UART_SetConfig+0x2d4>)
 8001ee2:	fba3 2301 	umull	r2, r3, r3, r1
 8001ee6:	095b      	lsrs	r3, r3, #5
 8001ee8:	2264      	movs	r2, #100	; 0x64
 8001eea:	fb02 f303 	mul.w	r3, r2, r3
 8001eee:	1acb      	subs	r3, r1, r3
 8001ef0:	00db      	lsls	r3, r3, #3
 8001ef2:	f103 0232 	add.w	r2, r3, #50	; 0x32
 8001ef6:	4b36      	ldr	r3, [pc, #216]	; (8001fd0 <UART_SetConfig+0x2d4>)
 8001ef8:	fba3 2302 	umull	r2, r3, r3, r2
 8001efc:	095b      	lsrs	r3, r3, #5
 8001efe:	005b      	lsls	r3, r3, #1
 8001f00:	f403 73f8 	and.w	r3, r3, #496	; 0x1f0
 8001f04:	441c      	add	r4, r3
 8001f06:	f8d7 30fc 	ldr.w	r3, [r7, #252]	; 0xfc
 8001f0a:	2200      	movs	r2, #0
 8001f0c:	f8c7 30b8 	str.w	r3, [r7, #184]	; 0xb8
 8001f10:	f8c7 20bc 	str.w	r2, [r7, #188]	; 0xbc
 8001f14:	e9d7 892e 	ldrd	r8, r9, [r7, #184]	; 0xb8
 8001f18:	4642      	mov	r2, r8
 8001f1a:	464b      	mov	r3, r9
 8001f1c:	1891      	adds	r1, r2, r2
 8001f1e:	63b9      	str	r1, [r7, #56]	; 0x38
 8001f20:	415b      	adcs	r3, r3
 8001f22:	63fb      	str	r3, [r7, #60]	; 0x3c
 8001f24:	e9d7 230e 	ldrd	r2, r3, [r7, #56]	; 0x38
 8001f28:	4641      	mov	r1, r8
 8001f2a:	1851      	adds	r1, r2, r1
 8001f2c:	6339      	str	r1, [r7, #48]	; 0x30
 8001f2e:	4649      	mov	r1, r9
 8001f30:	414b      	adcs	r3, r1
 8001f32:	637b      	str	r3, [r7, #52]	; 0x34
 8001f34:	f04f 0200 	mov.w	r2, #0
 8001f38:	f04f 0300 	mov.w	r3, #0
 8001f3c:	e9d7 ab0c 	ldrd	sl, fp, [r7, #48]	; 0x30
 8001f40:	4659      	mov	r1, fp
 8001f42:	00cb      	lsls	r3, r1, #3
 8001f44:	4651      	mov	r1, sl
 8001f46:	ea43 7351 	orr.w	r3, r3, r1, lsr #29
 8001f4a:	4651      	mov	r1, sl
 8001f4c:	00ca      	lsls	r2, r1, #3
 8001f4e:	4610      	mov	r0, r2
 8001f50:	4619      	mov	r1, r3
 8001f52:	4603      	mov	r3, r0
 8001f54:	4642      	mov	r2, r8
 8001f56:	189b      	adds	r3, r3, r2
 8001f58:	f8c7 30b0 	str.w	r3, [r7, #176]	; 0xb0
 8001f5c:	464b      	mov	r3, r9
 8001f5e:	460a      	mov	r2, r1
 8001f60:	eb42 0303 	adc.w	r3, r2, r3
 8001f64:	f8c7 30b4 	str.w	r3, [r7, #180]	; 0xb4
 8001f68:	f8d7 30f4 	ldr.w	r3, [r7, #244]	; 0xf4
 8001f6c:	685b      	ldr	r3, [r3, #4]
 8001f6e:	2200      	movs	r2, #0
 8001f70:	f8c7 30a8 	str.w	r3, [r7, #168]	; 0xa8
 8001f74:	f8c7 20ac 	str.w	r2, [r7, #172]	; 0xac
 8001f78:	e9d7 122a 	ldrd	r1, r2, [r7, #168]	; 0xa8
 8001f7c:	460b      	mov	r3, r1
 8001f7e:	18db      	adds	r3, r3, r3
 8001f80:	62bb      	str	r3, [r7, #40]	; 0x28
 8001f82:	4613      	mov	r3, r2
 8001f84:	eb42 0303 	adc.w	r3, r2, r3
 8001f88:	62fb      	str	r3, [r7, #44]	; 0x2c
 8001f8a:	e9d7 230a 	ldrd	r2, r3, [r7, #40]	; 0x28
 8001f8e:	e9d7 012c 	ldrd	r0, r1, [r7, #176]	; 0xb0
 8001f92:	f7fe f92b 	bl	80001ec <__aeabi_uldivmod>
 8001f96:	4602      	mov	r2, r0
 8001f98:	460b      	mov	r3, r1
 8001f9a:	4b0d      	ldr	r3, [pc, #52]	; (8001fd0 <UART_SetConfig+0x2d4>)
 8001f9c:	fba3 1302 	umull	r1, r3, r3, r2
 8001fa0:	095b      	lsrs	r3, r3, #5
 8001fa2:	2164      	movs	r1, #100	; 0x64
 8001fa4:	fb01 f303 	mul.w	r3, r1, r3
 8001fa8:	1ad3      	subs	r3, r2, r3
 8001faa:	00db      	lsls	r3, r3, #3
 8001fac:	3332      	adds	r3, #50	; 0x32
 8001fae:	4a08      	ldr	r2, [pc, #32]	; (8001fd0 <UART_SetConfig+0x2d4>)
 8001fb0:	fba2 2303 	umull	r2, r3, r2, r3
 8001fb4:	095b      	lsrs	r3, r3, #5
 8001fb6:	f003 0207 	and.w	r2, r3, #7
 8001fba:	f8d7 30f4 	ldr.w	r3, [r7, #244]	; 0xf4
 8001fbe:	681b      	ldr	r3, [r3, #0]
 8001fc0:	4422      	add	r2, r4
 8001fc2:	609a      	str	r2, [r3, #8]
  }
  else
  {
    huart->Instance->BRR = UART_BRR_SAMPLING16(pclk, huart->Init.BaudRate);
  }
}
 8001fc4:	e105      	b.n	80021d2 <UART_SetConfig+0x4d6>
 8001fc6:	bf00      	nop
 8001fc8:	40011000 	.word	0x40011000
 8001fcc:	40011400 	.word	0x40011400
 8001fd0:	51eb851f 	.word	0x51eb851f
    huart->Instance->BRR = UART_BRR_SAMPLING16(pclk, huart->Init.BaudRate);
 8001fd4:	f8d7 30fc 	ldr.w	r3, [r7, #252]	; 0xfc
 8001fd8:	2200      	movs	r2, #0
 8001fda:	f8c7 30a0 	str.w	r3, [r7, #160]	; 0xa0
 8001fde:	f8c7 20a4 	str.w	r2, [r7, #164]	; 0xa4
 8001fe2:	e9d7 8928 	ldrd	r8, r9, [r7, #160]	; 0xa0
 8001fe6:	4642      	mov	r2, r8
 8001fe8:	464b      	mov	r3, r9
 8001fea:	1891      	adds	r1, r2, r2
 8001fec:	6239      	str	r1, [r7, #32]
 8001fee:	415b      	adcs	r3, r3
 8001ff0:	627b      	str	r3, [r7, #36]	; 0x24
 8001ff2:	e9d7 2308 	ldrd	r2, r3, [r7, #32]
 8001ff6:	4641      	mov	r1, r8
 8001ff8:	1854      	adds	r4, r2, r1
 8001ffa:	4649      	mov	r1, r9
 8001ffc:	eb43 0501 	adc.w	r5, r3, r1
 8002000:	f04f 0200 	mov.w	r2, #0
 8002004:	f04f 0300 	mov.w	r3, #0
 8002008:	00eb      	lsls	r3, r5, #3
 800200a:	ea43 7354 	orr.w	r3, r3, r4, lsr #29
 800200e:	00e2      	lsls	r2, r4, #3
 8002010:	4614      	mov	r4, r2
 8002012:	461d      	mov	r5, r3
 8002014:	4643      	mov	r3, r8
 8002016:	18e3      	adds	r3, r4, r3
 8002018:	f8c7 3098 	str.w	r3, [r7, #152]	; 0x98
 800201c:	464b      	mov	r3, r9
 800201e:	eb45 0303 	adc.w	r3, r5, r3
 8002022:	f8c7 309c 	str.w	r3, [r7, #156]	; 0x9c
 8002026:	f8d7 30f4 	ldr.w	r3, [r7, #244]	; 0xf4
 800202a:	685b      	ldr	r3, [r3, #4]
 800202c:	2200      	movs	r2, #0
 800202e:	f8c7 3090 	str.w	r3, [r7, #144]	; 0x90
 8002032:	f8c7 2094 	str.w	r2, [r7, #148]	; 0x94
 8002036:	f04f 0200 	mov.w	r2, #0
 800203a:	f04f 0300 	mov.w	r3, #0
 800203e:	e9d7 4524 	ldrd	r4, r5, [r7, #144]	; 0x90
 8002042:	4629      	mov	r1, r5
 8002044:	008b      	lsls	r3, r1, #2
 8002046:	4621      	mov	r1, r4
 8002048:	ea43 7391 	orr.w	r3, r3, r1, lsr #30
 800204c:	4621      	mov	r1, r4
 800204e:	008a      	lsls	r2, r1, #2
 8002050:	e9d7 0126 	ldrd	r0, r1, [r7, #152]	; 0x98
 8002054:	f7fe f8ca 	bl	80001ec <__aeabi_uldivmod>
 8002058:	4602      	mov	r2, r0
 800205a:	460b      	mov	r3, r1
 800205c:	4b60      	ldr	r3, [pc, #384]	; (80021e0 <UART_SetConfig+0x4e4>)
 800205e:	fba3 2302 	umull	r2, r3, r3, r2
 8002062:	095b      	lsrs	r3, r3, #5
 8002064:	011c      	lsls	r4, r3, #4
 8002066:	f8d7 30fc 	ldr.w	r3, [r7, #252]	; 0xfc
 800206a:	2200      	movs	r2, #0
 800206c:	f8c7 3088 	str.w	r3, [r7, #136]	; 0x88
 8002070:	f8c7 208c 	str.w	r2, [r7, #140]	; 0x8c
 8002074:	e9d7 8922 	ldrd	r8, r9, [r7, #136]	; 0x88
 8002078:	4642      	mov	r2, r8
 800207a:	464b      	mov	r3, r9
 800207c:	1891      	adds	r1, r2, r2
 800207e:	61b9      	str	r1, [r7, #24]
 8002080:	415b      	adcs	r3, r3
 8002082:	61fb      	str	r3, [r7, #28]
 8002084:	e9d7 2306 	ldrd	r2, r3, [r7, #24]
 8002088:	4641      	mov	r1, r8
 800208a:	1851      	adds	r1, r2, r1
 800208c:	6139      	str	r1, [r7, #16]
 800208e:	4649      	mov	r1, r9
 8002090:	414b      	adcs	r3, r1
 8002092:	617b      	str	r3, [r7, #20]
 8002094:	f04f 0200 	mov.w	r2, #0
 8002098:	f04f 0300 	mov.w	r3, #0
 800209c:	e9d7 ab04 	ldrd	sl, fp, [r7, #16]
 80020a0:	4659      	mov	r1, fp
 80020a2:	00cb      	lsls	r3, r1, #3
 80020a4:	4651      	mov	r1, sl
 80020a6:	ea43 7351 	orr.w	r3, r3, r1, lsr #29
 80020aa:	4651      	mov	r1, sl
 80020ac:	00ca      	lsls	r2, r1, #3
 80020ae:	4610      	mov	r0, r2
 80020b0:	4619      	mov	r1, r3
 80020b2:	4603      	mov	r3, r0
 80020b4:	4642      	mov	r2, r8
 80020b6:	189b      	adds	r3, r3, r2
 80020b8:	f8c7 3080 	str.w	r3, [r7, #128]	; 0x80
 80020bc:	464b      	mov	r3, r9
 80020be:	460a      	mov	r2, r1
 80020c0:	eb42 0303 	adc.w	r3, r2, r3
 80020c4:	f8c7 3084 	str.w	r3, [r7, #132]	; 0x84
 80020c8:	f8d7 30f4 	ldr.w	r3, [r7, #244]	; 0xf4
 80020cc:	685b      	ldr	r3, [r3, #4]
 80020ce:	2200      	movs	r2, #0
 80020d0:	67bb      	str	r3, [r7, #120]	; 0x78
 80020d2:	67fa      	str	r2, [r7, #124]	; 0x7c
 80020d4:	f04f 0200 	mov.w	r2, #0
 80020d8:	f04f 0300 	mov.w	r3, #0
 80020dc:	e9d7 891e 	ldrd	r8, r9, [r7, #120]	; 0x78
 80020e0:	4649      	mov	r1, r9
 80020e2:	008b      	lsls	r3, r1, #2
 80020e4:	4641      	mov	r1, r8
 80020e6:	ea43 7391 	orr.w	r3, r3, r1, lsr #30
 80020ea:	4641      	mov	r1, r8
 80020ec:	008a      	lsls	r2, r1, #2
 80020ee:	e9d7 0120 	ldrd	r0, r1, [r7, #128]	; 0x80
 80020f2:	f7fe f87b 	bl	80001ec <__aeabi_uldivmod>
 80020f6:	4602      	mov	r2, r0
 80020f8:	460b      	mov	r3, r1
 80020fa:	4b39      	ldr	r3, [pc, #228]	; (80021e0 <UART_SetConfig+0x4e4>)
 80020fc:	fba3 1302 	umull	r1, r3, r3, r2
 8002100:	095b      	lsrs	r3, r3, #5
 8002102:	2164      	movs	r1, #100	; 0x64
 8002104:	fb01 f303 	mul.w	r3, r1, r3
 8002108:	1ad3      	subs	r3, r2, r3
 800210a:	011b      	lsls	r3, r3, #4
 800210c:	3332      	adds	r3, #50	; 0x32
 800210e:	4a34      	ldr	r2, [pc, #208]	; (80021e0 <UART_SetConfig+0x4e4>)
 8002110:	fba2 2303 	umull	r2, r3, r2, r3
 8002114:	095b      	lsrs	r3, r3, #5
 8002116:	f003 03f0 	and.w	r3, r3, #240	; 0xf0
 800211a:	441c      	add	r4, r3
 800211c:	f8d7 30fc 	ldr.w	r3, [r7, #252]	; 0xfc
 8002120:	2200      	movs	r2, #0
 8002122:	673b      	str	r3, [r7, #112]	; 0x70
 8002124:	677a      	str	r2, [r7, #116]	; 0x74
 8002126:	e9d7 891c 	ldrd	r8, r9, [r7, #112]	; 0x70
 800212a:	4642      	mov	r2, r8
 800212c:	464b      	mov	r3, r9
 800212e:	1891      	adds	r1, r2, r2
 8002130:	60b9      	str	r1, [r7, #8]
 8002132:	415b      	adcs	r3, r3
 8002134:	60fb      	str	r3, [r7, #12]
 8002136:	e9d7 2302 	ldrd	r2, r3, [r7, #8]
 800213a:	4641      	mov	r1, r8
 800213c:	1851      	adds	r1, r2, r1
 800213e:	6039      	str	r1, [r7, #0]
 8002140:	4649      	mov	r1, r9
 8002142:	414b      	adcs	r3, r1
 8002144:	607b      	str	r3, [r7, #4]
 8002146:	f04f 0200 	mov.w	r2, #0
 800214a:	f04f 0300 	mov.w	r3, #0
 800214e:	e9d7 ab00 	ldrd	sl, fp, [r7]
 8002152:	4659      	mov	r1, fp
 8002154:	00cb      	lsls	r3, r1, #3
 8002156:	4651      	mov	r1, sl
 8002158:	ea43 7351 	orr.w	r3, r3, r1, lsr #29
 800215c:	4651      	mov	r1, sl
 800215e:	00ca      	lsls	r2, r1, #3
 8002160:	4610      	mov	r0, r2
 8002162:	4619      	mov	r1, r3
 8002164:	4603      	mov	r3, r0
 8002166:	4642      	mov	r2, r8
 8002168:	189b      	adds	r3, r3, r2
 800216a:	66bb      	str	r3, [r7, #104]	; 0x68
 800216c:	464b      	mov	r3, r9
 800216e:	460a      	mov	r2, r1
 8002170:	eb42 0303 	adc.w	r3, r2, r3
 8002174:	66fb      	str	r3, [r7, #108]	; 0x6c
 8002176:	f8d7 30f4 	ldr.w	r3, [r7, #244]	; 0xf4
 800217a:	685b      	ldr	r3, [r3, #4]
 800217c:	2200      	movs	r2, #0
 800217e:	663b      	str	r3, [r7, #96]	; 0x60
 8002180:	667a      	str	r2, [r7, #100]	; 0x64
 8002182:	f04f 0200 	mov.w	r2, #0
 8002186:	f04f 0300 	mov.w	r3, #0
 800218a:	e9d7 8918 	ldrd	r8, r9, [r7, #96]	; 0x60
 800218e:	4649      	mov	r1, r9
 8002190:	008b      	lsls	r3, r1, #2
 8002192:	4641      	mov	r1, r8
 8002194:	ea43 7391 	orr.w	r3, r3, r1, lsr #30
 8002198:	4641      	mov	r1, r8
 800219a:	008a      	lsls	r2, r1, #2
 800219c:	e9d7 011a 	ldrd	r0, r1, [r7, #104]	; 0x68
 80021a0:	f7fe f824 	bl	80001ec <__aeabi_uldivmod>
